:020000040800F2
:10000000F8370020C1010008631D0008151C000816
:10001000611D0008CD020008B124000800000000A6
:10002000000000000000000000000000B51E0008F5
:100030008103000800000000851D0008B71E0008AD
:10004000DB010008DB010008DB010008DB01000820
:10005000DB010008DB010008DB010008DB01000810
:10006000DB010008DB010008DB010008DB01000800
:10007000DB010008DB010008DB010008DB010008F0
:10008000DB010008DB010008DB010008DB010008E0
:10009000DB010008DB010008DB010008DB010008D0
:1000A000DB010008DB010008DB010008DB010008C0
:1000B000DB010008DB010008DB010008DB010008B0
:1000C000DB010008DB010008DB010008DB010008A0
:1000D000DB01000891240008DB010008DB010008B7
:1000E000DB010008DB010008DB010008DB01000880
:1000F000DB010008DB010008DB010008DB01000870
:10010000DB010008DB010008DB010008DB0100085F
:10011000DB010008DB010008DB010008DB0100084F
:10012000DB010008DB010008D1020008DB01000848
:10013000DB010008DB010008DB010008DB0100082F
:10014000DB010008DB010008DB010008DB0100081F
:10015000DB010008DB010008DB010008DB0100080F
:10016000DB010008DB010008DB010008DB010008FF
:10017000DB010008DB010008DB01000800000000D3
:10018000DB010008DB010008DB010008DB010008DF
:10019000DB010008DB010008DB010008DB010008CF
:1001A000DB010008DB010008DB010008DFF80CD0F0
:1001B00000F07AF800480047D1330008F8370020F3
:1001C0000648804706480047FEE7FEE7FEE7FEE7F1
:1001D000FEE7FEE7FEE7FEE7FEE7FEE76D1F00082D
:1001E000AD0100082DE9F05F0546002092469B46D0
:1001F00088460646814640241BE02846414647463D
:10020000224600F041F853465A46C01A914110D395
:1002100011461846224600F028F82D1A67EB01080F
:100220004F4622460120002100F01FF817EB00097D
:100230004E41201EA4F10104DFDC484631462A4627
:100240004346BDE8F09F40EA01039B0703D009E065
:1002500008C9121F08C0042AFAD203E011F8013BB2
:1002600000F8013B521EF9D27047202A04DB203AE5
:1002700000FA02F1002070479140C2F1200320FAF9
:1002800003F3194390407047202A04DB203A21FAF7
:1002900002F00021704721FA02F3D040C2F120029F
:1002A0009140084319467047064C074D06E0E06848
:1002B00040F0010394E8070098471034AC42F6D3AD
:1002C000FFF778FF0037000820370008FEE700003E
:1002D000014800F043B900003403002001681823EE
:1002E000CAB2103AB2FBF3F2054B6FF30901032ACD
:1002F0009B5CC36500D9091D8165084670470000F5
:10030000A436000810B5014600208B698A6A4FF0B8
:10031000C07453B1B3F5005F15D072B1012A0CD08F
:10032000022A0AD0032A09D104E01AB1012A06D010
:10033000022A03D1C96AC90100D5012010BDC96ACA
:10034000A142FAD010BD002AF7D0012AF2D0022A29
:10035000F3D0032AF3D010BD30B50468256825F426
:1003600080252560046863608368402B036803D0A0
:1003700099600068C26030BD9A600068C16030BD9D
:10038000704730B5D1E901231A43D1E903352B4336
:100390001A434B690C681A438B691A43D1E9073534
:1003A000012C496A046807D01A432A436FF30E04EC
:1003B0000A43224302600AE024F4F8442B43214319
:1003C0000B43416803606FF30E010A434260002053
:1003D00030BD426942EA4101416100207047F8B5F1
:1003E00014460546D1E9000210438A686FF01F03E6
:1003F000C96803EB421242EA412108430090286198
:1004000000F07CFB064609E0601C07D024B100F038
:1004100075FB801BA04201D90320F8BDA8698006A6
:10042000F2D40020F8BD0000F0B56FF00F05D1E95F
:10043000003405EB04145B1E23432E018C682F034C
:1004400006EB042423434FEA054C0C8A8E8ACD68C0
:10045000097E4FF07F4E07EB04440CEB06560EEB83
:100460000161012A0CD082683F1107EB05352B434F
:100470002343334302F070420B43134383600FE086
:100480008768084A17402A03A2F580523243C5689C
:100490003A43234305F070450B432B438260C3600E
:1004A0000020F0BDFF0F0FFF2DE9F0410446876DDE
:1004B00000F024FB064694F835000025022806D0FB
:1004C0008020606584F834500120BDE8F081206808
:1004D000016821F0160101602068416921F0800166
:1004E0004161206C08B9A06C20B12068016821F03E
:1004F000080101602068016821F0010101600BE042
:1005000000F0FCFA801B052806D92020606504F85D
:10051000345F03206070D8E720680068C007EFD11F
:1005200094F85C103F208840B86004F8345F0120E4
:1005300060700020C9E790F83510022903D08021AF
:10054000416501207047052180F835100068016879
:1005500021F0010101600020704700002DE9F843FF
:1005600004464FF00009CDF8009063484FF416514F
:10057000A56D0068B0FBF1F72E6894F85C100820B8
:1005800000FA01F131420FD021680A6852070BD5F9
:100590000A6822F004020A6094F85C108840A8609F
:1005A000606D40F00100606594F85C104FF0010848
:1005B00008FA01F0304208D021684969090604D5DB
:1005C000A860606D40F00200606594F85C10042043
:1005D0008840304208D021680968890704D5A8609E
:1005E000606D40F00400606594F85C101020884055
:1005F000304218D021680968090714D5A86020681E
:100600000168490304D50068000308D5A16C07E020
:100610000168C90503D4016821F008010160216C5B
:1006200009B12046884794F85C1020208840304269
:1006300031D021680968C9062DD5A86094F8350025
:1006400005282068016806D0490347D500680003E3
:100650001DD4616C1CE021F0160101602068416925
:1006600021F080014161206C08B9A06C20B12068A4
:10067000016821F00801016094F85C103F20884077
:10068000A86084F8349084F83580216D1FE0E16B18
:1006900009B120468847606D00282BD0606DC007E7
:1006A00014D0052084F835002068016821F001018C
:1006B00001600098401C0090B84203D82068006890
:1006C000C007F6D184F8349084F83580E16C0029B5
:1006D00010D001B02046BDE8F04308470168C905C5
:1006E000D5D4016821F01001016084F8349084F8B9
:1006F0003580CCE7BDE8F883140000202DE9F041F7
:10070000044600F0FBF906465CB1002584F834503D
:10071000022084F835002068016821F001010160A1
:100720000DE00120BDE8F08100F0E8F9801B05280C
:1007300005D920206065032084F83500F2E72068A1
:100740000068C007F0D12268116820480140D4E950
:1007500001031843D4E9033633431843636918434C
:10076000A3691843E3691843236A18430843616A7D
:10077000042903D1D4E90B131943084310602068FE
:100780004069666A20F0070130460E4301270428BD
:100790000CD1A06A0643E06A40B12046FFF7B2FDE3
:1007A00020B14020606584F83570BAE72068466162
:1007B0002046FFF793FD94F85C203F219140816033
:1007C000656584F835700020ACE700003F8010F0CC
:1007D0002DE9F0410446866D90F83400002501288B
:1007E0000DD0012084F8340094F835700020012FDA
:1007F00007D084F8340002252846BDE8F0810220A5
:10080000FBE7022784F8357060652046FFF7A4FDFA
:1008100094F85C103F208840B0602068016841F087
:10082000160101602068416941F080014161206C3E
:1008300020B12068016841F008010160206801686A
:1008400041F001010160D7E770B5044600F056F9A8
:100850000546601C02D004480078044400F04EF9BC
:10086000401BA042FAD370BD08000020F0B5264816
:1008700087B00168002944D1012101602348002488
:10088000016841F0010101600068022500F00100EB
:1008900005904FF63F00CDE9000502AA03260C277C
:1008A00082E8D00069461A4800F03CF80D20CDE9F6
:1008B000000502AA694682E8D000164800F032F826
:1008C00048F23710CDE9000502AA694682E8D00057
:1008D000114800F027F84FF68070CDE9000502AA14
:1008E000694682E8D0000D4800F01CF84CF2037015
:1008F000CDE9000502AA694682E8D000084800F068
:1009000011F807B0F0BD00000000002038380240A8
:10091000001402400008024000180240001002408B
:10092000000C02402DE9F84FDFF890B100224FF0A3
:1009300001084FF0030A4FF00F090BF1040E00BF3E
:100940000B6808FA02F42340A3426ED14D68022DD1
:1009500001D0122D0ED1D50800EB850CDCF820500B
:100960005607F70E09FA07F6B5430E69BE402E4347
:10097000CCF82060066855000F790AFA05FC07F0EC
:10098000030726EA0C06AF40374307604E68012E86
:1009900005D0022E03D0112E01D0122E0ED1876861
:1009A000CE6827EA0C07AE403E4386604668A64301
:1009B0000C79C4F30014944034434460C4688E68D6
:1009C00024EA0C04AE402643C6604C68E4006FD5B0
:1009D0003B4C256845F480452560246822F00305DA
:1009E00004F480440094374C2E19D6F80848950733
:1009F0002F0F09FA07F5AC43334DA84201D100256A
:100A00002EE0324DA84201D1012529E0304DA84207
:100A100001D1022524E02F4DA84201D103251FE07A
:100A20002D4DA84202D104251AE041E02B4DA842E9
:100A300001D1052514E02A4DA84201D106250FE079
:100A4000284DA84201D107250AE0274DA84201D12F
:100A5000082505E0254DA84201D1092500E00A2519
:100A6000BD402543C6F80858DBF800405D464E6897
:100A70009C43F60300D51C432C60DEF8004075460D
:100A80004E689C43B60300D51C432C600B4D0835C3
:100A90002C684E689C43F60200D51C432C60074D21
:100AA0000C352C684E689C43B60200D51C432C6064
:100AB000521C102AFFF444AFBDE8F88F003C0140FF
:100AC000443802400030014000000240000402406F
:100AD00000080240000C02400010024000140240D6
:100AE00000180240001C0240002002400024024086
:100AF0000AB1816170470904FBE700000148806882
:100B00007047000008000020024881680278114404
:100B100081607047080000200B4810B5016841F45F
:100B200000710160016841F480610160016841F475
:100B300080710160032000F097F8002000F006F8B3
:100B400000F024F8002010BD003C024070B50D4DAF
:100B500004464FF47A712878B1FBF0F00A4909682D
:100B6000B1FBF0F000F04FFE48B9102C07D2002284
:100B70002146501E00F058F800206C6070BD012026
:100B800070BD000008000020140000201F4808B5B8
:100B9000016841F480410160006800F480400090E9
:100BA0001A48001F016841F080510160006800F0A0
:100BB00080500090032000F057F8002211466FF09B
:100BC0000B0000F031F8002211466FF00A0000F02F
:100BD0002BF8002211466FF0090000F025F80022E2
:100BE0001146501F00F020F800221146101F00F09F
:100BF0001BF800221146901E00F016F80022BDE8F6
:100C000008401146501E00F00FB800004438024062
:100C100000F01F02012191404009800000F1E02016
:100C2000C0F8001170470000F0B40E4B1B680C4672
:100C3000C3F30223C3F10705042D00D90425191DB0
:100C4000072901D2002300E0DB1E012606FA05F188
:100C5000491E214099409E40761E16403143F0BC0B
:100C600001F080B80CED00E0064900F007020868CA
:100C70004FF6FF03184040EA0220034A1043086081
:100C8000704700000CED00E00000FA052DE9F84384
:100C90001748016841F0805101600068154F00F06D
:100CA0008050012600903E64FFF728FF05464FF470
:100CB0007A78114C05E000BFFFF720FF401B40454C
:100CC0000DD86068C003F7D57E64FFF717FF0546AF
:100CD000464607E0FFF712FF401BB04202D903204F
:100CE000BDE8F88360688003F4D50020F8E70000D1
:100CF0004038024000000E42007000402DE9F047ED
:100D00000E46050065D0DFF81481D8F80000F7B270
:100D100000F00F00B04207D288F80070D8F8000049
:100D200000F00F00B04254D128683D4C810712D525
:100D3000400703D5206840F4E05020602878000781
:100D400003D5206840F4604020602068A96820F046
:100D5000F000084320602878C0072DD0304968682B
:100D60000839012812D0022813D0032811D00968AD
:100D7000890700292DDA216821F003010143216050
:100D8000FFF7BCFE814641F2883A0EE0096889030C
:100D9000EFE709688901ECE7FFF7B0FEA0EB090176
:100DA000514502D90320BDE8F0872068696800F04A
:100DB0000C00B0EB810FEFD1D8F80010404601F0E5
:100DC0000F01B14207D90770006800F00F00B04270
:100DD00001D00120E7E72878400705D52068E968B9
:100DE00020F4E050084320602878000706D52068EA
:100DF000296920F4604040EAC100206000F03CF81E
:100E00002168084AC1F30311515CC84006490860D3
:100E10000020FFF79BFE0020C5E70000003C0240D9
:100E200008380240AC360008140000200148006871
:100E30007047000014000020044805490068096854
:100E4000044AC1F38221515CC8407047140000205D
:100E500008380240BC3600080448054900680968A3
:100E6000044AC1F34231515CC8407047140000206D
:100E700008380240BC360008154810B5006810F06C
:100E80000C02144813D01449042A0FD0082A0ED19A
:100E90000F4C241F2268236802F03F025B0207D533
:100EA0002068C0F38810A0FB010106E0084610BDD1
:100EB0002168C1F38811A1FB00010023FFF792F91B
:100EC0002168C1F30141491C4900B0FBF1F010BD9C
:100ED000083802400024F40040787D012DE9F84FE5
:100EE000050076D02878DFF8F8B2BE4CC00749D0AC
:100EF000DBF800105846C1F38101012908D00068D1
:100F0000C0F3810002280AD1201D0068400206D5E6
:100F10002068800336D568680028E2D032E068682F
:100F2000B0F5803F10D0B0F5A02F206810D020F48D
:100F300080302060206820F4802020606868A0B1A4
:100F4000FFF7DCFD06460CE0206840F48030F4E753
:100F500040F480202060F7E7FFF7D0FD801B642875
:100F600073D820688003F7D50CE0FFF7C7FD06466D
:100F700005E000BFFFF7C2FD801B6428F0D82068A1
:100F80008003F7D42878DFF8608280074FF00009EB
:100F90003ED5DBF80010584611F00C0F09D0006860
:100FA000C0F3810002280BD18D48001F0068400269
:100FB00006D42068800715D5E868012809D111E01A
:100FC000E868B8B10120C8F80000FFF797FD0646B1
:100FD00005E002E1FFF792FD801B0228C0D82068DF
:100FE0008007F7D52068296920F0F80040EAC100A1
:100FF00020600DE0C8F80090FFF780FD064604E091
:10100000FFF77CFD801B02281FD820688007F7D4DB
:101010002878000722D5724E744869696C3671B120
:1010200001210160FFF76AFD074604E0FFF766FD56
:10103000C01B022809D830688007F7D50EE0C0F839
:101040000090FFF75BFD074605E083E0FFF756FDE4
:10105000C01B02287ED830688007F7D42878400764
:1010600068D5DFF87CA100270AF1380ADAF8000019
:10107000C0000BD4DAF8001041F08051CAF800101B
:10108000DAF80000012700F080500090584E3068D8
:10109000C00510D4306840F480703060FFF72EFD3A
:1010A000009005E0FFF72AFD0099401A022851D868
:1010B0003068C005F6D54A4EA868683601280FD0BA
:1010C0000528306810D020F001003060306820F032
:1010D00004003060A868B8B1FFF710FD00900FE081
:1010E000306840F00100F4E740F004003060F7E7BA
:1010F000FFF704FD0099411A41F28830814264D81B
:1011000030688007F4D50EE0FFF7F8FC009007E0A8
:10111000FFF7F4FC0099411A41F28830814254D81B
:1011200030688007F4D42FB1DAF8001021F0805134
:10113000CAF80010A869C0B3DBF80010C1F3810140
:1011400002294AD00228484607D0C8F86000FFF7B5
:10115000D5FC00E039E005463AE04746C8F86000B3
:10116000FFF7CCFC064604E0FFF7C8FC801B022812
:101170002BD820688001F7D4D5E907010843A96A74
:101180001C4A490802EB01416A6A41EA821108439C
:1011900095F82C1040EA01611148001F0160012000
:1011A0003866FFF7ABFC054605E014E0FFF7A6FC48
:1011B000401B022809D820688001F7D50BE000BF4A
:1011C000FFF79CFC401B022802D90320BDE8F88FE2
:1011D00020688001F4D40020F8E70120F6E7000041
:1011E000083802400038024000004742800E474263
:1011F000007000400000FFFF70B50D46040003D0F2
:1012000094F82C0010B107E0012070BD002084F894
:101210002D00204600F011F8022084F82C00211D3A
:101220002068FFF7AEF8D4E900022946FFF7FCF882
:10123000012084F82C00002070BDFFF717BB10B50B
:10124000044690F82C00022809D0022084F82C00D3
:101250002068FFF7BEF8012084F82C00002010BDA4
:1012600070B5044690F82C000D4602280DD00220DF
:1012700084F82C002068FFF7B2F82868022805D00F
:101280005FF0010084F82C00002070BD0520F9E714
:1012900070B5040005D00025A56294F8510010B186
:1012A00006E0012070BD84F85050204600F030F870
:1012B000022084F851002068016821F0400101609B
:1012C000D4E901010843D4E90312114308436169D9
:1012D0000843218B01F400710843E1690843216A46
:1012E0000843A16A084321680860A069042101EA53
:1012F0001040616A0843216848602068C16921F490
:101300000061C1616565012084F85100002070BD55
:1013100000B500680E4987B0884217D10D480021FA
:10132000026842F480120260006800F480100590A8
:101330004FF4607000900220CDE90101032003907A
:101340000520049069460448FFF7ECFA07B000BD99
:101350000050014044380240001402402DE9F84F8B
:10136000044640680026984617460D464FF004098B
:10137000B0F5827F01D1A06890B194F850000128A7
:1013800019D04FF0010B84F850B0FFF7B7FB009075
:1013900094F851004FF0000A01280ED002267FE099
:1013A00084F8519013460A462046CDF8008000F09C
:1013B00031F9BDE8F88F0220FBE7002D6FD0002F38
:1013C0006DD084F85190C4F854A0A563A787E7872F
:1013D000C4F830A0A4F834A0A4F836A0C4F840A003
:1013E000C4F844A0A0684FF40047B84204D1206874
:1013F000016821F48041016020680168490603D436
:10140000016841F040010160E068B8B133E0206854
:101410008168C90706D0007B05F8010BE08F401EEC
:10142000E0870BE0B8F1000F23D0B8F1FF3F05D003
:10143000FFF764FB0099411A41451AD2E08F00285A
:10144000E5D11BE020688168C90706D0C06825F88F
:10145000020BE08F401EE0870DE0B8F1000F08D0CE
:10146000B8F1FF3F07D0FFF749FB0099411A41450A
:1014700001D3032614E0E08F0028E3D16068B0F5C3
:10148000827F0AD1A068B84202D0B0F5806F04D143
:101490002068016821F040010160606D00B1012603
:1014A00084F851B084F850A0304682E72DE9F84F17
:1014B000044690F850000026994617460D4601282C
:1014C0000DD04FF0010B84F850B0FFF717FB8046AA
:1014D00094F85100B246012804D0022694E002207C
:1014E000BDE8F88F002D7BD0002F79D0032084F841
:1014F0005100C4F854A02563A786E786C4F838A035
:10150000A4F83CA0A4F83EA0C4F844A0C4F840A0AD
:10151000A068B0F5004F04D12068016841F4804113
:10152000016020680168490603D4016841F0400168
:101530000160E068B0F5006F606804D030B3E08E01
:10154000012823D03EE010B1E08E01281AD135F8F1
:10155000021B206805E020688168890706D535F8F8
:10156000021BC160E08E401EE0860BE0B9F1000F67
:1015700034D0B9F1FF3F05D0FFF7C0FAA0EB080166
:1015800049452BD2E08E0028E5D11EE0216815F8F0
:10159000010B087306E020688168890706D515F8F5
:1015A000011B0173E08E401EE0860BE0B9F1000FD5
:1015B00014D0B9F1FF3F05D0FFF7A0FAA0EB080166
:1015C00049450BD2E08E0028E5D14B46012202218D
:1015D0002046CDF8008000F022FC10B1032613E075
:1015E00011E042464946204600F009FC18B10126A8
:1015F0002020606508E0A06818B92068C16880688C
:101600000090606D00B1012684F851B084F850A0BC
:10161000304665E72DE9F84F044690F85000002663
:101620000A9F9A4693460D464FF0010801280ED0B6
:10163000012084F85000FFF761FA814694F85100C8
:10164000616801280CD0B1F5827F07D102E0022049
:10165000BDE8F88FA16809B9042801D00226BDE0D1
:1016600055B1BBF1000F07D0BAF1000F04D094F8C8
:101670005100012802D004E00126AFE0052084F8E3
:10168000510000206065C4F838B0A4F83EA0A4F86A
:101690003CA02563A4F836A0A4F834A020646064BC
:1016A00020680168490603D4016841F040010160E7
:1016B000E068B0F5006F606804D0E8B3E08E012800
:1016C0003BD06AE010B1E08E01282ED1216835F8B8
:1016D000020BC860E08E401EE08626E0B8F1000FE5
:1016E0000DD0E08E58B120688168890707D535F89C
:1016F000021BC160E08E401EE0864FF00008E08FC4
:1017000058B120688168C90707D0C0682BF8020B60
:10171000E08F401EE0874FF00108781C05D0FFF7EE
:10172000EDF9A0EB0900B84246D2E08E0028D5D1F1
:10173000E08F0028D2D136E0FFE7216815F8010BD1
:101740000873E08E401EE08627E000BFB8F1000F6E
:101750000DD0E08E58B120688168890707D515F84B
:10176000011B0173E08E401EE0864FF00008E08F01
:1017700058B120688168C90707D0C0680BF8010B11
:10178000E08F401EE0874FF00108781C05D0FFF77E
:10179000B5F9A0EB0900B8420ED2E08E0028D5D1F1
:1017A000E08F0028D2D13B46012202212046CDF80D
:1017B000009000F034FB08B103260FE04A4639469A
:1017C000204600F01CFB18B101262020606505E0D2
:1017D000A06818B92068C16880680090012084F86A
:1017E0005100002084F85000304631E74FF0E021EE
:1017F0000428086903D020F004000861704740F015
:101800000400FAE7704710B5401EB0F1807F01D3A5
:10181000012010BD4FF0E02460610F21601700F03F
:10182000A1FA0020A06107202061002010BD10B5A2
:10183000FFF7E8FF10BD10B504460068416994F851
:101840003920C1F3C011212A0BD151B1416921F0D6
:1018500080014161206B08B1FEF726FE204600F0B2
:101860000DFC2068416994F83A20C1F38011222AC6
:101870000BD151B1416921F040014161606B08B168
:10188000FEF712FE204600F0EBFB002010BD704773
:1018900070B5026804461068D168536910F00F0FE4
:1018A00050D003F0010501F4907635435DD0C207B6
:1018B00005D0CA0503D5E26B42F00102E26342079C
:1018C00005D5DA0703D0E26B42F00202E263820739
:1018D00005D5DA0703D0E26B42F00402E2630207A7
:1018E00005D5DA0703D0E26B42F00802E263E26B4F
:1018F000002A33D0800604D5880602D5204600F0A1
:10190000C6FB20684069E16BC0F38010090700D472
:1019100028B3204600F0A4FB2068416949061AD587
:10192000416921F040014161606BA0B11B49016533
:10193000606BFEF700FE002810D0606B016DBDE803
:1019400070400847830610D58B060ED52046BDE8AB
:10195000704000F09CBB2046FFF799FF70BD204609
:10196000FFF795FF0020E06370BD030606D50B0668
:1019700004D52046BDE8704000F026BD4006F3D5F2
:101980004806F1D5D168204621F04001D1602021E0
:1019900084F8391000F03DF970BD0000C11F000847
:1019A00070B5040004D094F83900002510B106E0A9
:1019B000012070BD84F83850204600F023F8242020
:1019C00084F839002068C16821F40051C1602046C4
:1019D00000F0A4FB2068016921F4904101612068B6
:1019E000416921F02A0141612068C16841F4005138
:1019F000C160E563202084F8390084F83A000020B3
:101A000070BD000070B506460068204986B0884267
:101A10003AD11F480025016841F0100101600068BB
:101A2000694600F0100005904FF4C060009002205D
:101A30000190012002900320039007200490154894
:101A4000FEF770FF154C144820604FF00060C4E9A9
:101A500001054014C4E903506561C001A561C4E9F2
:101A6000075020466562FEF749FE18B1AF210CA071
:101A700000F01FFD7463002201212520A663FFF7FB
:101A8000D3F82520FFF7C4F806B070BD0010014060
:101A90004438024000000240406402403403002009
:101AA0002E2E2F5372632F73746D33326634787811
:101AB0005F68616C5F6D73702E630000F8B504465B
:101AC00090F83A0020283CD1C1B3BAB394F838005A
:101AD000012836D0012084F83800A162A2850025B3
:101AE000E563222084F83A00636B1748D863636B80
:101AF00016481864636B1648D864606B1346056516
:101B00000846666B216802463046091DFEF760FEF6
:101B1000206801684168009184F83850C16841F438
:101B20008071C1602068416941F001014161206814
:101B3000416941F0400141610020F8BDFFE701200B
:101B4000FBE70220F9E700001B20000857200008EF
:101B5000D11F0008704770472DE9F843044690F8FC
:101B600039001F4616460D46202850D1A5B19EB11A
:101B700094F8380001284AD0012084F838004FF04A
:101B80000008C4F83C80212084F83900FEF7B6FF35
:101B9000A6848146E68426E00120BDE8F883E08C37
:101BA000401EE084A0684B46B0F5805F4FF0000215
:101BB0004FF080012046009703D000F036FCE8B9D2
:101BC0000DE000F032FCC8B928882168C0F3080095
:101BD0004860206908B16D1C05E0AD1C03E0216878
:101BE00015F8010B4860E08C0028D8D14B46002244
:101BF00040212046009700F018FC08B10320CCE7F4
:101C0000202084F8390084F838800020C5E70220BD
:101C1000C3E77047FEE7000000B5164887B01449D7
:101C20000022C0E900120121816008211023C0E9CF
:101C30000313402343614FF4C073C0E906320A0224
:101C400002624A0242628A0282620220CDE90001F7
:101C50000621029103910421CDE904100690694602
:101C60000448FFF7C9FA002800D0FEE707B000BD1E
:101C7000400100A0C000002030B5274887B00024F4
:101C8000016841F020010160016801F02001059127
:101C9000016841F080010160016801F08001059157
:101CA000016841F004010160016801F0040105913F
:101CB000016841F040010160016801F040010591B7
:101CC000016841F010010160016801F01001059107
:101CD000016841F008010160016801F00801059107
:101CE000016841F00101016000680C4D00F0010045
:101CF0000590012240212846FEF7FAFE4020009080
:101D00000120CDE901040220039069462846FEF730
:101D100009FE07B030BD0000303802400014024018
:101D20000E4810B50C4901604FF4827141600021EA
:101D30008160C1604FF400720161C0E90512C161A8
:101D40000162416281620A21C162FFF7A1FA0028A3
:101D500000D0FEE710BD0000005001402800002028
:101D6000FEE770470907090E002806DA00F00F00A9
:101D700000F1E02080F8141D704700F1E02080F8A9
:101D80000014704770472DE9F84F0C4600250126D6
:101D900010270095C4E90067C4E902654FF4805933
:101DA00082464A46FFF75CFA6420FEF74DFD0220AA
:101DB000C4E90007C4E902654A4621465046FFF7D8
:101DC0004FFA03204FF00408E56084E881014A4699
:101DD00021465046FFF744FA40F231200090C4E912
:101DE0000260C4E900874A4621465046FFF738FAA8
:101DF0005046BDE8F84F40F26A51FFF720BA38B5B7
:101E00000B46009204460022802100F008F80028CA
:101E100004D0606D40F020006065032038BD2DE9DE
:101E2000F0411D4617460E460446DDF8188035E0A1
:101E3000681C33D02DB1FEF761FEA0EB0800A8426C
:101E40002CD32068416821F0E00141606068B0F562
:101E5000827F0BD1A068B0F5004F02D0B0F5806F43
:101E600004D12068016821F040010160A06AB0F54A
:101E7000005F0AD1206801684DF6FF7211400160D1
:101E80002068016841F400510160012084F851008C
:101E9000002084F850000320BDE8F08120688068AD
:101EA00036EA000004D00020B842C1D10020F3E798
:101EB0000120F9E7704710B5FEF726FEBDE8104097
:101EC000FFF7B5BC30B5274893B00025016841F055
:101ED00080510160006800F0805011902248016834
:101EE00041F4404101600068022400F44040119038
:101EF00001200090000401908001CDE906401920E6
:101F000008904FF4B470CDE9090404200B906846A2
:101F1000FEF7E4FF00B1FEE7FEF7B8FE00B1FEE712
:101F20000CA90F2081E831004FF4A0500F904FF41E
:101F30008050109005210CA8FEF7E0FE00B1FEE7EE
:101F4000FEF774FF4FF47A71B0FBF1F0FFF75BFC22
:101F50000420FFF74BFC00221146501EFEF764FEE2
:101F600013B030BD40380240007000401048016896
:101F700041F4700101600F48016841F00101016006
:101F80000C4A00210832116002680B4B1A400260B3
:101F9000031D0A4A1A60026822F480220260054882
:101FA0000C30016002495806803908607047000013
:101FB00088ED00E000380240FFFFF6FE10300024FC
:101FC00010B5806B0021C185C184FFF760FC10BD96
:101FD00070B5846B2068406994F83910C0F3C01064
:101FE0000025212904D118B1E584204600F046F8E7
:101FF0002068406994F83A10C0F38010222904D177
:1020000018B1E585204600F02BF8E06B40F0100099
:10201000E0632046FFF73BFC70BD10B50146806BC6
:1020200009680968C90513D40021C1850168CA6817
:1020300022F48072CA6001684A6922F001024A6192
:1020400001684A6922F040024A61202180F83A1072
:10205000FFF780FD10BD10B5806BFFF77CFD10BD54
:102060000168CA6822F49072CA6001684A6922F065
:1020700001024A61202180F83A1070470168CA685D
:1020800022F0C002CA60202180F83910704710B5D4
:1020900090F83A10222901D0022010BD8168B1F5D4
:1020A000805F11D00169002901681FD0496801F0E3
:1020B0007F03816A4A1C82620B70C18D491E09042C
:1020C000090CC18518D026E00269816A002A0268DD
:1020D000526805D0D2B20A80816A491C8162ECE75D
:1020E000C2F308020A80816A891CF7E74A68816A9C
:1020F0004B1C83620A70E0E70168CA6822F49072A0
:10210000CA6001684A6922F001024A61202180F810
:102110003A10FFF71FFD002010BD00002DE9F0412F
:1021200004460068016921F44052E16811430161ED
:102130002168C86849F20C6290432369A268E56986
:102140001A4363692B431A430243CA6021684869F2
:1021500020F44072A06910434861E1696425B1F53B
:10216000004F9748974A21684FF032083FD091427C
:1021700001D081427CD1FEF76FFE00EBC00101EB84
:10218000001061688900B0FBF1F6FEF765FE00EB18
:10219000C00101EB001061688900B0FBF1F0B0FBF9
:1021A000F5F06FF01801484306EB800108EB0110D1
:1021B000B0FBF5F000F0F006FEF74EFE00EBC001BC
:1021C00001EB001061688900B0FBF1F0B0FBF5F0A5
:1021D00006EB0016FEF740FE00EBC00101EB00101D
:1021E00061688900B0FBF1F7FEF736FED2E091425C
:1021F00001D081423DD1FEF72FFE00EBC00101EB83
:10220000001061684900B0FBF1F0B0FBF5F0060189
:10221000FEF722FE00EBC00101EB001061684900EF
:10222000B0FBF1F7FEF718FE00EBC00101EB001068
:1022300061684900B0FBF1F0B0FBF5F06FF01801F8
:10224000484307EB800108EBC100B0FBF5F000F05C
:10225000F80006EB4006FEF7FFFD00EBC00101EBC6
:10226000001061684900B0FBF1F7FEF7F5FD3CE0B6
:1022700055E0FEF7E1FD00EBC00101EB00106168E5
:102280004900B0FBF1F0B0FBF5F00601FEF7D4FD1C
:1022900000EBC00101EB001061684900B0FBF1F7F1
:1022A000FEF7CAFD00EBC00101EB001061684900B8
:1022B000B0FBF1F0B0FBF5F06FF01801484307EB0D
:1022C000800108EBC100B0FBF5F000F0F80006EB70
:1022D0004006FEF7B1FD00EBC00101EB00106168A4
:1022E0004900B0FBF1F7FEF7A7FD00EBC00101EBE1
:1022F000001061684900B0FBF1F0B0FBF5F06FF041
:102300001801484307EB800108EBC100B0FBF5F072
:1023100000F00700216830448860BDE8F081FEF7D6
:102320008BFD00EBC00101EB001061688900B0FB80
:10233000F1F6FEF781FD00EBC00101EB00106168D2
:102340008900B0FBF1F0B0FBF5F06FF018014843E5
:1023500006EB800108EB0110B0FBF5F000F0F00691
:10236000FEF76AFD00EBC00101EB00106168890017
:10237000B0FBF1F0B0FBF5F006EB0016FEF75CFDEC
:1023800000EBC00101EB001061688900B0FBF1F7C0
:10239000FEF752FD00EBC00101EB001061688900FF
:1023A000B0FBF1F0B0FBF5F06FF01801484307EB1C
:1023B000800108EB0110B0FBF5F000F00F00A9E779
:1023C000001401400010014090F83910212901D07B
:1023D000022070478168B1F5805F016A0BD04A1C0A
:1023E0000262026809785160C18C491E0904090C17
:1023F000C1840ED017E009880268C1F3080151605A
:1024000001690029016A02D0491C0162ECE7891CBC
:10241000FBE70168CA6822F08002CA600068C168F0
:1024200041F04001C160002070472DE9F04198461D
:1024300017460E460446069D1DE0681C1BD02DB1B4
:10244000FEF75CFBA0EB0800A84214D92068C16825
:1024500021F4D071C1602068416921F0010141611E
:10246000202084F8390084F83A00002084F83800ED
:102470000320BDE8F0812068006836EA000004D03F
:102480000020B842D9D00020F3E70120F9E700008E
:1024900010B50648FFF7FCF904480068C068C0069C
:1024A00003D5BDE8104001F0B9B810BD8000002090
:1024B000FEE7FEE702E008C8121F08C1002AFAD1B1
:1024C00070477047002001E001C1121F002AFBD1B4
:1024D000704710B548B14188021D8C5A091D00F0A3
:1024E0007FF9844203D0022010BD012010BD0020DE
:1024F00010BD00207047000006484FF0FF3181609A
:10250000002141740160C0F80D10C0F81210416044
:1025100001737047B4130020704700002DE9F05F8D
:1025200006004FF00000ADF5825D0446054609D077
:1025300077884FF4815ABF1DEB46574507D84FF0B7
:1025400001093DE003200DF5825DBDE8F09FA7F590
:10255000815141F21F02B1FBF2F1491C01F0FF0968
:1025600013E055B3681C8DF80000D046311941F2D4
:102570001F020BF1010000BFFDF765FE4146584602
:1025800000F02DF810B30628DDD14D45E9D3BC424B
:10259000D9D26D1C2644EDB2B7EB04045F468DF82A
:1025A000005022463146781CFDF74DFE611C38462E
:1025B00000F015F80628F1D0C5E75046874200D84C
:1025C00038468046024631195846D5E72DB141F2CA
:1025D0001F010C446D1CEDB2D7E74444FAE710B577
:1025E00001F054F8002010BD2DE9F84F4FF0000421
:1025F0000F460600A2460CD05FB1DFF81081D8F874
:10260000000030B1DFF8089141F21F0B09F5815548
:1026100077E00320BDE8F88FA868401C09D1305D41
:10262000A5286DD10020A860042129602873401CD2
:1026300066D0286840B1A968335D09F80130491CAB
:10264000A960401E28605BD1287B30B1012834D0BE
:10265000022825D0032853D13CE04846C5F8129003
:10266000FFF747FFC8B9D5F812004178408881B11B
:10267000011DB1FBFBF1491CC5F80D100221697465
:1026800041F21C022A60A0F5805029731A38686054
:1026900036E0801C2860012031E0FFF72DFF2FE09D
:1026A000686820B1032028730120286028E0687C36
:1026B000D5F80D10401E8142EFD115480090FFF76C
:1026C00008FF0028E9D10098D8F800204188001DB3
:1026D0009047E2E7A868401EA86019F80010687CDF
:1026E0008142DAD1401C687468685946884201D337
:1026F000296001E028600146401A686002202873C2
:10270000641CBC4288D3504684E7000018000020B7
:1027100094030020002803D002490860FFF7ECBEB4
:10272000704700001800002070B5C0B00D460600CC
:1027300012D08DB16C462046FFF7EEFEA5208DF835
:102740000000A81D0021ADF80250B0F5815F06D948
:1027500001208DF8010004E0032040B070BD8DF829
:1027600001102A463146201DFDF76DFDBDF802100F
:102770002046091D00F034F8BDF80220211D5052FA
:102780002046FFF7CBFEE8E770B504460020E07076
:10279000401EE062204600F0A6FE08B1042070BD95
:1027A00004F22E2000F00FFEA0F52A41553901D089
:1027B000032070BD04F1660000F0FAFD074DB5EB93
:1027C000002F06D004F1820000F0F2FDB5EB002FDF
:1027D00001D1002070BD022070BD000000464154B0
:1027E00010B504464FF6FF7000220EE0030A43EADC
:1027F0000023A05C5840C0F30313584080EA003027
:1028000080B2C3B280EA4310521C8A42EED310BD9C
:10281000002800D00120704730B981B101290BD0C8
:10282000022903D0032904D0042070474FF400701C
:1028300000E00820108002E04FF40040106000200B
:1028400070472DE9F0411C0015460E4600D010B12E
:102850000420BDE8F0814FF4007769023A46304623
:1028600000F058FC641E05F1010506F50076F4D170
:102870000020EEE7002800D0012070472DE9F0414C
:102880001C0015460E4600D010B10420BDE8F081B2
:102890004FF4007769023A46304600F0D3FC641EDC
:1028A00005F1010506F50076F4D10020EEE7000001
:1028B0002DE9F74F88B015460998012803D9132050
:1028C0000BB0BDE8F08F08A800F054FD002801DA35
:1028D0000B20F5E7FD4951F820404CB10021217053
:1028E000C0B20090FFF794FFC10703D00320E7E7D1
:1028F0000C20E5E7400701D50A20E1E703AA012102
:102900000098FFF789FF00287ED1039880287BD3A9
:10291000099909B1002100E03F218A46A0EB0A0194
:10292000681E0542039100D17DB94FF4FA60B1FBF6
:10293000F0F20020E64B00E0401C33F810509542C6
:10294000FAD8E34A163232F81050B5F5007F00D3BA
:102950006D0A85B1802D00D98025B1FBF5F00126E7
:1029600040F6F672904200D302264FF6F67290427D
:1029700003D3032623E00125EFE7032E1FD0012E0A
:1029800027D0400010F1040000F2FF104FEA502958
:102990004FF001085FF0200004900AEB080B049A46
:1029A0000BEB090087187A19A2EB0A00884247D876
:1029B00002AA03210098FFF72FFFA8B90FE040F209
:1029C000072202EB80004FEA50294FF02008002038
:1029D000E2E700EB4000401C4008C01CD4E702982E
:1029E00010B1B0F5004F01D90120029001467818CE
:1029F000401E491E8843C01B0290032E13D0814401
:102A00000398A0EB080200E0D8E00499A2EB0902C9
:102A1000511AB1FBF5F10591022E07D0032E0AD011
:102A2000012E15D019E080448344E9E740F6F672A0
:102A3000914205D311E008464FF6F671884201D263
:102A40000E203DE70C200690099868B1F02044E084
:102A5000B0F5803F06D20120F5E7B0F5803F01D206
:102A60000420F0E70620EEE704F130004FF4007296
:102A70000021019000F030FD04F5F7770120787017
:102A8000B8700020F87006983871FE2078710399AC
:102A90000AEB010043F6C161B0FBF1F03F2141EACE
:102AA00090010290B971F8713F2107F1080000F020
:102AB00080FD07F10C00039900F07BFD4AF65521DB
:102AC00004F22E2000F07DFDDDE90001012300224B
:102AD000FFF7D4FE002871D1F8204FF4007730348E
:102AE00001903A460021204600F0F6FC0B2279A125
:102AF000204600F0E7FC394604F10B0000F061FDD0
:102B000065731FFA88F104F10E0000F05AFD0120F0
:102B10002074032E0ED0410204F1110000F051FD8B
:102B20000399B1F5803F07D289B204F1130000F098
:102B300048FD05E00021EFE704F1200000F039FD39
:102B4000019860753F2104F1180000F03AFDFF2163
:102B500004F11A0000F035FD514604F11C0000F0AC
:102B600028FD00F005FC802701464FF0290802905F
:102B7000032E24D004F1270000F01BFD1FFA89F179
:102B800004F1160000F01DFD84F8247084F82680FE
:102B9000132253A104F12B0000F094FC04F5FF7004
:102BA0004AF65521069000F00CFD012352462146BD
:102BB0000098FFF763FE002800D121E085E004F1D2
:102BC000430000F0F6FC494604F1240000F0F1FC5B
:102BD000022104F12C0000F0ECFC012104F1300092
:102BE00000F0EFFC062104F1320000F0EAFC84F86A
:102BF000407084F8428013223EA104F14700CBE7E5
:102C0000032E06D101230AF1060221460098FFF7A0
:102C100035FED8464FF4007B5A460021204600F08E
:102C20005BFC01980290032E14D0012E10D06FF09F
:102C3000FF0101432046029100F0BBFC08F10107AF
:102C40004246012321460098FFF718FEE8BB11E039
:102C50002D49EEE760F0FF012046029100F0A9FC4B
:102C60004FF0FF31201D00F0A4FC6FF0704104F123
:102C70000800E1E75A460021204600F02DFC012023
:102C800009E03A467F1C012321460098FFF7F6FD34
:102C9000D8B90298401C02904845F2D3032E00D0C8
:102CA000049D3A467F1C012321460098FFF7E6FD6C
:102CB00058B96D1EF5D1032E4CD11449204600F0B1
:102CC00078FC134904F5F27024E04BE0EC3300206B
:102CD000D4360008EBFE904D53444F53352E300050
:102CE0004E4F204E414D452020202046415420206B
:102CF000202020004E4F204E414D452020202046D0
:102D0000415433322020200000FFFF005252614125
:102D10007272416100F04DFC059904F5F470491E92
:102D200000F047FC022104F5F67000F042FC4AF680
:102D30005521069800F045FC01230AF101022146C5
:102D40000098FFF79BFD01230AF107022146009836
:102D5000FFF794FD002211460098FFF75DFD002863
:102D60003FF4B7AD0120ABE517B581B0144602982A
:102D70000090684600F0FEFA002802DA0B2004B04A
:102D800010BD0B4A002352F8201001B10B700199BD
:102D9000002900D00B7042F8201001D0012C01D086
:102DA0000020ECE7002201A902A800F027F8E6E7DE
:102DB000EC3300208AB2014640F6FF730148FEF76B
:102DC000CDBA00002800002001B582B040F6FF70A7
:102DD0000090012301AA02A90248FEF71BFC9DF8FE
:102DE00004000EBD280000208AB2014640F6FF73A1
:102DF0000148FEF75BBB0000280000202DE9FF41E1
:102E0000002790460E460F6000F0B4FA050003D587
:102E10000B2004B0BDE8F081884850F825409CB1F3
:102E20003460207828F0010620B16078FFF722FD99
:102E3000C1070BD02770E8B2B8466070FFF7E8FC16
:102E4000C10708D00320E4E70C20E2E70EB14007F9
:102E500004D40020DDE71EB1400701D50A20D8E7E1
:102E6000002631462046FFF78FFC022822D100259C
:102E70004FEA0D0704EB051090F8F21100F5F7701A
:102E800019B1083000F094FA00E0002047F825005E
:102E90006D1C042DEED3002557F8256036B1314660
:102EA0002046FFF771FC022801D203E003206D1CCD
:102EB000042DF1D3042809D002286DD204F13B007F
:102EC00000F081FAB0F5007F66D101E00120A0E7B3
:102ED00004F1460000F077FA18B904F1540000F04C
:102EE00067FAA06194F84050A570012D01D0022D21
:102EF00052D1454394F83D006081E8B3411E084239
:102F00004AD104F1410000F05EFA2081000743D16C
:102F100004F1430000F057FA070004D104F1500017
:102F200000F046FA074604F13E0000F04CFA0100BA
:102F300032D02389481900EB131297422CD3B81AC8
:102F40006789B0FBF7F0B8B1012740F6F67C604521
:102F500000D302274FF6F67C604500D30327801C80
:102F60003244A26231446061C4E90761032F15D085
:102F700013B12944616200E00EE0022F1FD000F07F
:102F8000010100EB400001EB500000BFA16900F21D
:102F9000FF10B1EB502F14D20D203AE704F15A0084
:102FA00000F011FA0028F7D120890028F4D104F1AB
:102FB0005C0000F0FDF9606260698000E6E74000B7
:102FC000E4E74FF0FF302061E06080202071032FA4
:102FD0002CD104F1600000F0F6F9012826D1711C13
:102FE000204600F080FA08BB84F8048004F22E200A
:102FF00000F0E9F9A0F52A41553917D104F1300064
:1030000000F0D6F90E49884210D104F5057000F0A1
:10301000CFF90C49884209D104F5067000F0C8F9CF
:10302000206104F5077000F0C3F9E06006492770DD
:103030000888401C0880E0800BE70000EC3300208B
:103040005252614172724161240000202DE9F04129
:103050000446184800250E460078002828D1164F4F
:1030600024E000BF00F03EF900F086F80022402185
:103070003846FDF73DFD2020FFF7A6FE200EFFF7A6
:10308000A3FEC4F30740FFF79FFEC4F30720FFF73A
:103090009BFEE0B2FFF798FE012240213846FDF783
:1030A00027FD00F069F804F580546D1CB542D9D3B2
:1030B000BDE8F081200000200014024070B5134DDF
:1030C0001524002240212846FDF712FD2046FFF777
:1030D0007BFEFF20FFF778FE0446012240212846B0
:1030E000FDF706FD0A488470E0070ED1002240215A
:1030F0002846FDF7FDFCB720FFF766FE2846BDE831
:10310000704001224021FDF7F3BC70BD0014024065
:10311000200000202DE9F0410646154817460C46D0
:103120000078002821D1134D002240212846FDF7C8
:10313000DFFC0320FFF748FE200EFFF745FEC4F337
:103140000740FFF741FEC4F30720FFF73DFEE0B262
:10315000FFF73AFE39463046FFF72CFE2846BDE819
:10316000F04101224021FDF7C3BCBDE8F081000021
:1031700020000020001402402DE9F0410F4E0024F1
:103180004FF4C8770520FDF75FFB00224021304651
:10319000FDF7AEFC0520FFF717FEFF20FFF714FE3A
:1031A0000546012240213046FDF7A2FC641CA4B272
:1031B000E80701D0BC42E5D3BDE8F081001402402D
:1031C0002DE9F0470646C8B2C0F580771C480024B8
:1031D000904600780D46002830D11046B8452BD9CE
:1031E0003A46304600F092F8A8EB0700C1173D447C
:1031F0003E4400EB1161C1F30F2721F0FF01401A9B
:103200001FFA80F84FF480790AE04A462946304692
:1032100000F07CF8641CA4B205F5807506F5807694
:10322000BC42F2D3B8F1000008D00246294630462D
:10323000BDE8F04700F06AB80246F8E7BDE8F0875D
:10324000200000202DE9F05FC1F30B06DFF890802D
:103250000F0BC6F58054894683461546A24200D816
:10326000144639038A464FF480524046FFF752FF16
:10327000002006E0321818F80210FF2903D1401C84
:1032800080B2A042F6D3A04224D250460121FFF7DB
:10329000DDFE002007E000BF1BF800208319401C62
:1032A00008F8032080B2A042F6D351464FF4805272
:1032B0004FEA0800FFF784FFA5420FD0281BA34464
:1032C000A144002685B24FF480547F1CA542C8D883
:1032D0002C46C6E7224649465846EBE7BDE8F09F34
:1032E000EA23002010B5084C002240212046FDF7BB
:1032F000FFFB0620FFF768FD20460122BDE81040D5
:103300004021FDF7F5BB0000001402402DE9F0411B
:1033100015460C460746FFF7E5FF144E00224021F4
:103320003046FDF7E5FB0220FFF74EFD200EFFF7CC
:103330004BFDC4F30740FFF747FDC4F30720FFF739
:1033400043FDE0B2FFF740FDB015854200D90546C8
:1033500029463846FFF748FD012240213046FDF757
:10336000C7FBBDE8F041FFF707BF000000140240B3
:103370000020704710B504464FF0FF302268002A45
:1033800013D0114600E0491C0B78212B0ED33A2BA9
:10339000F9D112F8013B303B0A2B06D28A4204D104
:1033A000032B02D2491C1846216010BD002010BD1D
:1033B000C178827842EA01214278007842EA01210C
:1033C00040EA012070474178007840EA01207047C8
:1033D0001CB5FDF7A1FBFEF775FDFEF74DFC2C4873
:1033E0000024016841F4800101600068224600F475
:1033F0008000019021463A20FDF716FC3A20FDF7A7
:1034000007FCFEF78DFC2448224901604FF4E131AE
:10341000C0E901140C21C460C0E904418461C461A5
:10342000FEF7BEFA00B1FEE7FEF7F6FBFFF746FE39
:1034300019497431A1F13400FEF7A5FC00F09EF8A3
:103440001548012215A18430FFF78EFC8DF800008D
:103450000121684600F01AF99DF800000D2810D1EE
:103460000B210FA000F012F94FF4805201210BA0A4
:10347000FFF71EFA8DF8000018B90B210BA000F021
:1034800005F90B210CA000F001F900F0EBF8FEE7C4
:10349000303802400010014080000020303A000027
:1034A00068656C6C6F20776F7278780068656C6CFB
:1034B0006F20776F726C640068656C6C6F20646459
:1034C00064646400002A05D011F8013B00F8013B58
:1034D000521EF9D1704700005FFA81F100F8011B1C
:1034E000521EFBD1704770B50446C06A0D460026D7
:1034F000A8420FD0204600F068F806000AD1607894
:1035000001232A4604F13001FFF79BF908B1751E2B
:103510000126E562304670BD002301461A460120AF
:1035200000F032B81CB5022927D301788DF80010BD
:1035300041788DF8011002D14FF0000001E000F158
:103540000200CDF802000098C2B2012A15D1DDF8C0
:1035500002402068010501D002200AE00121FFF7A6
:1035600075FDA088216882B204F10800FFF728FEEB
:103570000020BDE81C40FFF7CFBF1CBD0148FFF78E
:10358000C9B800002535000810B51C461346C0B068
:1035900002468DF800208DF80110224619460DF1E3
:1035A0000200FCF750FEA11C6846FFF7BDF840B0D2
:1035B00010BD0170090A4170090A8170090AC170C1
:1035C00070470170090A417070472DE9F0410446C7
:1035D000C0780027F8B1E56A04F130016078012372
:1035E0002A468846FFF74AF908B1012713E0002070
:1035F000E070206AA169281A88420CD2A67808E0F7
:10360000A0690123054460782A464146FFF736F950
:10361000761E022EF4D23846BDE8F08138B50D484A
:1036200000680168406800900B48006840680B4CD7
:1036300020600848FEF7FFF82068C0F5815108486F
:10364000FEF7D2FFBDE838404FF4815204490148EB
:10365000FEF734BA80000020340300201C00002054
:10366000CA13002010B54FF4815206490648FEF7F0
:1036700025FA05480068C16841F01001C1600020CA
:1036800010BD0000CA130020800000208AB210B5CF
:10369000014640F6FF730248FEF75EFA002010BDB7
:1036A0008000002000061016000610160000000022
:1036B00000000000010203040607080900000000E2
:1036C00001020304222A2B2C2E3A3B3C3D3E3F5B59
:1036D0005D7C7F00000400020001800040002000AB
:1036E00010000800040002000000008000400020DC
:1036F0000010000800400020001000080004000234
:10370000203700080000002028000000B424000832
:103710004837000828000020D0370000C4240008E3
:103720000000000000000000010000001000000088
:10373000000000000024F400000000000000000071
:08374000000000000000000081
:04000005080001AD41
:00000001FF
