:020000040800F2
:10000000B8250020C1010008131C0008C51A00080B
:10001000111C0008CD020008612300080000000048
:10002000000000000000000000000000651D000846
:100030008103000800000000351C0008671D00084F
:10004000DB010008DB010008DB010008DB01000820
:10005000DB010008DB010008DB010008DB01000810
:10006000DB010008DB010008DB010008DB01000800
:10007000DB010008DB010008DB010008DB010008F0
:10008000DB010008DB010008DB010008DB010008E0
:10009000DB010008DB010008DB010008DB010008D0
:1000A000DB010008DB010008DB010008DB010008C0
:1000B000DB010008DB010008DB010008DB010008B0
:1000C000DB010008DB010008DB010008DB010008A0
:1000D000DB01000841230008DB010008DB01000808
:1000E000DB010008DB010008DB010008DB01000880
:1000F000DB010008DB010008DB010008DB01000870
:10010000DB010008DB010008DB010008DB0100085F
:10011000DB010008DB010008DB010008DB0100084F
:10012000DB010008DB010008D1020008DB01000848
:10013000DB010008DB010008DB010008DB0100082F
:10014000DB010008DB010008DB010008DB0100081F
:10015000DB010008DB010008DB010008DB0100080F
:10016000DB010008DB010008DB010008DB010008FF
:10017000DB010008DB010008DB01000800000000D3
:10018000DB010008DB010008DB010008DB010008DF
:10019000DB010008DB010008DB010008DB010008CF
:1001A000DB010008DB010008DB010008DFF80CD0F0
:1001B00000F07AF80048004759280008B8250020C8
:1001C0000648804706480047FEE7FEE7FEE7FEE7F1
:1001D000FEE7FEE7FEE7FEE7FEE7FEE71D1E00087E
:1001E000AD0100082DE9F05F0546002092469B46D0
:1001F00088460646814640241BE02846414647463D
:10020000224600F041F853465A46C01A914110D395
:1002100011461846224600F028F82D1A67EB01080F
:100220004F4622460120002100F01FF817EB00097D
:100230004E41201EA4F10104DFDC484631462A4627
:100240004346BDE8F09F40EA01039B0703D009E065
:1002500008C9121F08C0042AFAD203E011F8013BB2
:1002600000F8013B521EF9D27047202A04DB203AE5
:1002700000FA02F1002070479140C2F1200320FAF9
:1002800003F3194390407047202A04DB203A21FAF7
:1002900002F00021704721FA02F3D040C2F120029F
:1002A0009140084319467047064C074D06E0E06848
:1002B00040F0010394E8070098471034AC42F6D3AD
:1002C000FFF778FF2C2A00084C2A0008FEE7000000
:1002D000014800F043B90000000100200168182324
:1002E000CAB2103AB2FBF3F2054B6FF30901032ACD
:1002F0009B5CC36500D9091D8165084670470000F5
:100300000C2A000810B5014600208B698A6A4FF05C
:10031000C07453B1B3F5005F15D072B1012A0CD08F
:10032000022A0AD0032A09D104E01AB1012A06D010
:10033000022A03D1C96AC90100D5012010BDC96ACA
:10034000A142FAD010BD002AF7D0012AF2D0022A29
:10035000F3D0032AF3D010BD30B50468256825F426
:1003600080252560046863608368402B036803D0A0
:1003700099600068C26030BD9A600068C16030BD9D
:10038000704730B5D1E901231A43D1E903352B4336
:100390001A434B690C681A438B691A43D1E9073534
:1003A000012C496A046807D01A432A436FF30E04EC
:1003B0000A43224302600AE024F4F8442B43214319
:1003C0000B43416803606FF30E010A434260002053
:1003D00030BD426942EA4101416100207047F8B5F1
:1003E00014460546D1E9000210438A686FF01F03E6
:1003F000C96803EB421242EA412108430090286198
:1004000000F07CFB064609E0601C07D024B100F038
:1004100075FB801BA04201D90320F8BDA8698006A6
:10042000F2D40020F8BD0000F0B56FF00F05D1E95F
:10043000003405EB04145B1E23432E018C682F034C
:1004400006EB042423434FEA054C0C8A8E8ACD68C0
:10045000097E4FF07F4E07EB04440CEB06560EEB83
:100460000161012A0CD082683F1107EB05352B434F
:100470002343334302F070420B43134383600FE086
:100480008768084A17402A03A2F580523243C5689C
:100490003A43234305F070450B432B438260C3600E
:1004A0000020F0BDFF0F0FFF2DE9F0410446876DDE
:1004B00000F024FB064694F835000025022806D0FB
:1004C0008020606584F834500120BDE8F081206808
:1004D000016821F0160101602068416921F0800166
:1004E0004161206C08B9A06C20B12068016821F03E
:1004F000080101602068016821F0010101600BE042
:1005000000F0FCFA801B052806D92020606504F85D
:10051000345F03206070D8E720680068C007EFD11F
:1005200094F85C103F208840B86004F8345F0120E4
:1005300060700020C9E790F83510022903D08021AF
:10054000416501207047052180F835100068016879
:1005500021F0010101600020704700002DE9F843FF
:1005600004464FF00009CDF8009063484FF416514F
:10057000A56D0068B0FBF1F72E6894F85C100820B8
:1005800000FA01F131420FD021680A6852070BD5F9
:100590000A6822F004020A6094F85C108840A8609F
:1005A000606D40F00100606594F85C104FF0010848
:1005B00008FA01F0304208D021684969090604D5DB
:1005C000A860606D40F00200606594F85C10042043
:1005D0008840304208D021680968890704D5A8609E
:1005E000606D40F00400606594F85C101020884055
:1005F000304218D021680968090714D5A86020681E
:100600000168490304D50068000308D5A16C07E020
:100610000168C90503D4016821F008010160216C5B
:1006200009B12046884794F85C1020208840304269
:1006300031D021680968C9062DD5A86094F8350025
:1006400005282068016806D0490347D500680003E3
:100650001DD4616C1CE021F0160101602068416925
:1006600021F080014161206C08B9A06C20B12068A4
:10067000016821F00801016094F85C103F20884077
:10068000A86084F8349084F83580216D1FE0E16B18
:1006900009B120468847606D00282BD0606DC007E7
:1006A00014D0052084F835002068016821F001018C
:1006B00001600098401C0090B84203D82068006890
:1006C000C007F6D184F8349084F83580E16C0029B5
:1006D00010D001B02046BDE8F04308470168C905C5
:1006E000D5D4016821F01001016084F8349084F8B9
:1006F0003580CCE7BDE8F883140000202DE9F041F7
:10070000044600F0FBF906465CB1002584F834503D
:10071000022084F835002068016821F001010160A1
:100720000DE00120BDE8F08100F0E8F9801B05280C
:1007300005D920206065032084F83500F2E72068A1
:100740000068C007F0D12268116820480140D4E950
:1007500001031843D4E9033633431843636918434C
:10076000A3691843E3691843236A18430843616A7D
:10077000042903D1D4E90B131943084310602068FE
:100780004069666A20F0070130460E4301270428BD
:100790000CD1A06A0643E06A40B12046FFF7B2FDE3
:1007A00020B14020606584F83570BAE72068466162
:1007B0002046FFF793FD94F85C203F219140816033
:1007C000656584F835700020ACE700003F8010F0CC
:1007D0002DE9F0410446866D90F83400002501288B
:1007E0000DD0012084F8340094F835700020012FDA
:1007F00007D084F8340002252846BDE8F0810220A5
:10080000FBE7022784F8357060652046FFF7A4FDFA
:1008100094F85C103F208840B0602068016841F087
:10082000160101602068416941F080014161206C3E
:1008300020B12068016841F008010160206801686A
:1008400041F001010160D7E770B5044600F056F9A8
:100850000546601C02D004480078044400F04EF9BC
:10086000401BA042FAD370BD08000020F0B5264816
:1008700087B00168002944D1012101602348002488
:10088000016841F0010101600068022500F00100EB
:1008900005904FF63F00CDE9000502AA03260C277C
:1008A00082E8D00069461A4800F03CF80D20CDE9F6
:1008B000000502AA694682E8D000164800F032F826
:1008C00048F23710CDE9000502AA694682E8D00057
:1008D000114800F027F84FF68070CDE9000502AA14
:1008E000694682E8D0000D4800F01CF84CF2037015
:1008F000CDE9000502AA694682E8D000084800F068
:1009000011F807B0F0BD00000000002038380240A8
:10091000001402400008024000180240001002408B
:10092000000C02402DE9F84FDFF890B100224FF0A3
:1009300001084FF0030A4FF00F090BF1040E00BF3E
:100940000B6808FA02F42340A3426ED14D68022DD1
:1009500001D0122D0ED1D50800EB850CDCF820500B
:100960005607F70E09FA07F6B5430E69BE402E4347
:10097000CCF82060066855000F790AFA05FC07F0EC
:10098000030726EA0C06AF40374307604E68012E86
:1009900005D0022E03D0112E01D0122E0ED1876861
:1009A000CE6827EA0C07AE403E4386604668A64301
:1009B0000C79C4F30014944034434460C4688E68D6
:1009C00024EA0C04AE402643C6604C68E4006FD5B0
:1009D0003B4C256845F480452560246822F00305DA
:1009E00004F480440094374C2E19D6F80848950733
:1009F0002F0F09FA07F5AC43334DA84201D100256A
:100A00002EE0324DA84201D1012529E0304DA84207
:100A100001D1022524E02F4DA84201D103251FE07A
:100A20002D4DA84202D104251AE041E02B4DA842E9
:100A300001D1052514E02A4DA84201D106250FE079
:100A4000284DA84201D107250AE0274DA84201D12F
:100A5000082505E0254DA84201D1092500E00A2519
:100A6000BD402543C6F80858DBF800405D464E6897
:100A70009C43F60300D51C432C60DEF8004075460D
:100A80004E689C43B60300D51C432C600B4D0835C3
:100A90002C684E689C43F60200D51C432C60074D21
:100AA0000C352C684E689C43B60200D51C432C6064
:100AB000521C102AFFF444AFBDE8F88F003C0140FF
:100AC000443802400030014000000240000402406F
:100AD00000080240000C02400010024000140240D6
:100AE00000180240001C0240002002400024024086
:100AF0000AB1816170470904FBE700000148806882
:100B00007047000008000020024881680278114404
:100B100081607047080000200B4810B5016841F45F
:100B200000710160016841F480610160016841F475
:100B300080710160032000F097F8002000F006F8B3
:100B400000F024F8002010BD003C024070B50D4DAF
:100B500004464FF47A712878B1FBF0F00A4909682D
:100B6000B1FBF0F000F0A7FD48B9102C07D200222D
:100B70002146501E00F058F800206C6070BD012026
:100B800070BD000008000020140000201F4808B5B8
:100B9000016841F480410160006800F480400090E9
:100BA0001A48001F016841F080510160006800F0A0
:100BB00080500090032000F057F8002211466FF09B
:100BC0000B0000F031F8002211466FF00A0000F02F
:100BD0002BF8002211466FF0090000F025F80022E2
:100BE0001146501F00F020F800221146101F00F09F
:100BF0001BF800221146901E00F016F80022BDE8F6
:100C000008401146501E00F00FB800004438024062
:100C100000F01F02012191404009800000F1E02016
:100C2000C0F8001170470000F0B40E4B1B680C4672
:100C3000C3F30223C3F10705042D00D90425191DB0
:100C4000072901D2002300E0DB1E012606FA05F188
:100C5000491E214099409E40761E16403143F0BC0B
:100C600000F0D8BF0CED00E0064900F0070208686C
:100C70004FF6FF03184040EA0220034A1043086081
:100C8000704700000CED00E00000FA052DE9F84384
:100C90001748016841F0805101600068154F00F06D
:100CA0008050012600903E64FFF728FF05464FF470
:100CB0007A78114C05E000BFFFF720FF401B40454C
:100CC0000DD86068C003F7D57E64FFF717FF0546AF
:100CD000464607E0FFF712FF401BB04202D903204F
:100CE000BDE8F88360688003F4D50020F8E70000D1
:100CF0004038024000000E42007000402DE9F047ED
:100D00000E46050065D0DFF81481D8F80000F7B270
:100D100000F00F00B04207D288F80070D8F8000049
:100D200000F00F00B04254D128683D4C810712D525
:100D3000400703D5206840F4E05020602878000781
:100D400003D5206840F4604020602068A96820F046
:100D5000F000084320602878C0072DD0304968682B
:100D60000839012812D0022813D0032811D00968AD
:100D7000890700292DDA216821F003010143216050
:100D8000FFF7BCFE814641F2883A0EE0096889030C
:100D9000EFE709688901ECE7FFF7B0FEA0EB090176
:100DA000514502D90320BDE8F0872068696800F04A
:100DB0000C00B0EB810FEFD1D8F80010404601F0E5
:100DC0000F01B14207D90770006800F00F00B04270
:100DD00001D00120E7E72878400705D52068E968B9
:100DE00020F4E050084320602878000706D52068EA
:100DF000296920F4604040EAC100206000F03CF81E
:100E00002168084AC1F30311515CC84006490860D3
:100E10000020FFF79BFE0020C5E70000003C0240D9
:100E200008380240142A0008140000200148006815
:100E30007047000014000020044805490068096854
:100E4000044AC1F38221515CC8407047140000205D
:100E500008380240242A0008044805490068096847
:100E6000044AC1F34231515CC8407047140000206D
:100E700008380240242A0008154810B5006810F010
:100E80000C02144813D01449042A0FD0082A0ED19A
:100E90000F4C241F2268236802F03F025B0207D533
:100EA0002068C0F38810A0FB010106E0084610BDD1
:100EB0002168C1F38811A1FB00010023FFF792F91B
:100EC0002168C1F30141491C4900B0FBF1F010BD9C
:100ED000083802400024F40040787D012DE9F84FE5
:100EE000050076D02878DFF8F8B2BE4CC00749D0AC
:100EF000DBF800105846C1F38101012908D00068D1
:100F0000C0F3810002280AD1201D0068400206D5E6
:100F10002068800336D568680028E2D032E068682F
:100F2000B0F5803F10D0B0F5A02F206810D020F48D
:100F300080302060206820F4802020606868A0B1A4
:100F4000FFF7DCFD06460CE0206840F48030F4E753
:100F500040F480202060F7E7FFF7D0FD801B642875
:100F600073D820688003F7D50CE0FFF7C7FD06466D
:100F700005E000BFFFF7C2FD801B6428F0D82068A1
:100F80008003F7D42878DFF8608280074FF00009EB
:100F90003ED5DBF80010584611F00C0F09D0006860
:100FA000C0F3810002280BD18D48001F0068400269
:100FB00006D42068800715D5E868012809D111E01A
:100FC000E868B8B10120C8F80000FFF797FD0646B1
:100FD00005E002E1FFF792FD801B0228C0D82068DF
:100FE0008007F7D52068296920F0F80040EAC100A1
:100FF00020600DE0C8F80090FFF780FD064604E091
:10100000FFF77CFD801B02281FD820688007F7D4DB
:101010002878000722D5724E744869696C3671B120
:1010200001210160FFF76AFD074604E0FFF766FD56
:10103000C01B022809D830688007F7D50EE0C0F839
:101040000090FFF75BFD074605E083E0FFF756FDE4
:10105000C01B02287ED830688007F7D42878400764
:1010600068D5DFF87CA100270AF1380ADAF8000019
:10107000C0000BD4DAF8001041F08051CAF800101B
:10108000DAF80000012700F080500090584E3068D8
:10109000C00510D4306840F480703060FFF72EFD3A
:1010A000009005E0FFF72AFD0099401A022851D868
:1010B0003068C005F6D54A4EA868683601280FD0BA
:1010C0000528306810D020F001003060306820F032
:1010D00004003060A868B8B1FFF710FD00900FE081
:1010E000306840F00100F4E740F004003060F7E7BA
:1010F000FFF704FD0099411A41F28830814264D81B
:1011000030688007F4D50EE0FFF7F8FC009007E0A8
:10111000FFF7F4FC0099411A41F28830814254D81B
:1011200030688007F4D42FB1DAF8001021F0805134
:10113000CAF80010A869C0B3DBF80010C1F3810140
:1011400002294AD00228484607D0C8F86000FFF7B5
:10115000D5FC00E039E005463AE04746C8F86000B3
:10116000FFF7CCFC064604E0FFF7C8FC801B022812
:101170002BD820688001F7D4D5E907010843A96A74
:101180001C4A490802EB01416A6A41EA821108439C
:1011900095F82C1040EA01611148001F0160012000
:1011A0003866FFF7ABFC054605E014E0FFF7A6FC48
:1011B000401B022809D820688001F7D50BE000BF4A
:1011C000FFF79CFC401B022802D90320BDE8F88FE2
:1011D00020688001F4D40020F8E70120F6E7000041
:1011E000083802400038024000004742800E474263
:1011F000007000400000FFFF70B50D46040003D0F2
:1012000094F82C0010B107E0012070BD002084F894
:101210002D00204600F011F8022084F82C00211D3A
:101220002068FFF7AEF8D4E900022946FFF7FCF882
:10123000012084F82C00002070BDFFF717BB10B50B
:10124000044690F82C00022809D0022084F82C00D3
:101250002068FFF7BEF8012084F82C00002010BDA4
:1012600070B5044690F82C000D4602280DD00220DF
:1012700084F82C002068FFF7B2F82868022805D00F
:101280005FF0010084F82C00002070BD0520F9E714
:1012900070B5040005D00025A56294F8510010B186
:1012A00006E0012070BD84F85050204600F030F870
:1012B000022084F851002068016821F0400101609B
:1012C000D4E901010843D4E90312114308436169D9
:1012D0000843218B01F400710843E1690843216A46
:1012E0000843A16A084321680860A069042101EA53
:1012F0001040616A0843216848602068C16921F490
:101300000061C1616565012084F85100002070BD55
:1013100000B500680E4987B0884217D10D480021FA
:10132000026842F480120260006800F480100590A8
:101330004FF4607000900220CDE90101032003907A
:101340000520049069460448FFF7ECFA07B000BD99
:101350000050014044380240001402402DE9F84F8B
:10136000044690F850000026994617460D4601287D
:101370000DD04FF0010B84F850B0FFF7BFFB804653
:1013800094F85100B246012804D0022694E00220CD
:10139000BDE8F88F002D7BD0002F79D0032084F892
:1013A0005100C4F854A02563A786E786C4F838A086
:1013B000A4F83CA0A4F83EA0C4F844A0C4F840A0FF
:1013C000A068B0F5004F04D12068016841F4804165
:1013D000016020680168490603D4016841F04001BA
:1013E0000160E068B0F5006F606804D030B3E08E53
:1013F000012823D03EE010B1E08E01281AD135F843
:10140000021B206805E020688168890706D535F849
:10141000021BC160E08E401EE0860BE0B9F1000FB8
:1014200034D0B9F1FF3F05D0FFF768FBA0EB08010E
:1014300049452BD2E08E0028E5D11EE0216815F841
:10144000010B087306E020688168890706D515F846
:10145000011B0173E08E401EE0860BE0B9F1000F26
:1014600014D0B9F1FF3F05D0FFF748FBA0EB08010E
:1014700049450BD2E08E0028E5D14B4601220221DE
:101480002046CDF8008000F022FC10B1032613E0C6
:1014900011E042464946204600F009FC18B10126F9
:1014A0002020606508E0A06818B92068C1688068DD
:1014B0000090606D00B1012684F851B084F850A00E
:1014C000304665E72DE9F84F044690F850000026B5
:1014D0000A9F9A4693460D464FF0010801280ED008
:1014E000012084F85000FFF709FB814694F8510071
:1014F000616801280CD0B1F5827F07D102E002209B
:10150000BDE8F88FA16809B9042801D00226BDE022
:1015100055B1BBF1000F07D0BAF1000F04D094F819
:101520005100012802D004E00126AFE0052084F834
:10153000510000206065C4F838B0A4F83EA0A4F8BB
:101540003CA02563A4F836A0A4F834A0206460640D
:1015500020680168490603D4016841F04001016038
:10156000E068B0F5006F606804D0E8B3E08E012851
:101570003BD06AE010B1E08E01282ED1216835F809
:10158000020BC860E08E401EE08626E0B8F1000F36
:101590000DD0E08E58B120688168890707D535F8ED
:1015A000021BC160E08E401EE0864FF00008E08F15
:1015B00058B120688168C90707D0C0682BF8020BB2
:1015C000E08F401EE0874FF00108781C05D0FFF740
:1015D00095FAA0EB0900B84246D2E08E0028D5D19A
:1015E000E08F0028D2D136E0FFE7216815F8010B23
:1015F0000873E08E401EE08627E000BFB8F1000FC0
:101600000DD0E08E58B120688168890707D515F89C
:10161000011B0173E08E401EE0864FF00008E08F52
:1016200058B120688168C90707D0C0680BF8010B62
:10163000E08F401EE0874FF00108781C05D0FFF7CF
:101640005DFAA0EB0900B8420ED2E08E0028D5D199
:10165000E08F0028D2D13B46012202212046CDF85E
:10166000009000F034FB08B103260FE04A463946EB
:10167000204600F01CFB18B101262020606505E023
:10168000A06818B92068C16880680090012084F8BB
:101690005100002084F85000304631E74FF0E0213F
:1016A0000428086903D020F004000861704740F066
:1016B0000400FAE7704710B5401EB0F1807F01D3F7
:1016C000012010BD4FF0E02460610F21601700F091
:1016D000A1FA0020A06107202061002010BD10B5F4
:1016E000FFF7E8FF10BD10B504460068416994F8A3
:1016F0003920C1F3C011212A0BD151B1416921F028
:1017000080014161206B08B1FEF7CEFE204600F05B
:101710000DFC2068416994F83A20C1F38011222A17
:101720000BD151B1416921F040014161606B08B1B9
:10173000FEF7BAFE204600F0EBFB002010BD70471C
:1017400070B5026804461068D168536910F00F0F35
:1017500050D003F0010501F4907635435DD0C20707
:1017600005D0CA0503D5E26B42F00102E2634207ED
:1017700005D5DA0703D0E26B42F00202E26382078A
:1017800005D5DA0703D0E26B42F00402E2630207F8
:1017900005D5DA0703D0E26B42F00802E263E26BA0
:1017A000002A33D0800604D5880602D5204600F0F2
:1017B000C6FB20684069E16BC0F38010090700D4C4
:1017C00028B3204600F0A4FB2068416949061AD5D9
:1017D000416921F040014161606BA0B11B49016585
:1017E000606BFEF7A8FE002810D0606B016DBDE8AD
:1017F00070400847830610D58B060ED52046BDE8FD
:10180000704000F09CBB2046FFF799FF70BD20465A
:10181000FFF795FF0020E06370BD030606D50B06B9
:1018200004D52046BDE8704000F026BD4006F3D543
:101830004806F1D5D168204621F04001D160202131
:1018400084F8391000F03DF970BD0000711E0008E9
:1018500070B5040004D094F83900002510B106E0FA
:10186000012070BD84F83850204600F023F8242071
:1018700084F839002068C16821F40051C160204615
:1018800000F0A4FB2068016921F490410161206807
:10189000416921F02A0141612068C16841F4005189
:1018A000C160E563202084F8390084F83A00002004
:1018B00070BD000070B506460068204986B08842B9
:1018C0003AD11F480025016841F01001016000680D
:1018D000694600F0100005904FF4C06000900220AF
:1018E00001900120029003200390072004901548E6
:1018F000FFF718F8154C144820604FF00060C4E959
:1019000001054014C4E903506561C001A561C4E943
:10191000075020466562FEF7F1FE18B1AF210CA01A
:1019200000F01FFD7463002201212520A663FFF74C
:101930007BF92520FFF76CF906B070BD001001405F
:101940004438024000000240406402400001002090
:101950002E2E2F5372632F73746D33326634787862
:101960005F68616C5F6D73702E630000F8B50446AC
:1019700090F83A0020283CD1C1B3BAB394F83800AB
:10198000012836D0012084F83800A162A285002504
:10199000E563222084F83A00636B1748D863636BD1
:1019A00016481864636B1648D864606B1346056567
:1019B0000846666B216802463046091DFEF708FF9F
:1019C000206801684168009184F83850C16841F48A
:1019D0008071C1602068416941F001014161206866
:1019E000416941F0400141610020F8BDFFE701205D
:1019F000FBE70220F9E70000CB1E0008071F0008E4
:101A0000811E0008704770472DE9F843044690F89E
:101A100039001F4616460D46202850D1A5B19EB16B
:101A200094F8380001284AD0012084F838004FF09B
:101A30000008C4F83C80212084F83900FFF75EF8E4
:101A4000A6848146E68426E00120BDE8F883E08C88
:101A5000401EE084A0684B46B0F5805F4FF0000266
:101A60004FF080012046009703D000F036FCE8B923
:101A70000DE000F032FCC8B928882168C0F30800E6
:101A80004860206908B16D1C05E0AD1C03E02168C9
:101A900015F8010B4860E08C0028D8D14B46002295
:101AA00040212046009700F018FC08B10320CCE745
:101AB000202084F8390084F838800020C5E702200F
:101AC000C3E77047FEE7000000B5164887B0144929
:101AD0000022C0E900120121816008211023C0E921
:101AE0000313402343614FF4C073C0E906320A0276
:101AF00002624A0242628A0282620220CDE9000149
:101B00000621029103910421CDE904100690694653
:101B10000448FFF771FB002800D0FEE707B000BDC6
:101B2000400100A0BC00002030B5274887B0002449
:101B3000016841F020010160016801F02001059178
:101B4000016841F080010160016801F080010591A8
:101B5000016841F004010160016801F00401059190
:101B6000016841F040010160016801F04001059108
:101B7000016841F010010160016801F01001059158
:101B8000016841F008010160016801F00801059158
:101B9000016841F00101016000680C4D00F0010096
:101BA0000590012240212846FEF7A2FF4020009028
:101BB0000120CDE901040220039069462846FEF782
:101BC000B1FE07B030BD00003038024000140240C2
:101BD0000E4810B50C4901604FF48271416000213C
:101BE0008160C1604FF400720161C0E90512C161FA
:101BF0000162416281620A21C162FFF749FB00284C
:101C000000D0FEE710BD000000500140240000207D
:101C1000FEE770470907090E002806DA00F00F00FA
:101C200000F1E02080F8141D704700F1E02080F8FA
:101C30000014704770472DE9F84F0C460025012627
:101C400010270095C4E90067C4E902654FF4805984
:101C500082464A46FFF704FB6420FEF7F5FD0220AA
:101C6000C4E90007C4E902654A4621465046FFF729
:101C7000F7FA03204FF00408E56084E881014A4642
:101C800021465046FFF7ECFA40F231200090C4E9BB
:101C90000260C4E900874A4621465046FFF7E0FA51
:101CA0005046BDE8F84F40F26A51FFF7C8BA38B560
:101CB0000B46009204460022802100F008F800281C
:101CC00004D0606D40F020006065032038BD2DE930
:101CD000F0411D4617460E460446DDF8188035E0F3
:101CE000681C33D02DB1FEF709FFA0EB0800A84215
:101CF0002CD32068416821F0E00141606068B0F5B4
:101D0000827F0BD1A068B0F5004F02D0B0F5806F94
:101D100004D12068016821F040010160A06AB0F59B
:101D2000005F0AD1206801684DF6FF721140016022
:101D30002068016841F400510160012084F85100DD
:101D4000002084F850000320BDE8F08120688068FE
:101D500036EA000004D00020B842C1D10020F3E7E9
:101D60000120F9E7704710B5FEF7CEFEBDE8104040
:101D7000FFF7B5BC30B5274893B00025016841F0A6
:101D800080510160006800F0805011902248016885
:101D900041F4404101600068022400F44040119089
:101DA00001200090000401908001CDE90640192037
:101DB00008904FF4B470CDE9090404200B906846F4
:101DC000FFF78CF800B1FEE7FEF760FF00B1FEE719
:101DD0000CA90F2081E831004FF4A0500F904FF470
:101DE0008050109005210CA8FEF788FF00B1FEE797
:101DF000FFF71CF84FF47A71B0FBF1F0FFF75BFCD2
:101E00000420FFF74BFC00221146501EFEF70CFF8A
:101E100013B030BD403802400070004010480168E7
:101E200041F4700101600F48016841F00101016057
:101E30000C4A00210832116002680B4B1A40026004
:101E4000031D0A4A1A60026822F4802202600548D3
:101E50000C30016002495806803908607047000064
:101E600088ED00E000380240FFFFF6FE103000244D
:101E700010B5806B0021C185C184FFF760FC10BDE7
:101E800070B5846B2068406994F83910C0F3C010B5
:101E90000025212904D118B1E584204600F046F838
:101EA0002068406994F83A10C0F38010222904D1C8
:101EB00018B1E585204600F02BF8E06B40F01000EB
:101EC000E0632046FFF73BFC70BD10B50146806B18
:101ED00009680968C90513D40021C1850168CA6869
:101EE00022F48072CA6001684A6922F001024A61E4
:101EF00001684A6922F040024A61202180F83A10C4
:101F0000FFF780FD10BD10B5806BFFF77CFD10BDA5
:101F10000168CA6822F49072CA6001684A6922F0B6
:101F200001024A61202180F83A1070470168CA68AE
:101F300022F0C002CA60202180F83910704710B525
:101F400090F83A10222901D0022010BD8168B1F525
:101F5000805F11D00169002901681FD0496801F034
:101F60007F03816A4A1C82620B70C18D491E09047D
:101F7000090CC18518D026E00269816A002A02682E
:101F8000526805D0D2B20A80816A491C8162ECE7AE
:101F9000C2F308020A80816A891CF7E74A68816AED
:101FA0004B1C83620A70E0E70168CA6822F49072F1
:101FB000CA6001684A6922F001024A61202180F862
:101FC0003A10FFF71FFD002010BD00002DE9F04181
:101FD00004460068016921F44052E168114301613F
:101FE0002168C86849F20C6290432369A268E569D8
:101FF0001A4363692B431A430243CA602168486944
:1020000020F44072A06910434861E1696425B1F58C
:10201000004F9748974A21684FF032083FD09142CD
:1020200001D081427CD1FEF717FF00EBC00101EB2C
:10203000001061688900B0FBF1F6FEF70DFF00EBC0
:10204000C00101EB001061688900B0FBF1F0B0FB4A
:10205000F5F06FF01801484306EB800108EB011022
:10206000B0FBF5F000F0F006FEF7F6FE00EBC00165
:1020700001EB001061688900B0FBF1F0B0FBF5F0F6
:1020800006EB0016FEF7E8FE00EBC00101EB0010C6
:1020900061688900B0FBF1F7FEF7DEFED2E0914205
:1020A00001D081423DD1FEF7D7FE00EBC00101EB2C
:1020B000001061684900B0FBF1F0B0FBF5F00601DB
:1020C000FEF7CAFE00EBC00101EB00106168490099
:1020D000B0FBF1F7FEF7C0FE00EBC00101EB001012
:1020E00061684900B0FBF1F0B0FBF5F06FF018014A
:1020F000484307EB800108EBC100B0FBF5F000F0AE
:10210000F80006EB4006FEF7A7FE00EBC00101EB6E
:10211000001061684900B0FBF1F7FEF79DFE3CE05E
:1021200055E0FEF789FE00EBC00101EB001061688D
:102130004900B0FBF1F0B0FBF5F00601FEF77CFEC4
:1021400000EBC00101EB001061684900B0FBF1F742
:10215000FEF772FE00EBC00101EB00106168490060
:10216000B0FBF1F0B0FBF5F06FF01801484307EB5E
:10217000800108EBC100B0FBF5F000F0F80006EBC1
:102180004006FEF759FE00EBC00101EB001061684C
:102190004900B0FBF1F7FEF74FFE00EBC00101EB89
:1021A000001061684900B0FBF1F0B0FBF5F06FF092
:1021B0001801484307EB800108EBC100B0FBF5F0C4
:1021C00000F00700216830448860BDE8F081FEF728
:1021D00033FE00EBC00101EB001061688900B0FB29
:1021E000F1F6FEF729FE00EBC00101EB001061687B
:1021F0008900B0FBF1F0B0FBF5F06FF01801484337
:1022000006EB800108EB0110B0FBF5F000F0F006E2
:10221000FEF712FE00EBC00101EB001061688900BF
:10222000B0FBF1F0B0FBF5F006EB0016FEF704FE94
:1022300000EBC00101EB001061688900B0FBF1F711
:10224000FEF7FAFD00EBC00101EB001061688900A8
:10225000B0FBF1F0B0FBF5F06FF01801484307EB6D
:10226000800108EB0110B0FBF5F000F00F00A9E7CA
:10227000001401400010014090F83910212901D0CC
:10228000022070478168B1F5805F016A0BD04A1C5B
:102290000262026809785160C18C491E0904090C68
:1022A000C1840ED017E009880268C1F308015160AB
:1022B00001690029016A02D0491C0162ECE7891C0E
:1022C000FBE70168CA6822F08002CA600068C16842
:1022D00041F04001C160002070472DE9F04198466F
:1022E00017460E460446069D1DE0681C1BD02DB106
:1022F000FEF704FCA0EB0800A84214D92068C168CE
:1023000021F4D071C1602068416921F0010141616F
:10231000202084F8390084F83A00002084F838003E
:102320000320BDE8F0812068006836EA000004D090
:102330000020B842D9D00020F3E70120F9E70000DF
:1023400010B50648FFF7FCF904480068C068C006ED
:1023500003D5BDE8104000F015BB10BD7C00002087
:10236000FEE7FEE702E008C8121F08C1002AFAD102
:1023700070477047002001E001C1121F002AFBD105
:10238000704710B548B14188021D8C5A091D00F0F4
:1023900053F9844203D0022010BD012010BD00205B
:1023A00010BD00207047000006484FF0FF318160EB
:1023B000002141740160C0F80D10C0F81210416096
:1023C0000173704780110020704700002DE9F05F15
:1023D00006004FF00000ADF5825D0446054609D0C9
:1023E00077884FF4815ABF1DEB46574507D84FF009
:1023F00001093DE003200DF5825DBDE8F09FA7F5E2
:10240000815141F21F02B1FBF2F1491C01F0FF09B9
:1024100013E055B3681C8DF80000D046311941F225
:102420001F020BF1010000BFFDF70DFF41465846AA
:1024300000F02DF810B30628DDD14D45E9D3BC429C
:10244000D9D26D1C2644EDB2B7EB04045F468DF87B
:10245000005022463146781CFDF7F5FE611C3846D7
:1024600000F015F80628F1D0C5E75046874200D89D
:1024700038468046024631195846D5E72DB141F21B
:102480001F010C446D1CEDB2D7E74444FAE710B5C8
:1024900000F0B0FA002010BD2DE9F84F4FF0000415
:1024A0000F460600A2460CD05FB1DFF81081D8F8C5
:1024B000000030B1DFF8089141F21F0B09F581559A
:1024C00077E00320BDE8F88FA868401C09D1305D93
:1024D000A5286DD10020A860042129602873401C24
:1024E00066D0286840B1A968335D09F80130491CFD
:1024F000A960401E28605BD1287B30B1012834D010
:10250000022825D0032853D13CE04846C5F8129054
:10251000FFF747FFC8B9D5F812004178408881B16C
:10252000011DB1FBFBF1491CC5F80D1002216974B6
:1025300041F21C022A60A0F5805029731A386860A5
:1025400036E0801C2860012031E0FFF72DFF2FE0EE
:10255000686820B1032028730120286028E0687C87
:10256000D5F80D10401E8142EFD115480090FFF7BD
:1025700008FF0028E9D10098D8F800204188001D04
:102580009047E2E7A868401EA86019F80010687C30
:102590008142DAD1401C687468685946884201D388
:1025A000296001E028600146401A68600220287313
:1025B000641CBC4288D3504684E700001800002009
:1025C00060010020002803D002490860FFF7ECBE3C
:1025D000704700001800002070B5C0B00D4606001E
:1025E00012D08DB16C462046FFF7EEFEA5208DF887
:1025F0000000A81D0021ADF80250B0F5815F06D99A
:1026000001208DF8010004E0032040B070BD8DF87A
:1026100001102A463146201DFDF715FEBDF80210B7
:102620002046091D00F008F8BDF80220211D505277
:102630002046FFF7CBFEE8E710B504464FF6FF70E3
:1026400000220EE0030A43EA0023A05C5840C0F3D6
:102650000313584080EA003080B2C3B280EA4310CE
:10266000521C8A42EED310BD01B582B040F6FF7015
:102670000090012301AA02A90248FEF723FF9DF85A
:1026800004000EBD240000208AB2014640F6FF730C
:102690000148FEF763BE0000240000202DE9F04150
:1026A0000446174800250E460078002825D1154F0E
:1026B00021E000BF00F08EF800F026F80022402153
:1026C0003846FEF715FA2020FFF7CEFFC4F3074087
:1026D000FFF7CAFFC4F30720FFF7C6FFE0B2FFF71A
:1026E000C3FF012240213846FEF702FA00F00CF841
:1026F00004F580546D1CB542DCD3BDE8F0810000C8
:1027000020000020001402402DE9F0410F4E00246B
:102710004FF4C8770520FEF797F800224021304695
:10272000FEF7E6F90520FFF79FFFFF20FFF79CFF6C
:102730000546012240213046FEF7DAF9641CA4B2B6
:10274000E80701D0BC42E5D3BDE8F08100140240A7
:102750002DE9F0470646C8B2C0F580771C48002432
:10276000904600780D46002830D11046B8452BD948
:102770003A46304600F042F8A8EB0700C1173D4446
:102780003E4400EB1161C1F30F2721F0FF01401A15
:102790001FFA80F84FF480790AE04A46294630460D
:1027A00000F02CF8641CA4B205F5807506F580765F
:1027B000BC42F2D3B8F1000008D0024629463046A8
:1027C000BDE8F04700F01AB80246F8E7BDE8F08728
:1027D0002000002010B5084C002240212046FEF7C2
:1027E00087F90620FFF740FF20460122BDE8104090
:1027F0004021FEF77DB90000001402402DE9F041B0
:1028000014460D460746FFF7E5FF124E0022402111
:102810003046FEF76DF90220FFF726FFC5F30740AB
:10282000FFF722FFC5F30720FFF71EFFE8B2FFF70F
:102830001BFFB015844200D9044621463846FFF7F5
:1028400023FF012240213046FEF752F9BDE8F04156
:10285000FFF75ABF001402401CB5FEF75DF9FFF701
:1028600089FAFFF761F91D480024016841F48001ED
:1028700001600068224600F48000019021463A2061
:10288000FEF7D2F93A20FEF7C3F9FFF7A1F9154890
:10289000134901604FF4E131C0E901140C21C46017
:1028A000C0E904418461C461FEF7D2FF00B1FEE7D4
:1028B000FFF70AF90B497431A1F13400FFF7BBF9B6
:1028C00000F044F800F082F803208107C8708DF80A
:1028D00000000121684600F08DF8FEE73038024024
:1028E000001001407C000020002301461A46012010
:1028F00000F032B81CB5022927D301788DF80010FA
:1029000041788DF8011002D14FF0000001E000F194
:102910000200CDF802000098C2B2012A15D1DDF8FC
:1029200002402068010501D002200AE00121FFF7E2
:10293000B5FEA088216882B204F10800FFF708FF05
:102940000020BDE81C40FFF7CFBF1CBD0148FFF7CA
:1029500039BE0000F528000810B51C461346C0B06B
:1029600002468DF800208DF80110224619460DF11F
:102970000200FDF768FCA11C6846FFF72DFE40B081
:1029800010BD000038B50D4800680168406800902F
:102990000B48006840680B4C20600848FEF7A3FE17
:1029A0002068C0F581510848FFF776FDBDE8384042
:1029B0004FF4815204490148FEF7D8BF7C00002043
:1029C000000100201C0000209611002010B54FF4DB
:1029D000815206490648FEF7C9FF05480068C168EC
:1029E00041F01001C160002010BD000096110020D0
:1029F0007C0000208AB210B5014640F6FF73024801
:102A0000FFF702F8002010BD7C0000200006101621
:102A10000006101600000000000000000102030480
:102A20000607080900000000010203044C2A000800
:102A3000000000202400000064230008702A000821
:102A400024000020942500007423000800000000EA
:102A50000000000001000000100000000000000065
:102A60000024F4000000000000000000000000004E
:04000005080001AD41
:00000001FF
