:020000040800F2
:1000000040480020C1010008C31D0008591C000819
:10001000C11D0008CD020008C7250008000000002F
:10002000000000000000000000000000151F000894
:100030008103000800000000E51D0008171F0008EC
:10004000DB010008DB010008DB010008DB01000820
:10005000DB010008DB010008DB010008DB01000810
:10006000DB010008DB010008DB010008DB01000800
:10007000DB010008DB010008DB010008DB010008F0
:10008000DB010008DB010008DB010008DB010008E0
:10009000DB010008DB010008DB010008DB010008D0
:1000A000DB010008DB010008DB010008DB010008C0
:1000B000DB010008DB010008DB010008DB010008B0
:1000C000DB010008DB010008DB010008DB010008A0
:1000D000DB010008F1240008DB010008DB01000857
:1000E000DB010008DB010008DB010008DB01000880
:1000F000DB010008DB010008DB010008DB01000870
:10010000DB010008DB010008DB010008DB0100085F
:10011000DB010008DB010008DB010008DB0100084F
:10012000DB010008DB010008D1020008DB01000848
:10013000DB010008DB010008DB010008DB0100082F
:10014000DB010008DB010008DB010008DB0100081F
:10015000DB010008DB010008DB010008DB0100080F
:10016000DB010008DB010008DB010008DB010008FF
:10017000DB010008DB010008DB01000800000000D3
:10018000DB010008DB010008DB010008DB010008DF
:10019000DB010008DB010008DB010008DB010008CF
:1001A000DB010008DB010008DB010008DFF80CD0F0
:1001B00000F07AF800480047B535000840480020B4
:1001C0000648804706480047FEE7FEE7FEE7FEE7F1
:1001D000FEE7FEE7FEE7FEE7FEE7FEE7CD1F0008CD
:1001E000AD0100082DE9F05F0546002092469B46D0
:1001F00088460646814640241BE02846414647463D
:10020000224600F041F853465A46C01A914110D395
:1002100011461846224600F028F82D1A67EB01080F
:100220004F4622460120002100F01FF817EB00097D
:100230004E41201EA4F10104DFDC484631462A4627
:100240004346BDE8F09F40EA01039B0703D009E065
:1002500008C9121F08C0042AFAD203E011F8013BB2
:1002600000F8013B521EF9D27047202A04DB203AE5
:1002700000FA02F1002070479140C2F1200320FAF9
:1002800003F3194390407047202A04DB203A21FAF7
:1002900002F00021704721FA02F3D040C2F120029F
:1002A0009140084319467047064C074D06E0E06848
:1002B00040F0010394E8070098471034AC42F6D3AD
:1002C000FFF778FFE838000808390008FEE700006B
:1002D000014800F065B900002811002001681823CA
:1002E000CAB2103AB2FBF3F2054B6FF30901032ACD
:1002F0009B5CC36500D9091D8165084670470000F5
:10030000AC38000810B5014600208B698A6A4FF0AE
:10031000C07453B1B3F5005F15D072B1012A0CD08F
:10032000022A0AD0032A09D104E01AB1012A06D010
:10033000022A03D1C96AC90100D5012010BDC96ACA
:10034000A142FAD010BD002AF7D0012AF2D0022A29
:10035000F3D0032AF3D010BD30B50468256825F426
:1003600080252560046863608368402B036803D0A0
:1003700099600068C26030BD9A600068C16030BD9D
:1003800070470022AFF3008030B50E4B05460120C8
:100390005C7A002C14D1587A1C54587A03EB8000F4
:1003A00045605D7A03F108002A54587A421C5A725B
:1003B000303008703A2048702F208870CC700020B0
:1003C00030BD00003044002030B5D1E901231A438C
:1003D000D1E903352B431A434B690C681A438B69E7
:1003E0001A43D1E90735012C496A046807D01A433A
:1003F0002A436FF30E040A43224302600AE024F406
:10040000F8442B4321430B43416803606FF30E0113
:100410000A434260002030BD426942EA4101416125
:1004200000207047F8B514460546D1E90002104394
:100430008A686FF01F03C96803EB421242EA412148
:1004400008430090286100F07BFB064609E0601C31
:1004500007D024B100F074FB801BA04201D9032017
:10046000F8BDA8698006F2D40020F8BDF0B56FF0A1
:100470000F05D1E9003405EB04145B1E23432E0164
:100480008C682F0306EB042423434FEA054C0C8AA7
:100490008E8ACD68097E4FF07F4E07EB04440CEB4B
:1004A00006560EEB0161012A0CD082683F1107EB62
:1004B00005352B432343334302F070420B43134370
:1004C00083600FE08768084A17402A03A2F580522C
:1004D0003243C5683A43234305F070450B432B4331
:1004E0008260C3600020F0BDFF0F0FFF2DE9F041D7
:1004F0000446876D00F024FB064694F8350000257D
:10050000022806D08020606584F834500120BDE8C0
:10051000F0812068016821F01601016020684169BE
:1005200021F080014161206C08B9A06C20B12068E5
:10053000016821F0080101602068016821F00101D3
:1005400001600BE000F0FCFA801B052806D9202092
:10055000606504F8345F03206070D8E720680068A5
:10056000C007EFD194F85C103F208840B86004F8D1
:10057000345F012060700020C9E790F8351002292F
:1005800003D08021416501207047052180F8351096
:100590000068016821F0010101600020704700003F
:1005A0002DE9F84304464FF00009CDF80090634868
:1005B0004FF41651A56D0068B0FBF1F72E6894F862
:1005C0005C10082000FA01F131420FD021680A685E
:1005D00052070BD50A6822F004020A6094F85C10F6
:1005E0008840A860606D40F00100606594F85C1080
:1005F0004FF0010808FA01F0304208D0216849693B
:10060000090604D5A860606D40F00200606594F8AA
:100610005C1004208840304208D0216809688907AE
:1006200004D5A860606D40F00400606594F85C102B
:1006300010208840304218D021680968090714D575
:10064000A86020680168490304D50068000308D544
:10065000A16C07E00168C90503D4016821F0080115
:100660000160216C09B12046884794F85C10202075
:100670008840304231D021680968C9062DD5A8606C
:1006800094F8350005282068016806D0490347D54D
:10069000006800031DD4616C1CE021F016010160AC
:1006A0002068416921F080014161206C08B9A06C8B
:1006B00020B12068016821F00801016094F85C1005
:1006C0003F208840A86084F8349084F83580216DFC
:1006D0001FE0E16B09B120468847606D00282BD0F0
:1006E000606DC00714D0052084F8350020680168CB
:1006F00021F0010101600098401C0090B84203D82D
:1007000020680068C007F6D184F8349084F83580FA
:10071000E16C002910D001B02046BDE8F043084745
:100720000168C905D5D4016821F01001016084F881
:10073000349084F83580CCE7BDE8F883340000209D
:100740002DE9F041044600F0FBF906465CB10025B6
:1007500084F83450022084F835002068016821F0C4
:10076000010101600DE00120BDE8F08100F0E8F931
:10077000801B052805D920206065032084F83500FA
:10078000F2E720680068C007F0D1226811682048AD
:100790000140D4E901031843D4E903363343184335
:1007A00063691843A3691843E3691843236A18432C
:1007B0000843616A042903D1D4E90B1319430843A0
:1007C000106020684069666A20F0070130460E43D9
:1007D000012704280CD1A06A0643E06A40B12046F4
:1007E000FFF790FD20B14020606584F83570BAE7CE
:1007F000206846612046FFF771FD94F85C203F2198
:1008000091408160656584F835700020ACE7000098
:100810003F8010F02DE9F0410446866D90F83400D9
:10082000002501280DD0012084F8340094F835709B
:100830000020012F07D084F8340002252846BDE8A7
:10084000F0810220FBE7022784F8357060652046BE
:10085000FFF782FD94F85C103F208840B06020686C
:10086000016841F0160101602068416941F0800192
:100870004161206C20B12068016841F008010160ED
:100880002068016841F001010160D7E770B50446B6
:1008900000F056F90546601C02D004480078044474
:1008A00000F04EF9401BA042FAD370BD2800002092
:1008B000F0B5264887B00168002944D101210160C4
:1008C00023480024016841F001010160006802250D
:1008D00000F0010005904FF63F00CDE9000502AAA7
:1008E00003260C2782E8D00069461A4800F03CF83D
:1008F0000D20CDE9000502AA694682E8D00016481D
:1009000000F032F848F23710CDE9000502AA694636
:1009100082E8D000114800F027F84FF68070CDE94A
:10092000000502AA694682E8D0000D4800F01CF8D4
:100930004CF20370CDE9000502AA694682E8D000B6
:10094000084800F011F807B0F0BD000020000020BA
:1009500038380240001402400008024000180240EB
:1009600000100240000C02402DE9F84FDFF890B172
:1009700000224FF001084FF0030A4FF00F090BF16E
:10098000040E00BF0B6808FA02F42340A3426ED1A4
:100990004D68022D01D0122D0ED1D50800EB850C2B
:1009A000DCF820505607F70E09FA07F6B5430E6932
:1009B000BE402E43CCF82060066855000F790AFA35
:1009C00005FC07F0030726EA0C06AF403743076033
:1009D0004E68012E05D0022E03D0112E01D0122E0A
:1009E0000ED18768CE6827EA0C07AE403E4386608A
:1009F0004668A6430C79C4F3001494403443446021
:100A0000C4688E6824EA0C04AE402643C6604C6875
:100A1000E4006FD53B4C256845F48045256024688B
:100A200022F0030504F480440094374C2E19D6F8C4
:100A3000084895072F0F09FA07F5AC43334DA84234
:100A400001D100252EE0324DA84201D1012529E037
:100A5000304DA84201D1022524E02F4DA84201D1FA
:100A600003251FE02D4DA84202D104251AE041E0E4
:100A70002B4DA84201D1052514E02A4DA84201D1F1
:100A800006250FE0284DA84201D107250AE0274D91
:100A9000A84201D1082505E0254DA84201D109252C
:100AA00000E00A25BD402543C6F80858DBF80040A1
:100AB0005D464E689C43F60300D51C432C60DEF86F
:100AC000004075464E689C43B60300D51C432C601D
:100AD0000B4D08352C684E689C43F60200D51C432C
:100AE0002C60074D0C352C684E689C43B60200D52F
:100AF0001C432C60521C102AFFF444AFBDE8F88F51
:100B0000003C0140443802400030014000000240F7
:100B10000004024000080240000C024000100240A5
:100B20000014024000180240001C02400020024055
:100B3000002402400AB1816170470904FBE700000C
:100B40000148806870470000280000200248816842
:100B50000278114481607047280000200B4810B5CE
:100B6000016841F400710160016841F48061016035
:100B7000016841F480710160032000F097F80020C3
:100B800000F006F800F024F8002010BD003C024000
:100B900070B50D4D04464FF47A712878B1FBF0F032
:100BA0000A490968B1FBF0F000F04FFE48B9102C7B
:100BB00007D200222146501E00F058F800206C6039
:100BC00070BD012070BD000028000020340000200E
:100BD0001F4808B5016841F480410160006800F4D5
:100BE000804000901A48001F016841F08051016068
:100BF000006800F080500090032000F057F80022B9
:100C000011466FF00B0000F031F8002211466FF032
:100C10000A0000F02BF8002211466FF0090000F0E6
:100C200025F800221146501F00F020F8002211463E
:100C3000101F00F01BF800221146901E00F016F85D
:100C40000022BDE808401146501E00F00FB8000019
:100C50004438024000F01F02012191404009800009
:100C600000F1E020C0F8001170470000F0B40E4B16
:100C70001B680C46C3F30223C3F10705042D00D9FA
:100C80000425191D072901D2002300E0DB1E0126DF
:100C900006FA05F1491E214099409E40761E1640F5
:100CA0003143F0BC01F08EB80CED00E0064900F0D5
:100CB000070208684FF6FF03184040EA0220034A83
:100CC00010430860704700000CED00E00000FA05DA
:100CD0002DE9F8431748016841F080510160006830
:100CE000154F00F08050012600903E64FFF728FF6A
:100CF00005464FF47A78114C05E000BFFFF720FF5E
:100D0000401B40450DD86068C003F7D57E64FFF7EF
:100D100017FF0546464607E0FFF712FF401BB042AB
:100D200002D90320BDE8F88360688003F4D5002071
:100D3000F8E700004038024000000E42007000401A
:100D40002DE9F0470E46050065D0DFF81481D8F88C
:100D50000000F7B200F00F00B04207D288F8007030
:100D6000D8F8000000F00F00B04254D128683D4C84
:100D7000810712D5400703D5206840F4E050206079
:100D80002878000703D5206840F460402060206880
:100D9000A96820F0F000084320602878C0072DD013
:100DA000304968680839012812D0022813D0032876
:100DB00011D00968890700292DDA216821F0030183
:100DC00001432160FFF7BCFE814641F2883A0EE004
:100DD00009688903EFE709688901ECE7FFF7B0FECE
:100DE000A0EB0901514502D90320BDE8F087206836
:100DF000696800F00C00B0EB810FEFD1D8F800105B
:100E0000404601F00F01B14207D90770006800F0B9
:100E10000F00B04201D00120E7E72878400705D550
:100E20002068E96820F4E050084320602878000733
:100E300006D52068296920F4604040EAC10020609E
:100E400000F03CF82168084AC1F30311515CC84026
:100E5000064908600020FFF79BFE0020C5E7000060
:100E6000003C024008380240B4380008340000203A
:100E7000014800687047000034000020044805491C
:100E800000680968044AC1F38221515CC840704778
:100E90003400002008380240C438000804480549DE
:100EA00000680968044AC1F34231515CC840704788
:100EB0003400002008380240C4380008154810B536
:100EC000006810F00C02144813D01449042A0FD003
:100ED000082A0ED10F4C241F2268236802F03F021B
:100EE0005B0207D52068C0F38810A0FB010106E073
:100EF000084610BD2168C1F38811A1FB0001002341
:100F0000FFF770F92168C1F30141491C4900B0FBAA
:100F1000F1F010BD083802400024F40040787D0153
:100F20002DE9F84F050076D02878DFF8F8B2BE4CEE
:100F3000C00749D0DBF800105846C1F381010129F0
:100F400008D00068C0F3810002280AD1201D006883
:100F5000400206D52068800336D568680028E2D0B4
:100F600032E06868B0F5803F10D0B0F5A02F20685F
:100F700010D020F480302060206820F48020206091
:100F80006868A0B1FFF7DCFD06460CE0206840F47D
:100F90008030F4E740F480202060F7E7FFF7D0FDD1
:100FA000801B642873D820688003F7D50CE0FFF716
:100FB000C7FD064605E000BFFFF7C2FD801B6428A1
:100FC000F0D820688003F7D42878DFF860828007A3
:100FD0004FF000093ED5DBF80010584611F00C0F19
:100FE00009D00068C0F3810002280BD18D48001F92
:100FF0000068400206D42068800715D5E8680128FB
:1010000009D111E0E868B8B10120C8F80000FFF785
:1010100097FD064605E002E1FFF792FD801B0228DE
:10102000C0D820688007F7D52068296920F0F8002B
:1010300040EAC10020600DE0C8F80090FFF780FD95
:10104000064604E0FFF77CFD801B02281FD82068BD
:101050008007F7D42878000722D5724E7448696952
:101060006C3671B101210160FFF76AFD074604E0AB
:10107000FFF766FDC01B022809D830688007F7D546
:101080000EE0C0F80090FFF75BFD074605E083E047
:10109000FFF756FDC01B02287ED830688007F7D4C2
:1010A0002878400768D5DFF87CA100270AF1380AC4
:1010B000DAF80000C0000BD4DAF8001041F08051DB
:1010C000CAF80010DAF80000012700F08050009004
:1010D000584E3068C00510D4306840F480703060DD
:1010E000FFF72EFD009005E0FFF72AFD0099401A5A
:1010F000022851D83068C005F6D54A4EA86868362F
:1011000001280FD00528306810D020F00100306091
:10111000306820F004003060A868B8B1FFF710FD17
:1011200000900FE0306840F00100F4E740F0040068
:101130003060F7E7FFF704FD0099411A41F288306B
:10114000814264D830688007F4D50EE0FFF7F8FCE0
:10115000009007E0FFF7F4FC0099411A41F2883053
:10116000814254D830688007F4D42FB1DAF80010E7
:1011700021F08051CAF80010A869C0B3DBF8001054
:10118000C1F3810102294AD00228484607D0C8F895
:101190006000FFF7D5FC00E039E005463AE047463D
:1011A000C8F86000FFF7CCFC064604E0FFF7C8FC77
:1011B000801B02282BD820688001F7D4D5E90701CD
:1011C0000843A96A1C4A490802EB01416A6A41EADC
:1011D0008211084395F82C1040EA01611148001F64
:1011E000016001203866FFF7ABFC054605E014E01E
:1011F000FFF7A6FC401B022809D820688001F7D51C
:101200000BE000BFFFF79CFC401B022802D9032023
:10121000BDE8F88F20688001F4D40020F8E70120B1
:10122000F6E700000838024000380240000047425C
:10123000800E4742007000400000FFFF70B50D4671
:10124000040003D094F82C0010B107E0012070BD19
:10125000002084F82D00204600F011F8022084F8C8
:101260002C00211D2068FFF7AFF8D4E900022946C1
:10127000FFF7FCF8012084F82C00002070BDFFF778
:1012800017BB10B5044690F82C00022809D00220A4
:1012900084F82C002068FFF7BFF8012084F82C00A8
:1012A000002010BD70B5044690F82C000D460228B1
:1012B0000DD0022084F82C002068FFF7B3F82868CE
:1012C000022805D05FF0010084F82C00002070BDDA
:1012D0000520F9E770B5040005D00025A56294F853
:1012E000510010B106E0012070BD84F85050204636
:1012F00000F030F8022084F851002068016821F0E5
:1013000040010160D4E901010843D4E9031211430B
:10131000084361690843218B01F400710843E169C6
:101320000843216A0843A16A084321680860A0694C
:10133000042101EA1040616A08432168486020687E
:10134000C16921F40061C1616565012084F8510023
:10135000002070BD00B500680E4987B0884217D1E3
:101360000D480021026842F480120260006800F417
:10137000801005904FF4607000900220CDE90101CB
:10138000032003900520049069460448FFF7ECFA17
:1013900007B000BD00500140443802400014024034
:1013A0002DE9F84F044640680026984617460D463A
:1013B0004FF00409B0F5827F01D1A06890B194F894
:1013C0005000012819D04FF0010B84F850B0FFF7FE
:1013D000B7FB009094F851004FF0000A01280ED09E
:1013E00002267FE084F8519013460A462046CDF845
:1013F000008000F031F9BDE8F88F0220FBE7002DF6
:101400006FD0002F6DD084F85190C4F854A0A5631C
:10141000A787E787C4F830A0A4F834A0A4F836A0C2
:10142000C4F840A0C4F844A0A0684FF40047B842F4
:1014300004D12068016821F48041016020680168BE
:10144000490603D4016841F040010160E068B8B189
:1014500033E020688168C90706D0007B05F8010BDE
:10146000E08F401EE0870BE0B8F1000F23D0B8F109
:10147000FF3F05D0FFF764FB0099411A41451AD29E
:10148000E08F0028E5D11BE020688168C90706D0FD
:10149000C06825F8020BE08F401EE0870DE0B8F130
:1014A000000F08D0B8F1FF3F07D0FFF749FB0099C4
:1014B000411A414501D3032614E0E08F0028E3D10F
:1014C0006068B0F5827F0AD1A068B84202D0B0F55A
:1014D000806F04D12068016821F040010160606DD7
:1014E00000B1012684F851B084F850A0304682E75C
:1014F0002DE9F84F044690F850000026994617460B
:101500000D4601280DD04FF0010B84F850B0FFF7C5
:1015100017FB804694F85100B246012804D00226F9
:1015200094E00220BDE8F88F002D7BD0002F79D009
:10153000032084F85100C4F854A02563A786E786E9
:10154000C4F838A0A4F83CA0A4F83EA0C4F844A075
:10155000C4F840A0A068B0F5004F04D1206801682D
:1015600041F48041016020680168490603D40168A4
:1015700041F040010160E068B0F5006F606804D0A0
:1015800030B3E08E012823D03EE010B1E08E012878
:101590001AD135F8021B206805E0206881688907A8
:1015A00006D535F8021BC160E08E401EE0860BE0D8
:1015B000B9F1000F34D0B9F1FF3F05D0FFF7C0FA01
:1015C000A0EB080149452BD2E08E0028E5D11EE0B2
:1015D000216815F8010B087306E020688168890707
:1015E00006D515F8011B0173E08E401EE0860BE066
:1015F000B9F1000F14D0B9F1FF3F05D0FFF7A0FA01
:10160000A0EB080149450BD2E08E0028E5D14B46FE
:10161000012202212046CDF8008000F030FC10B1FC
:10162000032613E011E042464946204600F017FC2D
:1016300018B101262020606508E0A06818B920686C
:10164000C16880680090606D00B1012684F851B0D7
:1016500084F850A0304665E72DE9F84F044690F82D
:10166000500000260A9F9A4693460D464FF0010807
:1016700001280ED0012084F85000FFF761FA81465E
:1016800094F85100616801280CD0B1F5827F07D130
:1016900002E00220BDE8F88FA16809B9042801D052
:1016A0000226BDE055B1BBF1000F07D0BAF1000F23
:1016B00004D094F85100012802D004E00126AFE0E4
:1016C000052084F8510000206065C4F838B0A4F803
:1016D0003EA0A4F83CA02563A4F836A0A4F834A04A
:1016E0002064606420680168490603D4016841F001
:1016F00040010160E068B0F5006F606804D0E8B3B5
:10170000E08E01283BD06AE010B1E08E01282ED196
:10171000216835F8020BC860E08E401EE08626E0A6
:10172000B8F1000F0DD0E08E58B1206881688907AC
:1017300007D535F8021BC160E08E401EE0864FF0F1
:101740000008E08F58B120688168C90707D0C068D9
:101750002BF8020BE08F401EE0874FF00108781C49
:1017600005D0FFF7EDF9A0EB0900B84246D2E08EB4
:101770000028D5D1E08F0028D2D136E0FFE72168DC
:1017800015F8010B0873E08E401EE08627E000BFCD
:10179000B8F1000F0DD0E08E58B12068816889073C
:1017A00007D515F8011B0173E08E401EE0864FF04F
:1017B0000008E08F58B120688168C90707D0C06869
:1017C0000BF8010BE08F401EE0874FF00108781CFA
:1017D00005D0FFF7B5F9A0EB0900B8420ED2E08EB4
:1017E0000028D5D1E08F0028D2D13B46012202212A
:1017F0002046CDF8009000F042FB08B103260FE030
:101800004A463946204600F02AFB18B1012620201E
:10181000606505E0A06818B92068C168806800901C
:10182000012084F85100002084F85000304631E750
:101830004FF0E0210428086903D020F0040008617B
:10184000704740F00400FAE7704710B5401EB0F151
:10185000807F01D3012010BD4FF0E02460610F2193
:10186000601700F0AFFA0020A0610720206100207F
:1018700010BD10B5FFF7E8FF10BD10B504460068B5
:10188000416994F83920C1F3C011212A0BD151B11B
:10189000416921F080014161206B08B1FEF726FE0D
:1018A000204600F01BFC2068416994F83A20C1F3FF
:1018B0008011222A0BD151B1416921F040014161CF
:1018C000606B08B1FEF712FE204600F0F9FB002025
:1018D00010BD704770B5026804461068D16853693E
:1018E00010F00F0F50D003F0010501F4907635434E
:1018F0005DD0C20705D0CA0503D5E26B42F00102F4
:10190000E263420705D5DA0703D0E26B42F0020238
:10191000E263820705D5DA0703D0E26B42F00402E6
:10192000E263020705D5DA0703D0E26B42F0080252
:10193000E263E26B002A33D0800604D5880602D524
:10194000204600F0D4FB20684069E16BC0F38010B2
:10195000090700D428B3204600F0B2FB2068416993
:1019600049061AD5416921F040014161606BA0B17F
:101970001B490165606BFEF700FE002810D0606B0C
:10198000016DBDE870400847830610D58B060ED563
:101990002046BDE8704000F0AABB2046FFF799FF43
:1019A00070BD2046FFF795FF0020E06370BD030681
:1019B00006D50B0604D52046BDE8704000F034BDC6
:1019C0004006F3D54806F1D5D168204621F0400104
:1019D000D160202184F8391000F03DF970BD00007D
:1019E0002120000870B5040004D094F839000025C7
:1019F00010B106E0012070BD84F83850204600F098
:101A000023F8242084F839002068C16821F40051AB
:101A1000C160204600F0B2FB2068016921F49041CA
:101A200001612068416921F02A0141612068C16893
:101A300041F40051C160E563202084F8390084F846
:101A40003A00002070BD000070B5064600682049CD
:101A500086B088423AD11F480025016841F0100144
:101A600001600068694600F0100005904FF4C06006
:101A70000090022001900120029003200390072093
:101A800004901548FEF770FF154C144820604FF085
:101A90000060C4E901054014C4E903506561C00158
:101AA000A561C4E9075020466562FEF749FE18B1FA
:101AB000B9210CA000F088FD7463002201212520CB
:101AC000A663FFF7D3F82520FFF7C4F806B070BD72
:101AD00000100140443802400000024040640240CF
:101AE000281100202E2E2F5372632F73746D333202
:101AF000663478785F68616C5F6D73702E63000088
:101B0000F8B5044690F83A0020283CD1C1B3BAB3E6
:101B100094F83800012836D0012084F83800A162FA
:101B2000A2850025E563222084F83A00636B1748FC
:101B3000D863636B16481864636B1648D864606B8F
:101B4000134605650846666B216802463046091D46
:101B5000FEF760FE206801684168009184F8385003
:101B6000C16841F48071C1602068416941F00101A0
:101B700041612068416941F0400141610020F8BDA8
:101B8000FFE70120FBE70220F9E700007B200008C7
:101B9000B720000831200008704770472DE9F8434E
:101BA000044690F839001F4616460D46202850D1AD
:101BB000A5B19EB194F8380001284AD0012084F8DC
:101BC00038004FF00008C4F83C80212084F8390028
:101BD000FEF7B6FFA6848146E68426E00120BDE834
:101BE000F883E08C401EE084A0684B46B0F5805F2F
:101BF0004FF000024FF080012046009703D000F024
:101C000044FCE8B90DE000F040FCC8B92888216820
:101C1000C0F308004860206908B16D1C05E0AD1CE8
:101C200003E0216815F8010B4860E08C0028D8D14A
:101C30004B46002240212046009700F026FC08B1C8
:101C40000320CCE7202084F8390084F83880002075
:101C5000C5E70220C3E77047FEE7000010B504495E
:101C60000448FEF78EFB0249491E087010BD0000B3
:101C7000190000200400002000B5164887B0144960
:101C80000022C0E900120121816008211023C0E96F
:101C90000313402343614FF4C073C0E906320A02C4
:101CA00002624A0242628A0282620220CDE9000197
:101CB0000621029103910421CDE9041006906946A2
:101CC0000448FFF7BBFA002800D0FEE707B000BDCC
:101CD000400100A0E400002030B5274887B0002470
:101CE000016841F020010160016801F020010591C7
:101CF000016841F080010160016801F080010591F7
:101D0000016841F004010160016801F004010591DE
:101D1000016841F040010160016801F04001059156
:101D2000016841F010010160016801F010010591A6
:101D3000016841F008010160016801F008010591A6
:101D4000016841F00101016000680C4D00F00100E4
:101D50000590012240212846FEF7ECFE402000902D
:101D60000120CDE901040220039069462846FEF7D0
:101D7000FBFD07B030BD00003038024000140240C7
:101D80000E4810B50C4901604FF48271416000218A
:101D900002228160C0E90312012242615202C0E9BD
:101DA00006210162416281620721C162FFF792FA56
:101DB000002800D0FEE710BD005001404C0000207C
:101DC000FEE770470907090E002806DA00F00F0049
:101DD00000F1E02080F8141D704700F1E02080F849
:101DE0000014704770472DE9F84F0C460025012676
:101DF00010270095C4E90067C4E902654FF48059D3
:101E000082464A46FFF74EFA6420FEF73FFD022065
:101E1000C4E90007C4E902654A4621465046FFF777
:101E200041FA03204FF00408E56084E881014A4646
:101E300021465046FFF736FA4FF40C700090C4E983
:101E40000260C4E900874A4621465046FFF72AFA55
:101E50005046BDE8F84F40F26A51FFF712BA38B564
:101E60000B46009204460022802100F008F800286A
:101E700004D0606D40F020006065032038BD2DE97E
:101E8000F0411D4617460E460446DDF8188035E041
:101E9000681C33D02DB1FEF753FEA0EB0800A8421A
:101EA0002CD32068416821F0E00141606068B0F502
:101EB000827F0BD1A068B0F5004F02D0B0F5806FE3
:101EC00004D12068016821F040010160A06AB0F5EA
:101ED000005F0AD1206801684DF6FF721140016071
:101EE0002068016841F400510160012084F851002C
:101EF000002084F850000320BDE8F081206880684D
:101F000036EA000004D00020B842C1D10020F3E737
:101F10000120F9E7704710B5FEF718FEBDE8104044
:101F2000FFF7A7BC30B5274893B00025016841F002
:101F300080510160006800F08050119022480168D3
:101F400041F4404101600068022400F440401190D7
:101F500001200090000401908001CDE90640192085
:101F600008904FF4B470CDE9090404200B90684642
:101F7000FEF7D6FF00B1FEE7FEF7AAFE00B1FEE7CE
:101F80000CA90F2081E831004FF4A0500F904FF4BE
:101F90008050109005210CA8FEF7D2FE00B1FEE79C
:101FA000FEF766FF4FF47A71B0FBF1F0FFF74DFCDE
:101FB0000420FFF73DFC00221146501EFEF756FE9E
:101FC00013B030BD40380240007000401048016836
:101FD00041F4700101600F48016841F001010160A6
:101FE0000C4A00210832116002680B4B1A40026053
:101FF000031D0A4A1A60026822F480220260054822
:102000000C300160024958068039086070470000B2
:1020100088ED00E000380240FFFFF6FE103000249B
:1020200010B5806B0021C185C184FFF752FC10BD43
:1020300070B5846B2068406994F83910C0F3C01003
:102040000025212904D118B1E584204600F046F886
:102050002068406994F83A10C0F38010222904D116
:1020600018B1E585204600F02BF8E06B40F0100039
:10207000E0632046FFF72DFC70BD10B50146806B74
:1020800009680968C90513D40021C1850168CA68B7
:1020900022F48072CA6001684A6922F001024A6132
:1020A00001684A6922F040024A61202180F83A1012
:1020B000FFF772FD10BD10B5806BFFF76EFD10BD10
:1020C0000168CA6822F49072CA6001684A6922F005
:1020D00001024A61202180F83A1070470168CA68FD
:1020E00022F0C002CA60202180F83910704710B574
:1020F00090F83A10222901D0022010BD8168B1F574
:10210000805F11D00169002901681FD0496801F082
:102110007F03816A4A1C82620B70C18D491E0904CB
:10212000090CC18518D026E00269816A002A02687C
:10213000526805D0D2B20A80816A491C8162ECE7FC
:10214000C2F308020A80816A891CF7E74A68816A3B
:102150004B1C83620A70E0E70168CA6822F490723F
:10216000CA6001684A6922F001024A61202180F8B0
:102170003A10FFF711FD002010BD00002DE9F041DD
:1021800004460068016921F44052E168114301618D
:102190002168C86849F20C6290432369A268E56926
:1021A0001A4363692B431A430243CA602168486992
:1021B00020F44072A06910434861E1696425B1F5DB
:1021C000004F9748974A21684FF032083FD091421C
:1021D00001D081427CD1FEF761FE00EBC00101EB32
:1021E000001061688900B0FBF1F6FEF757FE00EBC6
:1021F000C00101EB001061688900B0FBF1F0B0FB99
:10220000F5F06FF01801484306EB800108EB011070
:10221000B0FBF5F000F0F006FEF740FE00EBC00169
:1022200001EB001061688900B0FBF1F0B0FBF5F044
:1022300006EB0016FEF732FE00EBC00101EB0010CA
:1022400061688900B0FBF1F7FEF728FED2E0914209
:1022500001D081423DD1FEF721FE00EBC00101EB30
:10226000001061684900B0FBF1F0B0FBF5F0060129
:10227000FEF714FE00EBC00101EB0010616849009D
:10228000B0FBF1F7FEF70AFE00EBC00101EB001016
:1022900061684900B0FBF1F0B0FBF5F06FF0180198
:1022A000484307EB800108EBC100B0FBF5F000F0FC
:1022B000F80006EB4006FEF7F1FD00EBC00101EB74
:1022C000001061684900B0FBF1F7FEF7E7FD3CE064
:1022D00055E0FEF7D3FD00EBC00101EB0010616893
:1022E0004900B0FBF1F0B0FBF5F00601FEF7C6FDCA
:1022F00000EBC00101EB001061684900B0FBF1F791
:10230000FEF7BCFD00EBC00101EB00106168490065
:10231000B0FBF1F0B0FBF5F06FF01801484307EBAC
:10232000800108EBC100B0FBF5F000F0F80006EB0F
:102330004006FEF7A3FD00EBC00101EB0010616851
:102340004900B0FBF1F7FEF799FD00EBC00101EB8E
:10235000001061684900B0FBF1F0B0FBF5F06FF0E0
:102360001801484307EB800108EBC100B0FBF5F012
:1023700000F00700216830448860BDE8F081FEF776
:102380007DFD00EBC00101EB001061688900B0FB2E
:10239000F1F6FEF773FD00EBC00101EB0010616880
:1023A0008900B0FBF1F0B0FBF5F06FF01801484385
:1023B00006EB800108EB0110B0FBF5F000F0F00631
:1023C000FEF75CFD00EBC00101EB001061688900C5
:1023D000B0FBF1F0B0FBF5F006EB0016FEF74EFD9A
:1023E00000EBC00101EB001061688900B0FBF1F760
:1023F000FEF744FD00EBC00101EB001061688900AD
:10240000B0FBF1F0B0FBF5F06FF01801484307EBBB
:10241000800108EB0110B0FBF5F000F00F00A9E718
:10242000001401400010014090F83910212901D01A
:10243000022070478168B1F5805F016A0BD04A1CA9
:102440000262026809785160C18C491E0904090CB6
:10245000C1840ED017E009880268C1F308015160F9
:1024600001690029016A02D0491C0162ECE7891C5C
:10247000FBE70168CA6822F08002CA600068C16890
:1024800041F04001C160002070472DE9F0419846BD
:1024900017460E460446069D1DE0681C1BD02DB154
:1024A000FEF74EFBA0EB0800A84214D92068C168D3
:1024B00021F4D071C1602068416921F001014161BE
:1024C000202084F8390084F83A00002084F838008D
:1024D0000320BDE8F0812068006836EA000004D0DF
:1024E0000020B842D9D00020F3E70120F9E700002E
:1024F00010B50648FFF7EEF904480068C068C0064A
:1025000003D5BDE8104001F08DB910BDA400002036
:10251000034901220A7008B9002008700878704742
:102520000000002003004FF0010007D139B101295C
:102530000DD0022905D0032906D0042070470020C1
:1025400070474FF4007000E008201080F7E74FF468
:1025500000401060F3E72DE9F0411C4615460E4699
:1025600068B964B14FF4007769023A46304600F02A
:10257000C3FE641E05F1010506F50076F4D10020C6
:10258000BDE8F081034901220A7008B900200870F3
:1025900008787047000000202DE9F0411C461546E0
:1025A0000E4668B964B14FF4007769023A46304686
:1025B00000F03AFF641E05F1010506F50076F4D13E
:1025C0000020BDE8F081FEE7FEE702E008C8121F28
:1025D00008C1002AFAD170477047002001E001C10C
:1025E000121F002AFBD1704710B548B14188021D67
:1025F0008C5A091D00F09AF9844203D0022010BDC4
:10260000012010BD002010BD0020704706484FF08B
:10261000FF318160002141740160C0F80D10C0F8E5
:102620001210416001737047D823002070470000EA
:102630002DE9F05F06004FF00000ADF5825D044625
:10264000054609D077884FF4815ABF1DEB465745A0
:1026500007D84FF001093DE003200DF5825DBDE88C
:10266000F09FA7F5815141F21F02B1FBF2F1491C25
:1026700001F0FF0913E055B3681C8DF80000D04647
:10268000311941F21F020BF1010000BFFDF7DBFD24
:102690004146584600F02DF810B30628DDD14D45CF
:1026A000E9D3BC42D9D26D1C2644EDB2B7EB040489
:1026B0005F468DF8005022463146781CFDF7C3FD79
:1026C000611C384600F015F80628F1D0C5E75046E1
:1026D000874200D838468046024631195846D5E729
:1026E0002DB141F21F010C446D1CEDB2D7E74444FB
:1026F000FAE710B501F0CEF8002010BD2DE9F84F33
:102700004FF000040F460600A2460CD05FB1DFF880
:102710001081D8F8000030B1DFF8089141F21F0BAA
:1027200009F5815577E00320BDE8F88FA868401CC3
:1027300009D1305DA5286DD10020A8600421296051
:102740002873401C66D0286840B1A968335D09F839
:102750000130491CA960401E28605BD1287B30B144
:10276000012834D0022825D0032853D13CE0484624
:10277000C5F81290FFF748FFC8B9D5F812004178A4
:10278000408881B1011DB1FBFBF1491CC5F80D105A
:102790000221697441F21C022A60A0F5805029735D
:1027A0001A38686036E0801C2860012031E0FFF7AD
:1027B0002DFF2FE0686820B10320287301202860D6
:1027C00028E0687CD5F80D10401E8142EFD11548F5
:1027D0000090FFF709FF0028E9D10098D8F8002001
:1027E0004188001D9047E2E7A868401EA86019F8DC
:1027F0000010687C8142DAD1401C687468685946D0
:10280000884201D3296001E028600146401A6860CF
:1028100002202873641CBC4288D3504684E7000021
:1028200038000020B8130020002803D002490860B7
:10283000FFF7ECBE704700003800002070B5C0B054
:102840000D46060012D08DB16C462046FFF7EEFE15
:10285000A5208DF80000A81D0021ADF80250B0F5AC
:10286000815F06D901208DF8010004E0032040B00B
:1028700070BD8DF801102A463146201DFDF7E3FC9E
:10288000BDF802102046091D00F050F8BDF80220E6
:10289000211D50522046FFF7CBFEE8E710B5044655
:1028A0000020E070401EE062204600F01CFF08B1EE
:1028B000042010BD04F22E2000F077FEA0F52A417E
:1028C000553901D0032010BD94F83000E92805D017
:1028D000EB2814D194F83200902810D104F166004E
:1028E00000F058FE0749B1EB002F06D004F182003A
:1028F00000F050FE0449884201D1002010BD0220A2
:1029000010BD0000004641544641543330B500210B
:10291000054B0C4603EB01121568854200D114608B
:10292000491C0229F6D330BD1044002010B50446DE
:102930004FF6FF7000220EE0030A43EA0023A05C7A
:102940005840C0F30313584080EA003080B2C3B24D
:1029500080EA4310521C8A42EED310BD084910B5DC
:102960000B5C002253B901220A540A1801EB8000C3
:10297000127A40680168104688470246104610BD2A
:102980003044002030B4054C231804EB80001B7A3F
:10299000406804691846A44630BC604730440020B3
:1029A00030B4054D2C1805EB8000247A406885680A
:1029B0002046AC4630BC604730440020044A111821
:1029C00002EB8000097A4068426808461047000020
:1029D0003044002030B4054D2C1805EB8000247ADB
:1029E0004068C5682046AC4630BC60473044002093
:1029F0002DE9FF4F91B01D4614464FF4007611A803
:102A0000DDF8788000F0A8FD002803DA0B2015B06F
:102A1000BDE8F08FF54951F8201009B100220A7085
:102A2000C0B20490FFF79AFFC10701D00320EEE780
:102A3000400701D50A20EAE70EAA03210498FFF710
:102A4000A1FF38B90E9828B1B0F5004F02D8411E49
:102A5000084201D001200E90B24624B154453AD329
:102A6000B4F1807F37D8601E044234D1B8FBFAFB42
:102A7000B4FBFAF75FEA4B202C4610907ED00CAAEC
:102A800001210498FFF77EFF002878D112980007F3
:102A90006FEAA0104FEA90690C9848456ED3A0EBFE
:102AA000090086460C90802868D3802F13D812988E
:102AB0004FF6F5728007129840F6F57307D500F0CF
:102AC000070002287ED01298C0077BD001E0C00723
:102AD00001D0022696E0132099E73D000DD1002099
:102AE0004FEA5E480125DFF808C301E06D00401C95
:102AF0003CF8101009B14145F8D9BEFBF5F00AEBDE
:102B00008001C91DB1FBFAF8202103910021079132
:102B1000904233D9B749884230D828E0B4490020E0
:102B200001254FEA1E3C0E3901E06D00401C31F8D2
:102B30001080B8F1000F01D0E045F6D9BEFBF5F0EA
:102B4000984203D9042101EB400006E0012600EB86
:102B500040000321401C01EB50005044401EB0FBDC
:102B6000FAF8012081030390B1FBFAF00790039972
:102B700009EB010000EB0801059001E055E034E1AC
:102B8000079808440E9900EB010C491EACF1010CAA
:102B90002CEA010CACEB0001032E1AD008EB010863
:102BA00000EB0511A1EB090171453ED80399079887
:102BB000AEEB0101A1EB0801081AB0FBF5F00190A2
:102BC000032E00E024E00ED0022E13D0012E2AD0D6
:102BD0002DE0DDF80CC08C44CDF80CC0DDF814C03D
:102BE00061440591DCE7904221D8F7B96F087FF482
:102BF00074AF1AE0904211D93FB94020B0EB450FB5
:102C000003D36F003D0099D188E71298800707D55C
:102C1000032662E76F00802FF4D906E0984206D8B9
:102C2000002FF7D001E0984201D90E20EFE652467E
:102C30000021204600F050FD0B226FA1204600F03D
:102C400041FD514604F10B0000F0BFFD6573039890
:102C500081B204F10E0000F0B8FD01202074032EB3
:102C60000ED0514604F1110000F0AFFD0C99B1F502
:102C7000803F07D289B204F1130000F0A6FD05E001
:102C80000021EFE704F1200000F097FDF8206075C7
:102C90003F2104F1180000F098FDFF2104F11A0013
:102CA00000F093FD494604F11C0000F086FD8027EA
:102CB000032E27D000F04EFC014604F1270000F05F
:102CC0007CFD1FFA88F104F1160000F07EFD84F807
:102CD0002470292084F8260013224AA104F12B0035
:102CE00000F0F0FC04F5FF704AF65521089000F062
:102CF0006CFD01234A4621460498FFF76BFE00282D
:102D000073D124E000F026FC014604F1430000F0FA
:102D100054FD414604F1240000F04FFD022104F16E
:102D20002C0000F04AFD012104F1300000F04DFDBF
:102D3000062104F1320000F048FD292084F840709B
:102D400084F84200132234A104F14700C8E7032E9F
:102D500032D1012309F1060221460498FFF73AFE19
:102D600052460021204600F0B7FC3049204600F0D2
:102D700024FD2F4904F5F27000F01FFD019904F5C0
:102D8000F470491E00F019FD022104F5F67000F000
:102D900014FD4AF65521089800F017FD012309F1AA
:102DA000070221460498FFF715FE012309F10102ED
:102DB00021460498FFF70EFE00212046109A00F0ED
:102DC0008BFC6FF00701032E02D0012E32D032E0CF
:102DD000204600F0F2FC4FF0FF31201D00F0EDFC2A
:102DE0006FF0704104F1080026E073E04800002015
:102DF000DA380008F5FFFF0FEBFE904D53444F53B8
:102E0000352E30004E4F204E414D4520202020468B
:102E100041542020202020004E4F204E414D45207F
:102E2000202020464154333220202000525261415C
:102E3000727241614049204600F0BFFC4746584647
:102E40005F4500D8384680460346DDE90402214646
:102E5000FFF7C0FDF0BB52460021204600F03CFCCD
:102E60000598B7EB080740440590E8D1032E00D041
:102E7000079D58465D4501D9074600E02F46DDE92C
:102E800004023B462146FFF7A5FD18BB0598ED1B44
:102E900038440590EDD1032E05D00C98B0F5803F55
:102EA00003D3062604E00C2602E0022E38D00126C9
:102EB0001298000736D452460021204600F00CFC40
:102EC0004AF65521089800F080FC04F5DF750020D3
:102ED000287000E02EE001216970A970E8702E7161
:102EE0000C9909EB010043F6C161B0FBF1F0FE2142
:102EF00069713F2141EA9001A971E871494605F1E4
:102F0000080000F05AFC05F10C000C9900F055FC8B
:102F10000123002221460498FFF75CFD50B901E02F
:102F20000426C5E7002211460498FFF72BFD002870
:102F30003FF47DAD01206AE5F8FFFF002DE9F74180
:102F400081B0904602980090684600F005FB0400AE
:102F500003D50B2004B0BDE8F0810D4E002756F8D4
:102F600024501DB12846FFF7D1FC2F70019800288E
:102F700000D0077046F8240002D0B8F1010F01D04C
:102F80000020E7E7002201A902A800F027F8E1E706
:102F9000480000208AB2014640F6FF730148FEF760
:102FA000FFB900004C00002001B582B040F6FF7070
:102FB0000090012301AA02A90248FEF74DFB9DF8EB
:102FC00004000EBD4C0000208AB2014640F6FF739B
:102FD0000148FEF78DBA00004C0000202DE9FF41AA
:102FE000002790460E460F6000F0B6FA050003D5A4
:102FF0000B2004B0BDE8F0818A4850F825409CB110
:103000003460207808F0FE0620B16078FFF7D6FC27
:10301000C1070BD02770E8B2B8466070FFF79EFC7E
:10302000C10708D00320E4E70C20E2E70EB1400717
:1030300004D40020DDE71EB1400701D50A20D8E7FF
:10304000002631462046FFF729FC022822D1002520
:103050004FEA0D0704EB051090F8F21100F5F77038
:1030600019B1083000F096FA00E0002047F825007A
:103070006D1C042DEED3002557F8256036B131467E
:103080002046FFF70BFC022801D203E003206D1C51
:10309000042DF1D3042809D002286DD204F13B009D
:1030A00000F083FAB0F5007F66D101E00120A0E7CF
:1030B00004F1460000F079FA18B904F1540000F068
:1030C00069FAA06194F84050A570012D01D0022D3D
:1030D00052D1454394F83D006081E8B3411E084257
:1030E0004AD104F1410000F060FA2081000743D189
:1030F00004F1430000F059FA070004D104F1500034
:1031000000F048FA074604F13E0000F04EFA0100D4
:1031100032D02389481900EB131297422CD3B81AE6
:103120006789B0FBF7F0B8B103274FF6F57C60452F
:1031300000D8022740F6F57C604500D80127801CA6
:103140003244A26231446061C4E90761032F15D0A3
:1031500013B12944616200E00EE0022F1FD000F09D
:10316000010100EB400001EB500000BFA16900F23B
:10317000FF10B1EB502F14D20D203AE704F15A00A2
:1031800000F013FA0028F7D120890028F4D104F1C7
:103190005C0000F0FFF9606260698000E6E74000D3
:1031A000E4E74FF0FF302061E06080202071032FC2
:1031B0002CD104F1600000F0F8F9012826D1711C2F
:1031C000204600F090FA08BB84F8048004F22E2018
:1031D00000F0EBF9A0F52A41553917D104F1300080
:1031E00000F0D8F91049884210D104F5057000F0BC
:1031F000D1F90E49884209D104F5067000F0CAF9E8
:10320000206104F5077000F0C5F9E06005492770FA
:10321000091F0888401C0880E0802046FFF776FBE5
:1032200007E700004800002052526141727241617C
:103230002DE9F0410446184800250E460078002884
:1032400028D1164F24E000BF00F03EF900F086F8C8
:10325000002240213846FDF76DFC2020FFF7A4FE38
:10326000200EFFF7A1FEC4F30740FFF79DFEC4F355
:103270000720FFF799FEE0B2FFF796FE01224021FA
:103280003846FDF757FC00F069F804F580546D1CD2
:10329000B542D9D3BDE8F0814000002000140240BF
:1032A00070B5134D1524002240212846FDF742FC3D
:1032B0002046FFF779FEFF20FFF776FE0446012245
:1032C00040212846FDF736FC0A488470E0070ED1FD
:1032D000002240212846FDF72DFCB720FFF764FEB1
:1032E0002846BDE8704001224021FDF723BC70BD97
:1032F00000140240400000202DE9F0410646154828
:1033000017460C460078002821D1134D0022402199
:103310002846FDF70FFC0320FFF746FE200EFFF7BF
:1033200043FEC4F30740FFF73FFEC4F30720FFF757
:103330003BFEE0B2FFF738FE39463046FFF72AFE83
:103340002846BDE8F04101224021FDF7F3BBBDE86E
:10335000F081000040000020001402402DE9F041FF
:103360000F4E00244FF4C8770520FDF78FFA002296
:1033700040213046FDF7DEFB0520FFF715FEFF205C
:10338000FFF712FE0546012240213046FDF7D2FB31
:10339000641CA4B2E80701D0BC42E5D3BDE8F081CB
:1033A000001402402DE9F0470646C8B2C0F5807708
:1033B0001C480024904600780D46002830D1104665
:1033C000B8452BD93A46304600F092F8A8EB0700F2
:1033D000C1173D443E4400EB1161C1F30F2721F0BA
:1033E000FF01401A1FFA80F84FF480790AE04A463C
:1033F0002946304600F07CF8641CA4B205F58075BF
:1034000006F58076BC42F2D3B8F1000008D002463F
:1034100029463046BDE8F04700F06AB80246F8E7B2
:10342000BDE8F087400000202DE9F05FC1F30B06F6
:10343000DFF890800F0BC6F5805489468346154609
:10344000A24200D8144639038A464FF480524046BF
:10345000FFF752FF002006E0321818F80210FF298B
:1034600003D1401C80B2A042F6D3A04224D25046E1
:103470000121FFF7DDFE002007E000BF1BF8002060
:103480008319401C08F8032080B2A042F6D35146AD
:103490004FF480524FEA0800FFF784FFA5420FD097
:1034A000281BA344A144002685B24FF480547F1CFE
:1034B000A542C8D82C46C6E7224649465846EBE7FF
:1034C000BDE8F09F0E34002010B5084C00224021CA
:1034D0002046FDF72FFB0620FFF766FD2046012260
:1034E000BDE810404021FDF725BB0000001402405C
:1034F0002DE9F04115460C460746FFF7E5FF144E4F
:10350000002240213046FDF715FB0220FFF74CFD5D
:10351000200EFFF749FDC4F30740FFF745FDC4F354
:103520000720FFF741FDE0B2FFF73EFDB0158542F1
:1035300000D9054629463846FFF746FD01224021BD
:103540003046FDF7F7FABDE8F041FFF707BF00008E
:10355000001402400020704710B504464FF0FF30C1
:103560002268002A13D0114600E0491C0B78212B59
:103570000ED33A2BF9D112F8013B303B0A2B06D27D
:103580008A4204D1002B02D1491C1846216010BD8B
:10359000002010BDC178827842EA0121427800788B
:1035A00042EA012140EA012070474178007840EA70
:1035B000012070471CB5FDF7D1FAFEF7B3FCFEF70A
:1035C0008BFB31480024016841F4800101600068F0
:1035D000224600F48000009021463A20FDF746FB89
:1035E0003A20FDF737FBFEF7CBFB2948274901605E
:1035F0004FF4E131C0E901140C21C460C0E9044179
:103600008461C461FEF7EEF900B1FEE7FEF734FB1A
:10361000FEF724FBFFF744FE1D497431A1F134008D
:10362000FEF7E1FB00F0AEF801221AA11A48FFF7FD
:1036300085FC8DF80400012101A800F02BF99DF80C
:1036400004000D2814D10B2114A000F023F94FF42D
:1036500080500F4B00908433002209210DA0FFF70A
:10366000C7F98DF8040018B90B210FA000F012F96A
:103670000B2110A000F00EF9002211A11046FFF757
:103680005DFC00F0F3F8FEE7303802400010014026
:10369000A4000020000000008811002068656C6C08
:1036A0006F20776F7278780068656C6C6F20776F29
:1036B000726C640068656C6C6F20646464646400A0
:1036C000303A0000002A05D011F8013B00F8013B18
:1036D000521EF9D1704700005FFA81F100F8011B1A
:1036E000521EFBD1704770B50446C06A0D460026D5
:1036F000A8420FD0204600F06CF806000AD160788E
:1037000001232A4604F13001FFF74AF908B1751E7A
:103710000126E562304670BD002301461A460120AD
:1037200000F036B81CB502292AD301788DF80010B4
:1037300041788DF8011002D14FF0000001E000F156
:103740000200CDF802000098C2B2012A18D1DDF8BB
:1037500002402068010501D002200DE000F19070C8
:1037600020600121FFF764FDA088216882B204F186
:103770000800FFF717FE0020BDE81C40FFF7CCBF94
:103780001CBD00000148FFF74FB8000025370008B6
:1037900010B51C461346C0B002468DF800208DF8C7
:1037A0000110224619460DF10200FCF74CFDA11C48
:1037B0006846FFF743F840B010BD0170090A417038
:1037C000090A8170090AC17070470170090A4170C5
:1037D00070472DE9F0410446C0780027F8B1E56A4A
:1037E00004F13001607801232A468846FFF7F2F899
:1037F00008B1012713E00020E070206AA169281AAF
:1038000088420CD2A67808E0A069012305446078BC
:103810002A464146FFF7DEF8761E022EF4D23846DD
:10382000BDE8F08138B50D48006801684068009037
:103830000B48006840680B4C20600848FEF71DF8F4
:103840002068C0F581510848FEF758FFBDE83840B0
:103850004FF4815204490148FEF752B9A4000020F8
:10386000281100203C000020EE23002010B54FF46A
:10387000815206490648FEF743F905480068C168C9
:1038800041F01001C160002010BD0000EE230020B7
:10389000A40000208AB210B5014640F6FF7302482A
:1038A000FEF77CF9002010BDA400002000061016D1
:1038B00000061016000000000000000001020304D2
:1038C00006070809000000000102030401000400CB
:1038D000100040000001000200000100020004008E
:1038E0000800100020000000083900080000002037
:1038F0004C000000CA250008543900084C00002084
:10390000F4470000DA250008010000001125000836
:103910008525000857250008992500082525000859
:103920000000000000000000000000000000000097
:103930000100000010000000000000000024F4005E
:103940000000000000000000000000000000000077
:043950000000000073
:04000005080001AD41
:00000001FF
