:020000040800F2
:10000000483A0020C1010008C71D0008591C00081B
:10001000C51D0008CD020008CB2500080000000027
:10002000000000000000000000000000191F000890
:100030008103000800000000E91D00081B1F0008E4
:10004000DB010008DB010008DB010008DB01000820
:10005000DB010008DB010008DB010008DB01000810
:10006000DB010008DB010008DB010008DB01000800
:10007000DB010008DB010008DB010008DB010008F0
:10008000DB010008DB010008DB010008DB010008E0
:10009000DB010008DB010008DB010008DB010008D0
:1000A000DB010008DB010008DB010008DB010008C0
:1000B000DB010008DB010008DB010008DB010008B0
:1000C000DB010008DB010008DB010008DB010008A0
:1000D000DB010008F5240008DB010008DB01000853
:1000E000DB010008DB010008DB010008DB01000880
:1000F000DB010008DB010008DB010008DB01000870
:10010000DB010008DB010008DB010008DB0100085F
:10011000DB010008DB010008DB010008DB0100084F
:10012000DB010008DB010008D1020008DB01000848
:10013000DB010008DB010008DB010008DB0100082F
:10014000DB010008DB010008DB010008DB0100081F
:10015000DB010008DB010008DB010008DB0100080F
:10016000DB010008DB010008DB010008DB010008FF
:10017000DB010008DB010008DB01000800000000D3
:10018000DB010008DB010008DB010008DB010008DF
:10019000DB010008DB010008DB010008DB010008CF
:1001A000DB010008DB010008DB010008DFF80CD0F0
:1001B00000F07AF800480047294A0008483A002031
:1001C0000648804706480047FEE7FEE7FEE7FEE7F1
:1001D000FEE7FEE7FEE7FEE7FEE7FEE7D11F0008C9
:1001E000AD0100082DE9F05F0546002092469B46D0
:1001F00088460646814640241BE02846414647463D
:10020000224600F041F853465A46C01A914110D395
:1002100011461846224600F028F82D1A67EB01080F
:100220004F4622460120002100F01FF817EB00097D
:100230004E41201EA4F10104DFDC484631462A4627
:100240004346BDE8F09F40EA01039B0703D009E065
:1002500008C9121F08C0042AFAD203E011F8013BB2
:1002600000F8013B521EF9D27047202A04DB203AE5
:1002700000FA02F1002070479140C2F1200320FAF9
:1002800003F3194390407047202A04DB203A21FAF7
:1002900002F00021704721FA02F3D040C2F120029F
:1002A0009140084319467047064C074D06E0E06848
:1002B00040F0010394E8070098471034AC42F6D3AD
:1002C000FFF778FF28FC020848FC0208FEE7000060
:1002D000014800F065B900002C01002001681823D6
:1002E000CAB2103AB2FBF3F2054B6FF30901032ACD
:1002F0009B5CC36500D9091D8165084670470000F5
:100300002650000810B5014600208B698A6A4FF01C
:10031000C07453B1B3F5005F15D072B1012A0CD08F
:10032000022A0AD0032A09D104E01AB1012A06D010
:10033000022A03D1C96AC90100D5012010BDC96ACA
:10034000A142FAD010BD002AF7D0012AF2D0022A29
:10035000F3D0032AF3D010BD30B50468256825F426
:1003600080252560046863608368402B036803D0A0
:1003700099600068C26030BD9A600068C16030BD9D
:1003800070470022AFF3008030B50E4B05460120C8
:100390005C7A002C14D1587A1C54587A03EB8000F4
:1003A00045605D7A03F108002A54587A421C5A725B
:1003B000303008703A2048702F208870CC700020B0
:1003C00030BD00003836002030B5D1E901231A4392
:1003D000D1E903352B431A434B690C681A438B69E7
:1003E0001A43D1E90735012C496A046807D01A433A
:1003F0002A436FF30E040A43224302600AE024F406
:10040000F8442B4321430B43416803606FF30E0113
:100410000A434260002030BD426942EA4101416125
:1004200000207047F8B514460546D1E90002104394
:100430008A686FF01F03C96803EB421242EA412148
:1004400008430090286100F07BFB064609E0601C31
:1004500007D024B100F074FB801BA04201D9032017
:10046000F8BDA8698006F2D40020F8BDF0B56FF0A1
:100470000F05D1E9003405EB04145B1E23432E0164
:100480008C682F0306EB042423434FEA054C0C8AA7
:100490008E8ACD68097E4FF07F4E07EB04440CEB4B
:1004A00006560EEB0161012A0CD082683F1107EB62
:1004B00005352B432343334302F070420B43134370
:1004C00083600FE08768084A17402A03A2F580522C
:1004D0003243C5683A43234305F070450B432B4331
:1004E0008260C3600020F0BDFF0F0FFF2DE9F041D7
:1004F0000446876D00F024FB064694F8350000257D
:10050000022806D08020606584F834500120BDE8C0
:10051000F0812068016821F01601016020684169BE
:1005200021F080014161206C08B9A06C20B12068E5
:10053000016821F0080101602068016821F00101D3
:1005400001600BE000F0FCFA801B052806D9202092
:10055000606504F8345F03206070D8E720680068A5
:10056000C007EFD194F85C103F208840B86004F8D1
:10057000345F012060700020C9E790F8351002292F
:1005800003D08021416501207047052180F8351096
:100590000068016821F0010101600020704700003F
:1005A0002DE9F84304464FF00009CDF80090634868
:1005B0004FF41651A56D0068B0FBF1F72E6894F862
:1005C0005C10082000FA01F131420FD021680A685E
:1005D00052070BD50A6822F004020A6094F85C10F6
:1005E0008840A860606D40F00100606594F85C1080
:1005F0004FF0010808FA01F0304208D0216849693B
:10060000090604D5A860606D40F00200606594F8AA
:100610005C1004208840304208D0216809688907AE
:1006200004D5A860606D40F00400606594F85C102B
:1006300010208840304218D021680968090714D575
:10064000A86020680168490304D50068000308D544
:10065000A16C07E00168C90503D4016821F0080115
:100660000160216C09B12046884794F85C10202075
:100670008840304231D021680968C9062DD5A8606C
:1006800094F8350005282068016806D0490347D54D
:10069000006800031DD4616C1CE021F016010160AC
:1006A0002068416921F080014161206C08B9A06C8B
:1006B00020B12068016821F00801016094F85C1005
:1006C0003F208840A86084F8349084F83580216DFC
:1006D0001FE0E16B09B120468847606D00282BD0F0
:1006E000606DC00714D0052084F8350020680168CB
:1006F00021F0010101600098401C0090B84203D82D
:1007000020680068C007F6D184F8349084F83580FA
:10071000E16C002910D001B02046BDE8F043084745
:100720000168C905D5D4016821F01001016084F881
:10073000349084F83580CCE7BDE8F883340000209D
:100740002DE9F041044600F0FBF906465CB10025B6
:1007500084F83450022084F835002068016821F0C4
:10076000010101600DE00120BDE8F08100F0E8F931
:10077000801B052805D920206065032084F83500FA
:10078000F2E720680068C007F0D1226811682048AD
:100790000140D4E901031843D4E903363343184335
:1007A00063691843A3691843E3691843236A18432C
:1007B0000843616A042903D1D4E90B1319430843A0
:1007C000106020684069666A20F0070130460E43D9
:1007D000012704280CD1A06A0643E06A40B12046F4
:1007E000FFF790FD20B14020606584F83570BAE7CE
:1007F000206846612046FFF771FD94F85C203F2198
:1008000091408160656584F835700020ACE7000098
:100810003F8010F02DE9F0410446866D90F83400D9
:10082000002501280DD0012084F8340094F835709B
:100830000020012F07D084F8340002252846BDE8A7
:10084000F0810220FBE7022784F8357060652046BE
:10085000FFF782FD94F85C103F208840B06020686C
:10086000016841F0160101602068416941F0800192
:100870004161206C20B12068016841F008010160ED
:100880002068016841F001010160D7E770B50446B6
:1008900000F056F90546601C02D004480078044474
:1008A00000F04EF9401BA042FAD370BD2800002092
:1008B000F0B5264887B00168002944D101210160C4
:1008C00023480024016841F001010160006802250D
:1008D00000F0010005904FF63F00CDE9000502AAA7
:1008E00003260C2782E8D00069461A4800F03CF83D
:1008F0000D20CDE9000502AA694682E8D00016481D
:1009000000F032F848F23710CDE9000502AA694636
:1009100082E8D000114800F027F84FF68370CDE947
:10092000000502AA694682E8D0000D4800F01CF8D4
:100930004CF20370CDE9000502AA694682E8D000B6
:10094000084800F011F807B0F0BD000020000020BA
:1009500038380240001402400008024000180240EB
:1009600000100240000C02402DE9F84FDFF890B172
:1009700000224FF001084FF0030A4FF00F090BF16E
:10098000040E00BF0B6808FA02F42340A3426ED1A4
:100990004D68022D01D0122D0ED1D50800EB850C2B
:1009A000DCF820505607F70E09FA07F6B5430E6932
:1009B000BE402E43CCF82060066855000F790AFA35
:1009C00005FC07F0030726EA0C06AF403743076033
:1009D0004E68012E05D0022E03D0112E01D0122E0A
:1009E0000ED18768CE6827EA0C07AE403E4386608A
:1009F0004668A6430C79C4F3001494403443446021
:100A0000C4688E6824EA0C04AE402643C6604C6875
:100A1000E4006FD53B4C256845F48045256024688B
:100A200022F0030504F480440094374C2E19D6F8C4
:100A3000084895072F0F09FA07F5AC43334DA84234
:100A400001D100252EE0324DA84201D1012529E037
:100A5000304DA84201D1022524E02F4DA84201D1FA
:100A600003251FE02D4DA84202D104251AE041E0E4
:100A70002B4DA84201D1052514E02A4DA84201D1F1
:100A800006250FE0284DA84201D107250AE0274D91
:100A9000A84201D1082505E0254DA84201D109252C
:100AA00000E00A25BD402543C6F80858DBF80040A1
:100AB0005D464E689C43F60300D51C432C60DEF86F
:100AC000004075464E689C43B60300D51C432C601D
:100AD0000B4D08352C684E689C43F60200D51C432C
:100AE0002C60074D0C352C684E689C43B60200D52F
:100AF0001C432C60521C102AFFF444AFBDE8F88F51
:100B0000003C0140443802400030014000000240F7
:100B10000004024000080240000C024000100240A5
:100B20000014024000180240001C02400020024055
:100B3000002402400AB1816170470904FBE700000C
:100B40000148806870470000280000200248816842
:100B50000278114481607047280000200B4810B5CE
:100B6000016841F400710160016841F48061016035
:100B7000016841F480710160032000F097F80020C3
:100B800000F006F800F024F8002010BD003C024000
:100B900070B50D4D04464FF47A712878B1FBF0F032
:100BA0000A490968B1FBF0F000F04FFE48B9102C7B
:100BB00007D200222146501E00F058F800206C6039
:100BC00070BD012070BD000028000020340000200E
:100BD0001F4808B5016841F480410160006800F4D5
:100BE000804000901A48001F016841F08051016068
:100BF000006800F080500090032000F057F80022B9
:100C000011466FF00B0000F031F8002211466FF032
:100C10000A0000F02BF8002211466FF0090000F0E6
:100C200025F800221146501F00F020F8002211463E
:100C3000101F00F01BF800221146901E00F016F85D
:100C40000022BDE808401146501E00F00FB8000019
:100C50004438024000F01F02012191404009800009
:100C600000F1E020C0F8001170470000F0B40E4B16
:100C70001B680C46C3F30223C3F10705042D00D9FA
:100C80000425191D072901D2002300E0DB1E0126DF
:100C900006FA05F1491E214099409E40761E1640F5
:100CA0003143F0BC01F090B80CED00E0064900F0D3
:100CB000070208684FF6FF03184040EA0220034A83
:100CC00010430860704700000CED00E00000FA05DA
:100CD0002DE9F8431748016841F080510160006830
:100CE000154F00F08050012600903E64FFF728FF6A
:100CF00005464FF47A78114C05E000BFFFF720FF5E
:100D0000401B40450DD86068C003F7D57E64FFF7EF
:100D100017FF0546464607E0FFF712FF401BB042AB
:100D200002D90320BDE8F88360688003F4D5002071
:100D3000F8E700004038024000000E42007000401A
:100D40002DE9F0470E46050065D0DFF81481D8F88C
:100D50000000F7B200F00F00B04207D288F8007030
:100D6000D8F8000000F00F00B04254D128683D4C84
:100D7000810712D5400703D5206840F4E050206079
:100D80002878000703D5206840F460402060206880
:100D9000A96820F0F000084320602878C0072DD013
:100DA000304968680839012812D0022813D0032876
:100DB00011D00968890700292DDA216821F0030183
:100DC00001432160FFF7BCFE814641F2883A0EE004
:100DD00009688903EFE709688901ECE7FFF7B0FECE
:100DE000A0EB0901514502D90320BDE8F087206836
:100DF000696800F00C00B0EB810FEFD1D8F800105B
:100E0000404601F00F01B14207D90770006800F0B9
:100E10000F00B04201D00120E7E72878400705D550
:100E20002068E96820F4E050084320602878000733
:100E300006D52068296920F4604040EAC10020609E
:100E400000F03CF82168084AC1F30311515CC84026
:100E5000064908600020FFF79BFE0020C5E7000060
:100E6000003C0240083802402E50000834000020A8
:100E7000014800687047000034000020044805491C
:100E800000680968044AC1F38221515CC840704778
:100E900034000020083802403E500008044805494C
:100EA00000680968044AC1F34231515CC840704788
:100EB00034000020083802403E500008154810B5A4
:100EC000006810F00C02144813D01449042A0FD003
:100ED000082A0ED10F4C241F2268236802F03F021B
:100EE0005B0207D52068C0F38810A0FB010106E073
:100EF000084610BD2168C1F38811A1FB0001002341
:100F0000FFF770F92168C1F30141491C4900B0FBAA
:100F1000F1F010BD083802400024F40040787D0153
:100F20002DE9F84F050076D02878DFF8F8B2BE4CEE
:100F3000C00749D0DBF800105846C1F381010129F0
:100F400008D00068C0F3810002280AD1201D006883
:100F5000400206D52068800336D568680028E2D0B4
:100F600032E06868B0F5803F10D0B0F5A02F20685F
:100F700010D020F480302060206820F48020206091
:100F80006868A0B1FFF7DCFD06460CE0206840F47D
:100F90008030F4E740F480202060F7E7FFF7D0FDD1
:100FA000801B642873D820688003F7D50CE0FFF716
:100FB000C7FD064605E000BFFFF7C2FD801B6428A1
:100FC000F0D820688003F7D42878DFF860828007A3
:100FD0004FF000093ED5DBF80010584611F00C0F19
:100FE00009D00068C0F3810002280BD18D48001F92
:100FF0000068400206D42068800715D5E8680128FB
:1010000009D111E0E868B8B10120C8F80000FFF785
:1010100097FD064605E002E1FFF792FD801B0228DE
:10102000C0D820688007F7D52068296920F0F8002B
:1010300040EAC10020600DE0C8F80090FFF780FD95
:10104000064604E0FFF77CFD801B02281FD82068BD
:101050008007F7D42878000722D5724E7448696952
:101060006C3671B101210160FFF76AFD074604E0AB
:10107000FFF766FDC01B022809D830688007F7D546
:101080000EE0C0F80090FFF75BFD074605E083E047
:10109000FFF756FDC01B02287ED830688007F7D4C2
:1010A0002878400768D5DFF87CA100270AF1380AC4
:1010B000DAF80000C0000BD4DAF8001041F08051DB
:1010C000CAF80010DAF80000012700F08050009004
:1010D000584E3068C00510D4306840F480703060DD
:1010E000FFF72EFD009005E0FFF72AFD0099401A5A
:1010F000022851D83068C005F6D54A4EA86868362F
:1011000001280FD00528306810D020F00100306091
:10111000306820F004003060A868B8B1FFF710FD17
:1011200000900FE0306840F00100F4E740F0040068
:101130003060F7E7FFF704FD0099411A41F288306B
:10114000814264D830688007F4D50EE0FFF7F8FCE0
:10115000009007E0FFF7F4FC0099411A41F2883053
:10116000814254D830688007F4D42FB1DAF80010E7
:1011700021F08051CAF80010A869C0B3DBF8001054
:10118000C1F3810102294AD00228484607D0C8F895
:101190006000FFF7D5FC00E039E005463AE047463D
:1011A000C8F86000FFF7CCFC064604E0FFF7C8FC77
:1011B000801B02282BD820688001F7D4D5E90701CD
:1011C0000843A96A1C4A490802EB01416A6A41EADC
:1011D0008211084395F82C1040EA01611148001F64
:1011E000016001203866FFF7ABFC054605E014E01E
:1011F000FFF7A6FC401B022809D820688001F7D51C
:101200000BE000BFFFF79CFC401B022802D9032023
:10121000BDE8F88F20688001F4D40020F8E70120B1
:10122000F6E700000838024000380240000047425C
:10123000800E4742007000400000FFFF70B50D4671
:10124000040003D094F82C0010B107E0012070BD19
:10125000002084F82D00204600F011F8022084F8C8
:101260002C00211D2068FFF7AFF8D4E900022946C1
:10127000FFF7FCF8012084F82C00002070BDFFF778
:1012800017BB10B5044690F82C00022809D00220A4
:1012900084F82C002068FFF7BFF8012084F82C00A8
:1012A000002010BD70B5044690F82C000D460228B1
:1012B0000DD0022084F82C002068FFF7B3F82868CE
:1012C000022805D05FF0010084F82C00002070BDDA
:1012D0000520F9E770B5040005D00025A56294F853
:1012E000510010B106E0012070BD84F85050204636
:1012F00000F030F8022084F851002068016821F0E5
:1013000040010160D4E901010843D4E9031211430B
:10131000084361690843218B01F400710843E169C6
:101320000843216A0843A16A084321680860A0694C
:10133000042101EA1040616A08432168486020687E
:10134000C16921F40061C1616565012084F8510023
:10135000002070BD00B500680E4987B0884217D1E3
:101360000D480021026842F480120260006800F417
:10137000801005904FF4607000900220CDE90101CB
:10138000032003900520049069460448FFF7ECFA17
:1013900007B000BD00500140443802400014024034
:1013A0002DE9F84F044640680026984617460D463A
:1013B0004FF00409B0F5827F01D1A06890B194F894
:1013C0005000012819D04FF0010B84F850B0FFF7FE
:1013D000B7FB009094F851004FF0000A01280ED09E
:1013E00002267FE084F8519013460A462046CDF845
:1013F000008000F031F9BDE8F88F0220FBE7002DF6
:101400006FD0002F6DD084F85190C4F854A0A5631C
:10141000A787E787C4F830A0A4F834A0A4F836A0C2
:10142000C4F840A0C4F844A0A0684FF40047B842F4
:1014300004D12068016821F48041016020680168BE
:10144000490603D4016841F040010160E068B8B189
:1014500033E020688168C90706D0007B05F8010BDE
:10146000E08F401EE0870BE0B8F1000F23D0B8F109
:10147000FF3F05D0FFF764FB0099411A41451AD29E
:10148000E08F0028E5D11BE020688168C90706D0FD
:10149000C06825F8020BE08F401EE0870DE0B8F130
:1014A000000F08D0B8F1FF3F07D0FFF749FB0099C4
:1014B000411A414501D3032614E0E08F0028E3D10F
:1014C0006068B0F5827F0AD1A068B84202D0B0F55A
:1014D000806F04D12068016821F040010160606DD7
:1014E00000B1012684F851B084F850A0304682E75C
:1014F0002DE9F84F044690F850000026994617460B
:101500000D4601280DD04FF0010B84F850B0FFF7C5
:1015100017FB804694F85100B246012804D00226F9
:1015200094E00220BDE8F88F002D7BD0002F79D009
:10153000032084F85100C4F854A02563A786E786E9
:10154000C4F838A0A4F83CA0A4F83EA0C4F844A075
:10155000C4F840A0A068B0F5004F04D1206801682D
:1015600041F48041016020680168490603D40168A4
:1015700041F040010160E068B0F5006F606804D0A0
:1015800030B3E08E012823D03EE010B1E08E012878
:101590001AD135F8021B206805E0206881688907A8
:1015A00006D535F8021BC160E08E401EE0860BE0D8
:1015B000B9F1000F34D0B9F1FF3F05D0FFF7C0FA01
:1015C000A0EB080149452BD2E08E0028E5D11EE0B2
:1015D000216815F8010B087306E020688168890707
:1015E00006D515F8011B0173E08E401EE0860BE066
:1015F000B9F1000F14D0B9F1FF3F05D0FFF7A0FA01
:10160000A0EB080149450BD2E08E0028E5D14B46FE
:10161000012202212046CDF8008000F032FC10B1FA
:10162000032613E011E042464946204600F019FC2B
:1016300018B101262020606508E0A06818B920686C
:10164000C16880680090606D00B1012684F851B0D7
:1016500084F850A0304665E72DE9F84F044690F82D
:10166000500000260A9F9A4693460D464FF0010807
:1016700001280ED0012084F85000FFF761FA81465E
:1016800094F85100616801280CD0B1F5827F07D130
:1016900002E00220BDE8F88FA16809B9042801D052
:1016A0000226BDE055B1BBF1000F07D0BAF1000F23
:1016B00004D094F85100012802D004E00126AFE0E4
:1016C000052084F8510000206065C4F838B0A4F803
:1016D0003EA0A4F83CA02563A4F836A0A4F834A04A
:1016E0002064606420680168490603D4016841F001
:1016F00040010160E068B0F5006F606804D0E8B3B5
:10170000E08E01283BD06AE010B1E08E01282ED196
:10171000216835F8020BC860E08E401EE08626E0A6
:10172000B8F1000F0DD0E08E58B1206881688907AC
:1017300007D535F8021BC160E08E401EE0864FF0F1
:101740000008E08F58B120688168C90707D0C068D9
:101750002BF8020BE08F401EE0874FF00108781C49
:1017600005D0FFF7EDF9A0EB0900B84246D2E08EB4
:101770000028D5D1E08F0028D2D136E0FFE72168DC
:1017800015F8010B0873E08E401EE08627E000BFCD
:10179000B8F1000F0DD0E08E58B12068816889073C
:1017A00007D515F8011B0173E08E401EE0864FF04F
:1017B0000008E08F58B120688168C90707D0C06869
:1017C0000BF8010BE08F401EE0874FF00108781CFA
:1017D00005D0FFF7B5F9A0EB0900B8420ED2E08EB4
:1017E0000028D5D1E08F0028D2D13B46012202212A
:1017F0002046CDF8009000F044FB08B103260FE02E
:101800004A463946204600F02CFB18B1012620201C
:10181000606505E0A06818B92068C168806800901C
:10182000012084F85100002084F85000304631E750
:101830004FF0E0210428086903D020F0040008617B
:10184000704740F00400FAE7704710B5401EB0F151
:10185000807F01D3012010BD4FF0E02460610F2193
:10186000601700F0B1FA0020A0610720206100207D
:1018700010BD10B5FFF7E8FF10BD10B504460068B5
:10188000416994F83920C1F3C011212A0BD151B11B
:10189000416921F080014161206B08B1FEF726FE0D
:1018A000204600F01DFC2068416994F83A20C1F3FD
:1018B0008011222A0BD151B1416921F040014161CF
:1018C000606B08B1FEF712FE204600F0FBFB002023
:1018D00010BD704770B5026804461068D16853693E
:1018E00010F00F0F50D003F0010501F4907635434E
:1018F0005DD0C20705D0CA0503D5E26B42F00102F4
:10190000E263420705D5DA0703D0E26B42F0020238
:10191000E263820705D5DA0703D0E26B42F00402E6
:10192000E263020705D5DA0703D0E26B42F0080252
:10193000E263E26B002A33D0800604D5880602D524
:10194000204600F0D6FB20684069E16BC0F38010B0
:10195000090700D428B3204600F0B4FB2068416991
:1019600049061AD5416921F040014161606BA0B17F
:101970001B490165606BFEF700FE002810D0606B0C
:10198000016DBDE870400847830610D58B060ED563
:101990002046BDE8704000F0ACBB2046FFF799FF41
:1019A00070BD2046FFF795FF0020E06370BD030681
:1019B00006D50B0604D52046BDE8704000F036BDC4
:1019C0004006F3D54806F1D5D168204621F0400104
:1019D000D160202184F8391000F03DF970BD00007D
:1019E0002520000870B5040004D094F839000025C3
:1019F00010B106E0012070BD84F83850204600F098
:101A000023F8242084F839002068C16821F40051AB
:101A1000C160204600F0B4FB2068016921F49041C8
:101A200001612068416921F02A0141612068C16893
:101A300041F40051C160E563202084F8390084F846
:101A40003A00002070BD000070B5064600682049CD
:101A500086B088423AD11F480025016841F0100144
:101A600001600068694600F0100005904FF4C06006
:101A70000090022001900120029003200390072093
:101A800004901548FEF770FF154C144820604FF085
:101A90000060C4E901054014C4E903506561C00158
:101AA000A561C4E9075020466562FEF749FE18B1FA
:101AB000B9210CA000F08AFD7463002201212520C9
:101AC000A663FFF7D3F82520FFF7C4F806B070BD72
:101AD00000100140443802400000024040640240CF
:101AE0002C0100202E2E2F5372632F73746D33320E
:101AF000663478785F68616C5F6D73702E63000088
:101B0000F8B5044690F83A0020283CD1C1B3BAB3E6
:101B100094F83800012836D0012084F83800A162FA
:101B2000A2850025E563222084F83A00636B1748FC
:101B3000D863636B16481864636B1648D864606B8F
:101B4000134605650846666B216802463046091D46
:101B5000FEF760FE206801684168009184F8385003
:101B6000C16841F48071C1602068416941F00101A0
:101B700041612068416941F0400141610020F8BDA8
:101B8000FFE70120FBE70220F9E700007F200008C3
:101B9000BB20000835200008704770472DE9F84346
:101BA000044690F839001F4616460D46202850D1AD
:101BB000A5B19EB194F8380001284AD0012084F8DC
:101BC00038004FF00008C4F83C80212084F8390028
:101BD000FEF7B6FFA6848146E68426E00120BDE834
:101BE000F883E08C401EE084A0684B46B0F5805F2F
:101BF0004FF000024FF080012046009703D000F024
:101C000046FCE8B90DE000F042FCC8B9288821681C
:101C1000C0F308004860206908B16D1C05E0AD1CE8
:101C200003E0216815F8010B4860E08C0028D8D14A
:101C30004B46002240212046009700F028FC08B1C6
:101C40000320CCE7202084F8390084F83880002075
:101C5000C5E70220C3E77047FEE7000010B504495E
:101C60000448FEF78EFB0249491E087010BD0000B3
:101C7000190000200400002000B5164887B0144960
:101C80000022C0E900120121816008211023C0E96F
:101C90000313402343614FF4C073C0E906320A02C4
:101CA00002624A0242628A0282620220CDE9000197
:101CB0000621029103910421CDE9041006906946A2
:101CC0000448FFF7BBFA002800D0FEE707B000BDCC
:101CD000400100A0E800002030B5274887B000246C
:101CE000016841F020010160016801F020010591C7
:101CF000016841F080010160016801F080010591F7
:101D0000016841F004010160016801F004010591DE
:101D1000016841F040010160016801F04001059156
:101D2000016841F010010160016801F010010591A6
:101D3000016841F008010160016801F008010591A6
:101D4000016841F00101016000680C4D00F00100E4
:101D50000590012240212846FEF7ECFE402000902D
:101D60000120CDE901040220039069462846FEF7D0
:101D7000FBFD07B030BD00003038024000140240C7
:101D8000704700000E4810B50C4901604FF4827195
:101D9000416000218160C1604FF400720161C0E9BF
:101DA0000512C1610162416281620A21C162FFF7CD
:101DB00091FA002800D0FEE710BD0000005001405D
:101DC00050000020FEE770470907090E002806DAD8
:101DD00000F00F0000F1E02080F8141D704700F1C2
:101DE000E02080F80014704770472DE9F84F0C464A
:101DF0000025012610270095C4E90067C4E90265A3
:101E00004FF4805982464A46FFF74CFA6420FEF7A9
:101E10003DFD0220C4E90007C4E902654A462146A7
:101E20005046FFF73FFA03204FF00408E56084E8CE
:101E300081014A4621465046FFF734FA4FF40C70B0
:101E40000090C4E90260C4E900874A462146504632
:101E5000FFF728FA5046BDE8F84F40F26A51FFF705
:101E600010BA38B50B46009204460022802100F0DB
:101E700008F8002804D0606D40F020006065032061
:101E800038BD2DE9F0411D4617460E460446DDF8E3
:101E9000188035E0681C33D02DB1FEF751FEA0EB61
:101EA0000800A8422CD32068416821F0E00141607D
:101EB0006068B0F5827F0BD1A068B0F5004F02D00A
:101EC000B0F5806F04D12068016821F04001016005
:101ED000A06AB0F5005F0AD1206801684DF6FF7274
:101EE000114001602068016841F400510160012047
:101EF00084F85100002084F850000320BDE8F081F0
:101F00002068806836EA000004D00020B842C1D1C1
:101F10000020F3E70120F9E7704710B5FEF716FE41
:101F2000BDE81040FFF7A5BC30B5274893B00025A9
:101F3000016841F080510160006800F0805011900C
:101F40002248016841F4404101600068022400F425
:101F50004040119001200090000401908001CDE9E3
:101F60000640192008904FF4B470CDE9090404200C
:101F70000B906846FEF7D4FF00B1FEE7FEF7A8FE1F
:101F800000B1FEE70CA90F2081E831004FF4A0500A
:101F90000F904FF48050109005210CA8FEF7D0FE52
:101FA00000B1FEE7FEF764FF4FF47A71B0FBF1F089
:101FB000FFF74BFC0420FFF73BFC00221146501EAC
:101FC000FEF754FE13B030BD4038024000700040B0
:101FD0001048016841F4700101600F48016841F048
:101FE000010101600C4A00210832116002680B4BAC
:101FF0001A400260031D0A4A1A60026822F4802215
:10200000026005480C3001600249580680390860BA
:102010007047000088ED00E000380240FFFFF6FE48
:102020001030002410B5806B0021C185C184FFF7FA
:1020300050FC10BD70B5846B2068406994F839106D
:10204000C0F3C0100025212904D118B1E584204631
:1020500000F046F82068406994F83A10C0F3801008
:10206000222904D118B1E585204600F02BF8E06B59
:1020700040F01000E0632046FFF72BFC70BD10B568
:102080000146806B09680968C90513D40021C18520
:102090000168CA6822F48072CA6001684A6922F045
:1020A00001024A6101684A6922F040024A61202126
:1020B00080F83A10FFF770FD10BD10B5806BFFF788
:1020C0006CFD10BD0168CA6822F49072CA60016894
:1020D0004A6922F001024A61202180F83A107047D3
:1020E0000168CA6822F0C002CA60202180F8391055
:1020F000704710B590F83A10222901D0022010BD87
:102100008168B1F5805F11D00169002901681FD095
:10211000496801F07F03816A4A1C82620B70C18D9D
:10212000491E0904090CC18518D026E00269816A9C
:10213000002A0268526805D0D2B20A80816A491C1E
:102140008162ECE7C2F308020A80816A891CF7E722
:102150004A68816A4B1C83620A70E0E70168CA68BA
:1021600022F49072CA6001684A6922F001024A6151
:10217000202180F83A10FFF70FFD002010BD00006D
:102180002DE9F04104460068016921F44052E168FC
:10219000114301612168C86849F20C6290432369C8
:1021A000A268E5691A4363692B431A430243CA6074
:1021B0002168486920F44072A06910434861E169D0
:1021C0006425B1F5004F9748974A21684FF03208CF
:1021D0003FD0914201D081427CD1FEF75FFE00EBFF
:1021E000C00101EB001061688900B0FBF1F6FEF759
:1021F00055FE00EBC00101EB001061688900B0FBE7
:10220000F1F0B0FBF5F06FF01801484306EB8001E8
:1022100008EB0110B0FBF5F000F0F006FEF73EFE13
:1022200000EBC00101EB001061688900B0FBF1F028
:10223000B0FBF5F006EB0016FEF730FE00EBC00138
:1022400001EB001061688900B0FBF1F7FEF726FE94
:10225000D2E0914201D081423DD1FEF71FFE00EB5A
:10226000C00101EB001061684900B0FBF1F0B0FB68
:10227000F5F00601FEF712FE00EBC00101EB0010C5
:1022800061684900B0FBF1F7FEF708FE00EBC00102
:1022900001EB001061684900B0FBF1F0B0FBF5F014
:1022A0006FF01801484307EB800108EBC100B0FB59
:1022B000F5F000F0F80006EB4006FEF7EFFD00EB4E
:1022C000C00101EB001061684900B0FBF1F7FEF7B7
:1022D000E5FD3CE055E0FEF7D1FD00EBC00101EB70
:1022E000001061684900B0FBF1F0B0FBF5F00601A9
:1022F000FEF7C4FD00EBC00101EB0010616849006E
:10230000B0FBF1F7FEF7BAFD00EBC00101EB0010E6
:1023100061684900B0FBF1F0B0FBF5F06FF0180117
:10232000484307EB800108EBC100B0FBF5F000F07B
:10233000F80006EB4006FEF7A1FD00EBC00101EB43
:10234000001061684900B0FBF1F7FEF797FD00EB64
:10235000C00101EB001061684900B0FBF1F0B0FB77
:10236000F5F06FF01801484307EB800108EBC1005E
:10237000B0FBF5F000F00700216830448860BDE84C
:10238000F081FEF77BFD00EBC00101EB00106168FE
:102390008900B0FBF1F6FEF771FD00EBC00101EB27
:1023A000001061688900B0FBF1F0B0FBF5F06FF050
:1023B0001801484306EB800108EB0110B0FBF5F073
:1023C00000F0F006FEF75AFD00EBC00101EB001033
:1023D00061688900B0FBF1F0B0FBF5F006EB001688
:1023E000FEF74CFD00EBC00101EB001061688900B5
:1023F000B0FBF1F7FEF742FD00EBC00101EB00106E
:1024000061688900B0FBF1F0B0FBF5F06FF01801E6
:10241000484307EB800108EB0110B0FBF5F000F03A
:102420000F00A9E7001401400010014090F8391096
:10243000212901D0022070478168B1F5805F016ACF
:102440000BD04A1C0262026809785160C18C491E97
:102450000904090CC1840ED017E009880268C1F391
:102460000801516001690029016A02D0491C01621A
:10247000ECE7891CFBE70168CA6822F08002CA60A9
:102480000068C16841F04001C160002070472DE93B
:10249000F041984617460E460446069D1DE0681C0E
:1024A0001BD02DB1FEF74CFBA0EB0800A84214D9BD
:1024B0002068C16821F4D071C1602068416921F0B1
:1024C00001014161202084F8390084F83A0000209D
:1024D00084F838000320BDE8F0812068006836EAFF
:1024E000000004D00020B842D9D00020F3E701203A
:1024F000F9E7000010B50648FFF7ECF9044800685A
:10250000C068C00603D5BDE8104002F02FBD10BD65
:10251000A8000020034901220A7008B900200870B1
:10252000087870470000002003004FF0010007D139
:1025300039B101290DD0022905D0032906D0042084
:102540007047002070474FF4007000E008201080B2
:10255000F7E74FF400401060F3E72DE9F0411C4627
:1025600015460E4668B964B14FF4007769023A46E1
:10257000304601F0B9FF641E05F1010506F500764D
:10258000F4D10020BDE8F081034901220A7008B9A6
:102590000020087008787047000000202DE9F04105
:1025A0001C4615460E4668B964B14FF400776902BF
:1025B0003A46304602F030F8641E05F1010506F592
:1025C0000076F4D10020BDE8F081FEE7FEE70000D0
:1025D0000FB4054B10B503A9044A029800F09EF809
:1025E00010BC5DF814FB0000B94700084C00002047
:1025F00002E008C8121F08C1002AFAD170477047CC
:10260000002001E001C1121F002AFBD1704710B564
:1026100048B14188021D8C5A091D00F061FC8442BA
:1026200003D0022010BD012010BD002010BD0020ED
:102630007047000006484FF0FF318160002141746F
:102640000160C0F80D10C0F81210416001737047AE
:10265000E0130020704700002DE9F05F06004FF006
:102660000000ADF5825D0446054609D077884FF439
:10267000815ABF1DEB46574507D84FF001093DE091
:1026800003200DF5825DBDE8F09FA7F5815141F271
:102690001F02B1FBF2F1491C01F0FF0913E055B331
:1026A000681C8DF80000D046311941F21F020BF171
:1026B000010000BFFDF7C7FD4146584600F05FFA34
:1026C00010B30628DDD14D45E9D3BC42D9D26D1CEB
:1026D0002644EDB2B7EB04045F468DF80050224665
:1026E0003146781CFDF7AFFD611C384600F047FA13
:1026F0000628F1D0C5E75046874200D838468046C4
:10270000024631195846D5E72DB141F21F010C445C
:102710006D1CEDB2D7E74444FAE700002DE9FF4F06
:102720008DB00F460546002606E025280BD0DDE9D2
:102730000F1290476D1C761C28780028F5D111B037
:102740003046BDE8F08F0024A246A1460122EC49A4
:1027500000E0044315F8013F203B02FA03F0084271
:10276000F7D128782A2810D06FF02F022878A0F10E
:102770003001092914D80AEB8A0102EB410144F027
:10278000020400EB010A6D1CF0E701CF5FEA000ACA
:1027900003D544F40054CAF1000A44F002046D1C4D
:1027A00028782E2817D115F8010F44F004042A28A0
:1027B0000ED06FF02F022878A0F1300109290AD835
:1027C00009EB890102EB410100EB01096D1CF2E705
:1027D00057F8049B6D1C28786C280FD006DC4C2819
:1027E00017D068280DD06A2814D104E0742810D0BE
:1027F0007A280FD10DE044F400140AE044F4801468
:1028000001E044F440146978814202D104F5801457
:102810006D1C6D1C2A786E2A1FD00CDC632A31D007
:1028200004DC002A8BD0582A11D1A3E0642A68D096
:10283000692A0CD165E0732A2ED004DC6F2A73D08C
:10284000702A04D19BE0752A6FD0782A6ED010468A
:10285000DDE90F129047761C50E1C4F302500228C4
:1028600006D0032809D0042801CF09D0066045E12D
:1028700001CFF117C0E9006140E101CF06803DE1E1
:1028800006703BE117F8040B8DF8000000208DF86E
:102890000100EB46012003E057F804BB4FF0FF3086
:1028A00061074FF0000102D40DE008F101018846F4
:1028B00049450FDA8045F8DB1BF808100029F4D1F0
:1028C00008E008F1010188468142FADB1BF8081094
:1028D0000029F6D1DDE90F23AAEB08008146214645
:1028E00000F036F9304400EB080604E0DDE90F1291
:1028F0001BF8010B9047B8F10108F7D22146484672
:10290000F7E00A21C4F302534FF0000B0891022BA9
:1029100004D001CFC117032B09D00AE0FF1D27F017
:102920000707F7E8020108E032E01FE020E000B20C
:10293000C117042B01D140B2C117031E71F100036E
:1029400007DA4FF0000CD0EB0C006CEB01012D23EB
:1029500002E0230504D52B238DF82430012303E066
:10296000E30701D02023F7E7984658E00A2110E05A
:1029700010210EE010204FF0000B08900CE0102109
:102980004FF0000B44F004044FF00809089103E0F5
:1029900008214FF0000B0891C4F30253022B04D01E
:1029A00001CF0021032B06D006E0FF1D27F007070B
:1029B000F7E8020103E080B2042B00D1C0B24FF06F
:1029C000000823072BD5702A07D0DDF820C08CF033
:1029D000100C5CEA0B0C05D00EE040238DF824307F
:1029E000012308E050EA010306D030238DF824309B
:1029F0008DF8252002239846DDF820C08CF0080CC5
:102A00005CEA0B0C0BD150EA010301D1630706D538
:102A100030238DF824304FF00108A9F10109582A1C
:102A200004D038A20B9208AA0A920BE03AA2F9E766
:102A30005B46089AFDF7D6FB0B9B9B5C0A9A521EDD
:102A40000A92137050EA0102F2D10A98ADEB00002D
:102A500000F1200B600702D524F4803401E04FF030
:102A60000109D94502DDA9EB0B0000E0002000EBD5
:102A70000B0141440890AAEB010AE00306D4DDE90A
:102A80000F232146504600F063F806444FF000093A
:102A900008E009A911F80900DDE90F12904709F1D2
:102AA0000109761CC145F4DBE0030CD5DDE90F23F9
:102AB0002146504600F04CF8064404E0DDE90F12D0
:102AC00030209047761C0899481E08900029F5DCB4
:102AD00008E00A980A990078491C0A91DDE90F126A
:102AE0009047761CBBF10001ABF1010BF1DC2146F4
:102AF0005046DDE90F2300F019F806446D1C1BE673
:102B000009280100303132333435363738396162C3
:102B10006364656600000000303132333435363787
:102B20003839414243444546000000002DE9F04158
:102B3000044600251E461746880404D405E039469D
:102B40002020B0476D1C641EF9D52846BDE8F081F1
:102B50002DE9F041044600251E469046C80301D5E4
:102B6000302700E02027880404D505E04146384698
:102B7000B0476D1C641EF9D52846BDE8F08110B53C
:102B800002F02CFA002010BD2DE9F84F4FF00004A0
:102B90000F460600A2460CD05FB1DFF81081D8F8CE
:102BA000000030B1DFF8089141F21F0B09F58155A3
:102BB00077E00320BDE8F88FA868401C09D1305D9C
:102BC000A5286DD10020A860042129602873401C2D
:102BD00066D0286840B1A968335D09F80130491C06
:102BE000A960401E28605BD1287B30B1012834D019
:102BF000022825D0032853D13CE04846C5F812905E
:102C0000FFF715FDC8B9D5F812004178408881B1A9
:102C1000011DB1FBFBF1491CC5F80D1002216974BF
:102C200041F21C022A60A0F5805029731A386860AE
:102C300036E0801C2860012031E0FFF7FBFC2FE02C
:102C4000686820B1032028730120286028E0687C90
:102C5000D5F80D10401E8142EFD115480090FFF7C6
:102C6000D6FC0028E9D10098D8F800204188001D42
:102C70009047E2E7A868401EA86019F80010687C39
:102C80008142DAD1401C687468685946884201D391
:102C9000296001E028600146401A6860022028731C
:102CA000641CBC4288D3504684E7000038000020F2
:102CB000C0030020002803D002490860FFF7BABC17
:102CC000704700003800002070B5C0B00D46060007
:102CD00012D08DB16C462046FFF7BCFCA5208DF8C4
:102CE0000000A81D0021ADF80250B0F5815F06D9A3
:102CF00001208DF8010004E0032040B070BD8DF884
:102D000001102A463146201DFDF79DFABDF802103C
:102D10002046091D00F0E4F8BDF80220211D5052A4
:102D20002046FFF799FCE8E710B504460020E07064
:102D3000401E2063204601F064FF08B1042010BD4E
:102D400004F2322001F06AFEA0F52A41553901D083
:102D5000032010BD94F83400E92805D0EB2814D1E5
:102D600094F83600902810D104F16A0001F04BFE6F
:102D70000749B1EB002F06D004F1860001F043FEB5
:102D80000449884201D1002010BD022010BD00007E
:102D9000004641544641543300E0401C02780AB1D9
:102DA0008A42FAD1D0B27047F0B50022144D1346D2
:102DB00005EB021426685EB10768BE4209D1666859
:102DC0008768BE4205D1A4684669B44204D000E0D9
:102DD0000123521C022AEBD3022A01D069B904E074
:102DE0004BB9022907D01220F0BD05EB02108089F3
:102DF000B0F5807F01D00020F0BD1020F0BD0000B4
:102E00001834002030B50021054B0C4603EB0112AD
:102E10001568854200D11460491C0229F6D330BDE3
:102E2000183400200268490AC06A5289B1FBF2F1E5
:102E3000001D04C81AB1914203D3891AF8E7002093
:102E400070470068084470478269891E921E8A4252
:102E500001D800207047C26A408901FB00207047FA
:102E60002DE9F05F82460C4601F11A0001F0D6FD13
:102E700078BB2078012700F03F00401E00EB800166
:102E8000DFF8589001EBC00500264FF6FF7B00BF2E
:102E900019F80600204401F0C1FD80466FB1FF2DF6
:102EA00017D201F04FF907463AF815006D1C01F0F2
:102EB00049F987420DD1474601E0D84509D1761C32
:102EC0000D2EE5D32078400606D52FB13AF815002F
:102ED00010B10020BDE8F09F0120FBE7FCFB0208D9
:102EE00010B504464FF6FF7000220EE0030A43EAD5
:102EF0000023A05C5840C0F30313584080EA003020
:102F000080B2C3B280EA4310521C8A42EED310BD95
:102F10002DE9F04105680F00804606D001F0A2FCC3
:102F2000022809D20120BDE8F0812E6916B1A869F6
:102F3000B04207D8012605E0411CF4D0A9698142BE
:102F4000F1D83E463446A869641CA04202D8022447
:102F5000022E0AD32146404601F084FC38B10128F4
:102F6000E1D0411CDFD0B442EDD10020DBE74FF0CF
:102F7000FF3632462146284601F0ADFE30B957B142
:102F800022463946284601F0A6FE20B101280FD07E
:102F900001242046C7E72C61D5E90501891E884236
:102FA00001D8401E6861287940F001002871F0E7DF
:102FB0003446EEE72DE9F84F824600680F6800249A
:102FC000C66888462546785D6D1C20282AD32F28A0
:102FD00023D05C2821D0FF2C49D2A0F181017D298A
:102FE0000BD8795D6D1C01EB0020A1F1400280B28D
:102FF0003F2A02D380397F2939D2012101F07CF8A0
:103000005FEA000933D0B9F1800F12D2014675A0F2
:10301000FFF7C2FE58BB0CE06D1C795D2F29FBD079
:103020005C29F9D07A19C8F80020202805D2042597
:103030000FE026F81490641CC5E7002509E000BFE6
:1030400006EB440030F8020C202801D02E2802D1D3
:10305000641E002CF4D1002026F814003CB10B2291
:1030600020210AF1240001F0C5FD002703E006201D
:10307000BDE8F88F7F1C36F817002028FAD02E28DC
:10308000F8D01FB145F0030500E0641E2CB106EB3B
:10309000440030F8020C2E28F7D14FF000094FF011
:1030A000080BCDF8009000BF36F8170007F10107B4
:1030B0005FEA000824D0B8F1200F04D0B8F12E0F39
:1030C00004D1A74202D045F00305EDE7009858452A
:1030D00001D2A74219D1BBF10B0F0FD0A74201D0EB
:1030E00045F003050CD84FF0080000904FEA8960C6
:1030F00027464FF00B0B4FEA1069D5E745F0030563
:103100009AF82400E52849D04BE04046B8F1800FFA
:1031100007D301F017F8002100F0EEFF804645F0DC
:103120000205B8F1FF0F13D90099ABF101008142FC
:1031300004D345F00305CDF800B0B5E70AEB010074
:103140004FEA182280F824200098401C00901CE0D0
:10315000B8F1000F04D0014625A0FFF71DFE20B1F5
:103160004FF05F0845F003050FE0A8F14100192872
:1031700002D849F0020908E0A8F16100192804D832
:10318000413049F001091FFA80F8009A0AEB020168
:1031900081F824800098401C009085E705218AF87A
:1031A0002410BBF1080F03D14FEA89604FEA106980
:1031B000C9F38100032803D06FEA0901890701D10F
:1031C00045F00205A90709D409F00301012901D13D
:1031D00045F01005012801D145F008058AF82F5067
:1031E000002045E7222A3A3C3E3F7C7F0000000059
:1031F0002B2C3B3D5B5D0000401E022812D20A4989
:1032000001EB00118889B0F5807F05D008B1401E20
:1032100080B2888110B103E00020FAE70020086046
:103220000020704702207047183400202DE9F04735
:1032300004460021D0F8009000F0CCF900285BD1C2
:10324000FF25471EA84627634846E16901F0D9FCDF
:10325000060050D1216A087850B1CA7AE52802F0F8
:103260003F02A2713FD0130704D50F2A3BD105E0DE
:10327000042640E00F2A01D0E5B120E094F82F2089
:10328000520632D4420606D591F80D8000F0BF00F8
:10329000626905462263A84209D14A7B424506D1AC
:1032A000D9F80C00FFF7DCFD08B16D1E00E0FF252A
:1032B000EDB21AE0084601F0DDFD40451BD094F860
:1032C0002F00C0070FD1D4F8201004F124000B22E6
:1032D00011F8013B10F8015B5B1B521E02D0002B62
:1032E000F6D000E03BB1FF2527630021204600F027
:1032F00005F80600A8D03046BDE8F0872DE9F04774
:10330000054647690468C0698946203710B1B7F59A
:10331000001F02D30420BDE8F087F90560D1401CEE
:10332000E861A9694FF0000829B16089401E10EAE0
:10333000572F05D054E02089B0EB571F1DD94FE01F
:10334000284601F08FFA064601281BD9701C33D09D
:10335000A069B0423ED8B9F1000F0ED02846A96945
:10336000FFF7D6FD06000BD0012E0BD0701C23D02A
:10337000204601F0D1FDF8B906E0C5F81C80C9E788
:103380000720C8E70220C6E74FF40072002104F1CD
:10339000340001F02FFC4FF0000831462046FFF7C3
:1033A00053FD4FF0010920630DE000BF84F8039046
:1033B000204601F0B1FD08B10120ACE7206B08F117
:1033C0000108401C206361894145EFD8216BA1EBC6
:1033D0000800206331462046AE61FFF735FDE86105
:1033E000C7F30800204434306F612862002092E760
:1033F0002DE9F04F0446D0F8009090F82F0089B0E6
:1034000010F0A00F03D0062009B0BDE8F08F002512
:10341000D9F80C0000E06D1C30F815100029FAD125
:1034200004F124010C226846039101F0D9FB9DF8B8
:103430000B00C00719D0402084F82F000126334626
:103440006946D9F80C20039801F0C6F92046FFF729
:10345000EDFE10B9761C642EF1D3642E0FD0042833
:10346000D2D19DF80B0084F82F009DF80B00800747
:1034700007D50D200C35B5FBF0F56D1C02E00720DB
:10348000C2E7012500212046276800F0A3F888B98B
:1034900000263846E16901F0B4FB58B9206A00788B
:1034A000E5280AD048B1002601212046FFF726FF73
:1034B0000028EED0042812D012E0761C2846AE4236
:1034C000F2D1451E059567D06169684201EB401154
:1034D000204600F07FF85FEA000803D076E007207E
:1034E000804673E0039801F0C5FC4FF6FF7B079020
:1034F0004846E16901F085FB5FEA000866D1D9F82A
:103500000C0006900598D4F82080C0B2049007996A
:1035100088F80D100F2188F80B10002188F80C1086
:1035200008F11A0001F0A2FC0498DFF8A4A0401EE4
:1035300000EB800101EBC006002701E05D4503D0F0
:10354000069830F81650761C1AF8071001EB0800A0
:10355000294601F08BFC05B95D467F1C0D2FEDD38C
:103560005D4505D0069830F8160008B1049803E0D0
:10357000049840F04000049088F80000012189F888
:10358000031000212046FFF7B9FE5FEA00081DD1B5
:103590000598401E0590ABD14846E16901F031FB2A
:1035A0005FEA000812D120220021206A01F022FBEC
:1035B0000B22206A039901F013FB94F82F00216A73
:1035C00000F018000873012089F8030040461BE74B
:1035D000FCFB02082DE9F04107680E460546B1F5EF
:1035E000001F36D2F00634D16E61AC6824B9387849
:1035F000032805D3BC6A1CB178894FEA402812E041
:103600003889B0EB561F24D9B86A12E0284601F079
:1036100029F90446401C1AD0022C1AD3B869A042DA
:1036200017D9A6EB080646452146EFD23846FFF7E4
:103630000BFCC5E9064060B100EB5620E861C6F31B
:1036400008003844343028620020BDE8F0810120B1
:10365000FBE70220F9E70000084910B50B5C0022E7
:1036600053B901220A540A1801EB8000127A40680B
:103670000168104688470246104610BD38360020C3
:1036800030B4054C231804EB80001B7A40680469B1
:103690001846A44630BC60473836002030B4054D8B
:1036A0002C1805EB8000247A406885682046AC46DB
:1036B00030BC604738360020044A111802EB800005
:1036C000097A4068426808461047000038360020F2
:1036D00030B4054D2C1805EB8000247A4068C5688D
:1036E0002046AC4630BC60473836002038B504462A
:1036F00000F0BAFC00280CD16946204601F07AFCA3
:10370000002806D12069FFF777FD002801D10021AC
:10371000216038BD2DE9FF4F91B01D4614464FF48E
:10372000007611A8DDF8788001F0FBF8002803DAB4
:103730000B2015B0BDE8F08FFE4951F8201009B1FB
:1037400000220A70C0B20690FFF786FFC10701D0C1
:103750000320EEE7400701D50A20EAE70CAA03217F
:103760000698FFF78DFF38B90C9828B1B0F5004FD7
:1037700002D8411E084201D001200C90B24624B16B
:1037800054453AD3B4F1807F37D8601E044234D117
:10379000B8FBFAFBB4FBFAF75FEA4B202C4610901B
:1037A0007DD009AA01210698FFF76AFF002877D18A
:1037B000129800076FEAA0104FEA906909984845EF
:1037C0006DD3A0EB090086460990802867D3802F2F
:1037D00013D812984FF6F5728007129840F6F573D9
:1037E00007D500F0070002287ED01298C0077BD0D2
:1037F00001E0C00701D002269AE0132099E73D00BE
:103800000ED100204FEA5E4C0125CB4901E06D004E
:10381000401C31F81080B8F1000F01D0E045F6D916
:10382000BEFBF5F00AEB8001C91DB1FBFAF82021BF
:10383000039100210E91904231D9C04988422ED87F
:103840002BE000BFDFF8F0C200204FEA1E31012557
:10385000ACF10E0C01E06D00401C3CF81080B8F19A
:10386000000F01D08845F6D9BEFBF5F0984203D988
:10387000042101EB400006E0012600EB400003219B
:10388000401C01EB50005044401EB0FBFAF80120F0
:1038900081030390B1FBFAF00E90039901E05AE026
:1038A00034E109EB010000EB080104900E98084494
:1038B0000C9900EB010C491EACF1010C2CEA010C37
:1038C000ACEB0001032E1AD008EB010800EB051148
:1038D000A1EB090171453ED803990E98AEEB0101A9
:1038E000A1EB0801081A00E028E0B0FBF5F0079012
:1038F000032E0ED0022E13D0012E2AD02DE0DDF89B
:103900000CC08C44CDF80CC0DDF810C061440491AB
:10391000DCE7904221D8F7B96F087FF470AF1AE066
:10392000904211D93FB94020B0EB450F03D36F004F
:103930003D0099D186E71298800707D503265EE7F8
:103940006F00802FF4D906E0984206D8002FF7D0F8
:1039500001E0984201D90E20EBE6524600212046B4
:1039600001F048F90B2276A1204601F039F95146C1
:1039700004F10B0001F07AFA6573039881B204F147
:103980000E0001F073FA01202074032E0ED0514670
:1039900004F1110001F06AFA0999B1F5803F07D2EC
:1039A00089B204F1130001F061FA05E00021EFE7AC
:1039B00004F1200001F052FAF82060753F2104F173
:1039C000180001F053FAFF2104F11A0001F04EFA39
:1039D000494604F11C0001F041FA5C498027032E9E
:1039E00024D004F1270001F039FA1FFA88F104F11C
:1039F000160001F03BFA84F82470292084F8260090
:103A0000132253A104F12B0001F0EAF804F5FF7032
:103A10004AF655210B9001F029FA01234A46214626
:103A20000698FFF755FE002870D121E004F143000D
:103A300001F014FA414604F1240001F00FFA0221CA
:103A400004F12C0001F00AFA012104F1300001F028
:103A50000DFA062104F1320001F008FA292084F859
:103A6000407084F8420013223EA104F14700CBE7E6
:103A7000032E32D1012309F1060221460698FFF7F1
:103A800027FE52460021204601F0B4F83A4920466C
:103A900001F0E4F9394904F5F27001F0DFF9079912
:103AA00004F5F470491E01F0D9F9022104F5F6700D
:103AB00001F0D4F94AF655210B9801F0D7F901230A
:103AC00009F1070221460698FFF702FE012309F1DA
:103AD000010221460698FFF7FBFD00212046109ABF
:103AE00001F088F86FF00701032E02D0012E0ED0EE
:103AF0000EE0204601F0B2F94FF0FF31201D01F039
:103B0000ADF96FF0704104F1080002E03AE01C49A1
:103B1000204601F0A3F9474658465F4500D838468D
:103B2000804603462146049A0698FFF7D1FD48BB1C
:103B3000524628E04800002018FC0208F5FFFF0F5D
:103B4000EBFE904D53444F53352E30000000624D34
:103B50004E4F204E414D45202020204641542020EC
:103B6000202020004E4F204E414D45202020204651
:103B7000415433322020200052526141727241611F
:103B8000F8FFFF0058E00021204601F033F80498C8
:103B9000B7EB080740440490BED1032E00D00E9D21
:103BA00058465D4501D9074600E02F463B46214671
:103BB000049A0698FFF78CFDF0BB0498ED1B38447F
:103BC0000490EDD1032E05D00998B0F5803F03D3C2
:103BD000062604E00C2602E0022E38D001261298B8
:103BE000000736D452460021204601F003F84AF679
:103BF00055210B9801F03AF904F5DF750020287083
:103C000001216970A970E8702E71099909EB010012
:103C100043F6C161B0FBF1F0FE2169713F2141EA39
:103C20009001A971E871494605F1080001F016F903
:103C300005F10C00099900E013E001F00FF90123F0
:103C4000002221460698FFF743FD50B901E0042603
:103C5000C5E7002211460698FFF712FD00283FF441
:103C600078AD012065E500002DE9F74181B090466F
:103C700002980090684600F054FE040003D50B2023
:103C800004B0BDE8F0810D4E002756F824501DB158
:103C90002846FFF7B7F82F700198002800D007706A
:103CA00046F8240002D0B8F1010F01D00020E7E768
:103CB000002201A902A800F085FAE1E748000020EF
:103CC0002DE9F74394B005000BD002F03F063246D1
:103CD000694615A800F076FA04004FF0000804D0F9
:103CE000EAE0092017B0BDE8F0830098059005A828
:103CF000159900F027FD04000ED19DF84300000641
:103D000001D5062408E0700801D0012100E000215F
:103D100005A8FFF749F8044616F01C0F5BD04FF0DA
:103D20000109C4B1042C10D10020664902E0401CF6
:103D3000022804D201EB00121268002AF7D10228EF
:103D400007D005A8FFF754FB044646F008065CB10F
:103D5000B2E01224B0E09DF81A0010F0110F45D126
:103D6000700701D50824A7E0300745D5564F0D98B8
:103D700039460E3001F072F80D983946163001F0D0
:103D80006DF80D992020C8720D99009800F028FE5A
:103D9000074600220D99009801F04CF80D9800217B
:103DA0001C3001F05BF8009880F8039017B3D0F84E
:103DB00030900022394605A801F002F804007BD1BA
:103DC0004946009800F01DFF04000098A7F1010784
:103DD00007610DD070E0ECBB9DF81A00C10601D55B
:103DE000042469E0B10703D5C00701D0072463E0CC
:103DF000300701D546F040060098006B68620D98C8
:103E0000A862700801D0012100E0002105A800F09F
:103E1000A7FD2861B8B30D99009800F0E1FDA860F6
:103E20000D981C3000F0EFFDC5F82C80E86000997B
:103E30002960009905F130004FF40072C988A9800B
:103E40002E7585F81580C5F8208000218146C5F8BB
:103E5000188000E030E000F0CDFEB0062ED5EE6810
:103E600066B3AE610098A968408947020FE0284612
:103E700000F0F8FC0146012800D80224481C03D0B9
:103E8000F61B24B105E01BE00124F61B01E0BE4255
:103E9000EDD8E96184B9F00510D00098FEF7D4FFA1
:103EA00070B100EB56222A620098012349464078FF
:103EB000FFF7F4FB10B10124C5F80080204611E79C
:103EC0000224F9E7183400200000624D2DE9FE4F6E
:103ED00088460021196099461546044602A901F05A
:103EE00089F8002812D1607D00280FD1207DC007FD
:103EF0000BD0E168A0690127081A4FF0020A04F10B
:103F0000300B854200D9054684E00720BDE8FE8FCE
:103F1000A169C80566D102984089401E10EA512661
:103F200011D129B1E06A28B12046FEF77BFF05E0F8
:103F3000A06803E02046E16900F094FC02281BD34E
:103F4000411C4AD0E061E1690298FEF77DFF98B11B
:103F500030440190680A009025D0029932184889AF
:103F6000824201D9801B0090DDE900324878414649
:103F7000FFF794FB88BB03E084F815A00220C5E797
:103F8000207D00060CD5216A0198081A0099884204
:103F900006D208EB40204FF40072594600F020FE94
:103FA000009846022CE0226A0198824218D0207DB7
:103FB00000060AD50298012359464078FFF788FB8E
:103FC00058B9207D00F07F002075029801235946E2
:103FD0004078019AFFF762FB10B16775012095E701
:103FE00001982062208BC0F30800C0F50076AE4235
:103FF00000D92E46011932464046303100F0F0FD1E
:10400000A069B0443044A061D9F800008119AD1B0B
:10401000C9F80010002D7FF47BAF002076E7000088
:104020008AB2014640F6FF730148FDF7B9B90000B6
:104030005000002001B582B040F6FF7000900123CF
:1040400001AA02A90248FDF707FB9DF804000EBD76
:10405000500000208AB2014640F6FF730148FDF788
:1040600047BA000050000020F8B50446694600F049
:10407000C1FF00280ED1217D4A060BD508060ED5BA
:104080000098226A0123407804F13001FFF720FBF9
:1040900008B10120F8BD207D00F07F002075154E8D
:1040A000616A009800F0ADFD0028F3D1A56A2946A9
:1040B000E87A40F02000E872A268206800F0BAFEBA
:1040C00005F11C00E16800F0C9FE314605F116005B
:1040D00000F0C4FE002105F1120000F0C7FE0098B8
:1040E0000121C17000F0D4FE217D01F0BF012175D6
:1040F000F8BD00000000624D70B580281BD345F26A
:10410000205309B10D4D00E00D4D002110245A1A25
:1041100002EBD27201EB620235F82260864206D0D1
:1041200001D2114600E01346641EF0D104E01CB138
:1041300005EB8200408870BD002070BDCAA4010854
:104140004650000830B5B0F5805F01D21B4900E051
:104150001B4931F8022B002A15D0904213D331F8B5
:10416000024B230AE5B252FA84F4844221D9092B86
:1041700009D2DFE803F005090E11131517191B000A
:10418000801A31F8100030BD811A01F00101401A87
:1041900000E0103880B230BD2038FBE73038F9E756
:1041A0001A38F7E70830F5E75038F3E7A0F5E350A1
:1041B000F0E7002BCDD101EB4501CAE74EF902082B
:1041C00040FB02082DE9FF41002790460E460F6094
:1041D00000F0A7FB050003D50B2004B0BDE8F0817B
:1041E0008B4850F825409CB13460207808F0FE06DA
:1041F00020B16078FFF760FAC1070BD02770E8B2F2
:10420000B8466070FFF728FAC10708D00320E4E73A
:104210000C20E2E70EB1400704D40020DDE71EB118
:10422000400701D50A20D8E7002631462046FEF790
:104230007BFD022822D100254FEA0D0704EB051073
:1042400090F8F61100F5F97019B1083000F0DBFBB9
:1042500000E0002047F825006D1C042DEED300255A
:1042600057F8256036B131462046FEF75DFD02283D
:1042700001D203E003206D1C042DF1D3042809D0E2
:1042800002286DD204F13F0000F0C8FBB0F5007FBA
:1042900066D101E00120A0E704F14A0000F0BEFB76
:1042A00018B904F1580000F0AEFBE06194F84450F6
:1042B000A570012D01D0022D52D1454394F8410043
:1042C0006081E8B3411E08424AD104F1450000F084
:1042D000A5FB2081000743D104F1470000F09EFBBD
:1042E000070004D104F1540000F08DFB074604F1EF
:1042F000420000F093FB010032D02389481900EB03
:10430000131297422CD3B81A6789B0FBF7F0B8B1F3
:1043100003274FF6F57C604500D8022740F6F57C70
:10432000604500D80127801C3244E2623144A0611C
:10433000C4E90861032F15D013B12944A16200E03C
:104340000EE0022F1FD000F0010100EB400001EB56
:10435000500000BFE16900F2FF10B1EB502F14D202
:104360000D203AE704F15E0000F058FB0028F7D179
:1043700020890028F4D104F1600000F044FBA06221
:10438000A0698000E6E74000E4E74FF0FF3060619D
:10439000206180202071032F2CD104F1640000F0F3
:1043A0003DFB012826D1711C204600F02AFC08BBE9
:1043B00084F8048004F2322000F030FBA0F52A419A
:1043C000553917D104F1340000F01DFB1149884222
:1043D00010D104F5067000F016FB0F49884209D190
:1043E00004F5077000F00FFB606104F5087000F041
:1043F0000AFB206106492770091F0888401C0880B5
:10440000E0800648E0602046FEF7FCFC05E700007F
:1044100048000020525261417272416138340020DC
:104420002DE9F0410446184800250E460078002882
:1044300028D1164F24E000BF00F03EF900F086F8C6
:10444000002240213846FCF775FB2020FFF7F2FDE3
:10445000200EFFF7EFFDC4F30740FFF7EBFDC4F3B9
:104460000720FFF7E7FDE0B2FFF7E4FD012240215E
:104470003846FCF75FFB00F069F804F580546D1CCA
:10448000B542D9D3BDE8F0814000002000140240BD
:1044900070B5134D1524002240212846FCF74AFB35
:1044A0002046FFF7C7FDFF20FFF7C4FD04460122A9
:1044B00040212846FCF73EFB0A488470E0070ED1F5
:1044C000002240212846FCF735FBB720FFF7B2FD5C
:1044D0002846BDE8704001224021FCF72BBB70BD8F
:1044E00000140240400000202DE9F0410646154826
:1044F00017460C460078002821D1134D0022402198
:104500002846FCF717FB0320FFF794FD200EFFF76A
:1045100091FDC4F30740FFF78DFDC4F30720FFF7BB
:1045200089FDE0B2FFF786FD39463046FFF778FD9A
:104530002846BDE8F04101224021FCF7FBBABDE866
:10454000F081000040000020001402402DE9F041FD
:104550000F4E00244FF4C8770520FCF797F900228E
:1045600040213046FCF7E6FA0520FFF763FDFF2007
:10457000FFF760FD0546012240213046FCF7DAFADC
:10458000641CA4B2E80701D0BC42E5D3BDE8F081C9
:10459000001402402DE9F0470646C8B2C0F5807706
:1045A0001C480024904600780D46002830D1104663
:1045B000B8452BD93A46304600F092F8A8EB0700F0
:1045C000C1173D443E4400EB1161C1F30F2721F0B8
:1045D000FF01401A1FFA80F84FF480790AE04A463A
:1045E0002946304600F07CF8641CA4B205F58075BD
:1045F00006F58076BC42F2D3B8F1000008D002463E
:1046000029463046BDE8F04700F06AB80246F8E7B0
:10461000BDE8F087400000202DE9F05FC1F30B06F4
:10462000DFF890800F0BC6F5805489468346154607
:10463000A24200D8144639038A464FF480524046BD
:10464000FFF752FF002006E0321818F80210FF2989
:1046500003D1401C80B2A042F6D3A04224D25046DF
:104660000121FFF7DDFE002007E000BF1BF800205E
:104670008319401C08F8032080B2A042F6D35146AB
:104680004FF480524FEA0800FFF784FFA5420FD095
:10469000281BA344A144002685B24FF480547F1CFC
:1046A000A542C8D82C46C6E7224649465846EBE7FD
:1046B000BDE8F09F1624002010B5084C00224021D0
:1046C0002046FCF737FA0620FFF7B4FC204601220B
:1046D000BDE810404021FCF72DBA00000014024054
:1046E0002DE9F04115460C460746FFF7E5FF144E4D
:1046F000002240213046FCF71DFA0220FFF79AFC09
:10470000200EFFF797FCC4F30740FFF793FCC4F3B8
:104710000720FFF78FFCE0B2FFF78CFCB015854255
:1047200000D9054629463846FFF794FC012240216E
:104730003046FCF7FFF9BDE8F041FFF707BF000086
:104740000014024073B504460568019801E0401C5E
:10475000019001782F29FAD05C29F8D00021A160BE
:1047600001980078202806D2802084F82F00204667
:10477000FEF730FF7CBD01A92046FEF71BFC002898
:10478000F8D12046FEF752FD94F82F1028B10428E6
:10479000F0D14907EED405207CBD4907FCD4A079AF
:1047A000C006F8D5A08AC0F3080041192846343164
:1047B00000F016F9A060DEE738B504468DF8000079
:1047C00040F6FF73012269460248FDF7E7F92046EB
:1047D00038BD0000A80000207CB516461C460546E2
:1047E0000B2200F0FDF9052C11D91D4A0CE0002127
:1047F000B61C2346044663F35F044008E30300D578
:104800005440491C1029F4D330880028EFD10721E7
:104810004FEA0D0304F00F003030392800D9C01DD5
:104820005854491E2409F5D17E20002258544C1EAC
:1048300006E081387D2802D8A24206D0521C521CC4
:104840008A4202D2A85C2028F3D1082902D2585CFF
:10485000491C00E02020A854521C082AF5D37CBD36
:10486000211001002DE9F04104680D4602290BD307
:10487000A069A84208D920784FF0FF36012807D058
:1048800002282BD0032839D001263046BDE8F0811C
:10489000606A05EB550700EB5721204600F0B1F99F
:1048A0000028F2D1C7F3080020447F1C90F8348020
:1048B000606A00EB5721204600F0A3F90028E4D1FC
:1048C000C7F30800204490F8341048EA0120E907B3
:1048D00001D00609D9E7C0F30B06D6E7606A00EB02
:1048E0001521204600F08DF90028CED1E8B204EB66
:1048F0004000343000F092F80646C6E7606A00EBEC
:10490000D511204600F07DF90028BED140F2FF10FD
:1049100000EA85002044343000F075F820F070463D
:10492000B3E710B504464FF0FF302268002A13D0D9
:10493000114600E0491C0B78202B0ED33A2BF9D1FD
:1049400012F8013B303B0A2B06D28A4204D1002BDD
:1049500002D1491C1846216010BD002010BD000086
:10496000F0B502461D4BD2F80050002003EB0014B6
:104970002668AE4207D166689768BE4203D1A46834
:104980005669B44202D0401C0228EFD3022814D149
:10499000002002E0401C022804D203EB001424682B
:1049A000002CF7D102280ED003EB00142560956887
:1049B00065605269A2600022A281002903EB001108
:1049C000898902D019B10020F0BD491C01E04FF4E3
:1049D000807103EB0012401C9181F0BD183400205F
:1049E00070B506460D4601F11A0000F017F80446AE
:1049F0003078032805D105F1140000F00FF844EADF
:104A00000044204670BDC178827842EA0121427894
:104A1000007842EA012140EA01207047417800789D
:104A200040EA012070470000ADF5207DFCF796F8C4
:104A3000FDF77AFAFDF750F942480024016841F485
:104A4000800101600068224600F480000090214649
:104A50003A20FCF70BF93A20FCF7FCF8FDF792F945
:104A60003A48394901604FF4E131C0E901140C21A1
:104A7000C460C0E904418461C461FCF7B3FF00B1C4
:104A8000FEE7FDF7F9F8FDF7E9F8FDF779F9FFF72B
:104A9000FFFC2E497431A1F13400FDF7A6F900F0B6
:104AA000FFF801222AA12B48FFF7DEF88DF8340227
:104AB00001218DA800F092FA9DF834020D2816D13C
:104AC00025A0FDF785FD4FF480500090264B002275
:104AD00009211FA0FEF71EFE8DF8340238B923A06D
:104AE000FDF776FD01221AA11A48FFF7BDF824A0B0
:104AF000FDF76EFD27A0FDF76BFD01222AA101A89D
:104B0000FFF7DEF88DF83402011E06D028A0FDF76D
:104B10005FFD00BF00F04EFAFEE72AA0FDF758FD4A
:104B20002BA00499FDF754FD9EAB40228EA901A84D
:104B3000FFF7CCF901A8FEF7D9FD40218EA800F0BF
:104B40004DFAE7E73038024000100140A80000208D
:104B5000000000008C0100206E6F2066696C657398
:104B6000797374656D0A0D0000A312C06D6B6673D6
:104B70002066696C6573797374656D0A0D000000B9
:104B80006D6F756E742066696E69736865640A0D71
:104B9000000000006F70656E2066696C6520312E24
:104BA0006A7065670A0D00002F312E6A7065670014
:104BB0006F70656E206661696C6564202564200AEB
:104BC0000D0000006F70656E206F6B0A0D00000015
:104BD00066696C652073697A653A2025640A0D0060
:104BE000002A05D011F8013B00F8013B521EF9D113
:104BF000704700005FFA81F100F8011B521EFBD1E3
:104C0000704770B50446006B0D460026A8420FD0D1
:104C1000204600F081F906000AD1607801232A4677
:104C200004F13401FEF73AFD08B1751E0126256333
:104C3000304670BD002301461A46012000F036B808
:104C40001CB502292AD301788DF8001041788DF81F
:104C5000011002D14FF0000001E000F10200CDF898
:104C600002000098C2B2012A18D1DDF80240206883
:104C7000010501D002200DE000F1907020600121BB
:104C8000FFF7CEFBA088216882B204F10800FFF78D
:104C900081FC0020BDE81C40FFF7CCBF1CBD00001C
:104CA0000148FEF707B80000414C000810B51C464B
:104CB0001346C0B002468DF800208DF80110224640
:104CC00019460DF10200FBF7BEFAA11C6846FDF77C
:104CD000FBFF40B010BD2DE9F047022617460D46F8
:104CE0000446022969D3A069A84266D920784FF00A
:104CF0000109012804D0022836D003285DD143E001
:104D0000616A05EB550801EB58212046FFF779FF52
:104D1000060052D1C8F308002044343008F10108DD
:104D2000E90704D00178FAB262F31F1100E03946B6
:104D3000017084F80390616A204601EB5821FFF767
:104D400060FF060039D1C8F3080020443430E90779
:104D500002D0C7F3071105E00178C7F3032201F081
:104D6000F0011143017026E0606A00EB1521204636
:104D7000FFF747FF060020D1E8B204EB4000B9B2CC
:104D8000343000F073F816E0606A00EBD51120466D
:104D9000FFF737FF060010D140F2FF1000EA850050
:104DA000204434300546FFF72EFE67F31B00014612
:104DB000284600F053F884F803903046BDE8F087A9
:104DC0002DE9F041056813460E46074602292DD30A
:104DD000A869B0422AD93BB14FF0FF3219462846A4
:104DE000FFF779FF00281FD131463846FFF73AFD1B
:104DF000040018D0012C19D0601C19D000223146B3
:104E00002846FFF768FF00280ED1D5E90510821E5D
:104E1000914205D2491C6961297941F0010129714A
:104E20002646B042E0D80020BDE8F0810220FBE732
:104E30000120F9E770B50C460646154691B204F11B
:104E40001A0000F013F83078032806D1290C04F179
:104E50001400BDE8704000F009B870BD0170090A87
:104E60004170090A8170090AC17070470170090A0E
:104E700041707047014600200B22430803EBC0102D
:104E800011F8013B521E1844C0B2F6D17047000021
:104E900070B5044600F040F8050036D120780328AC
:104EA0002CD12079012829D1420204F134000021BB
:104EB0000646FFF79FFE4AF6552104F23220FFF71F
:104EC000D5FF13493046FFF7C9FF124904F50670B4
:104ED000FFF7C4FF04F507706169FFF7BFFF04F532
:104EE00008702169FFF7BAFF226A0123521C22636E
:104EF00060783146FEF7ECFB0020207100226078DC
:104F00001146FEF7BDFB00B10125284670BD00002B
:104F100052526141727241612DE9F0410446C078FC
:104F20000027F8B1256B04F13401607801232A468B
:104F30008846FEF7CDFB08B1012713E00020E070A2
:104F4000606AE169281A88420CD2A67808E0E06914
:104F50000123054460782A464146FEF7B9FB761ED8
:104F6000022EF4D23846BDE8F081000038B50D4875
:104F700000680168406800900B48006840680B4C6E
:104F800020600848FCF779FC2068C0F5815108488A
:104F9000FDF7FAFDBDE838404FF48152044901485D
:104FA000FCF7AEBDA80000202C0100203C00002032
:104FB000F613002010B54FF4815206490648FCF75D
:104FC0009FFD05480068C16841F01001C1600020E4
:104FD00010BD0000F6130020A80000208AB210B512
:104FE000014640F6FF730248FCF7D8FD002010BDD3
:104FF000A800002070B50D4604000CD0206850B108
:10500000017841B1C188A288914204D14078FEF76D
:1050100053FBC00703D000202860092070BD206822
:105020002860002070BD0006101600061016000053
:105030000000000000000102030406070809000048
:10504000000001020304A400E8A1A700ECA1A8004D
:10505000A7A1B000E3A1B100C0A1B700A4A1D700EF
:10506000C1A1E000A4A8E100A2A8E800A8A8E90066
:10507000A6A8EA00BAA8EC00ACA8ED00AAA8F20025
:10508000B0A8F300AEA8F700C2A1F900B4A8FA00D6
:10509000B2A8FC00B9A80101A1A81301A5A81B0191
:1050A000A7A82B01A9A84401BDA84801BEA84D018D
:1050B000ADA86B01B1A8CE01A3A8D001ABA8D201C5
:1050C000AFA8D401B3A8D601B5A8D801B6A8DA0113
:1050D000B7A8DC01B8A85102BBA86102C0A8C702EA
:1050E000A6A1C902A5A1CA0240A8CB0241A8D90223
:1050F00042A89103A1A69203A2A69303A3A6940398
:10510000A4A69503A5A69603A6A69703A7A698030B
:10511000A8A69903A9A69A03AAA69B03ABA69C03DB
:10512000ACA69D03ADA69E03AEA69F03AFA6A003AB
:10513000B0A6A103B1A6A303B2A6A403B3A6A50378
:10514000B4A6A603B5A6A703B6A6A803B7A6A90347
:10515000B8A6B103C1A6B203C2A6B303C3A6B403E3
:10516000C4A6B503C5A6B603C6A6B703C7A6B803AB
:10517000C8A6B903C9A6BA03CAA6BB03CBA6BC037B
:10518000CCA6BD03CDA6BE03CEA6BF03CFA6C0034B
:10519000D0A6C103D1A6C303D2A6C403D3A6C50318
:1051A000D4A6C603D5A6C703D6A6C803D7A6C903E7
:1051B000D8A60104A7A71004A1A71104A2A712044E
:1051C000A3A71304A4A71404A5A71504A6A716044F
:1051D000A8A71704A9A71804AAA71904ABA71A041B
:1051E000ACA71B04ADA71C04AEA71D04AFA71E04EB
:1051F000B0A71F04B1A72004B2A72104B3A72204BB
:10520000B4A72304B5A72404B6A72504B7A726048A
:10521000B8A72704B9A72804BAA72904BBA72A045A
:10522000BCA72B04BDA72C04BEA72D04BFA72E042A
:10523000C0A72F04C1A73004D1A73104D2A73204DC
:10524000D3A73304D4A73404D5A73504D6A736048E
:10525000D8A73704D9A73804DAA73904DBA73A045A
:10526000DCA73B04DDA73C04DEA73D04DFA73E042A
:10527000E0A73F04E1A74004E2A74104E3A74204FA
:10528000E4A74304E5A74404E6A74504E7A74604CA
:10529000E8A74704E9A74804EAA74904EBA74A049A
:1052A000ECA74B04EDA74C04EEA74D04EFA74E046A
:1052B000F0A74F04F1A75104D7A710205CA9132031
:1052C00043A81420AAA1152044A81620ACA1182098
:1052D000AEA11920AFA11C20B0A11D20B1A1252095
:1052E00045A82620ADA13020EBA13220E4A1332037
:1052F000E5A1352046A83B20F9A1AC208000032180
:10530000E6A1052147A8092148A81621EDA12121E0
:1053100059A96021F1A26121F2A26221F3A26321C5
:10532000F4A26421F5A26521F6A26621F7A2672105
:10533000F8A26821F9A26921FAA26A21FBA26B21D5
:10534000FCA27021A1A27121A2A27221A3A27321A9
:10535000A4A27421A5A27521A6A27621A7A27721D5
:10536000A8A27821A9A27921AAA29021FBA191212A
:10537000FCA19221FAA19321FDA1962149A8972190
:105380004AA898214BA899214CA80822CAA10F220B
:10539000C7A11122C6A115224DA81A22CCA11D22F7
:1053A000D8A11E22DEA11F224EA82022CFA1232297
:1053B0004FA82522CEA12722C4A12822C5A1292297
:1053C000C9A12A22C8A12B22D2A12E22D3A13422E4
:1053D000E0A13522DFA13622C3A13722CBA13D2295
:1053E000D7A14822D6A14C22D5A1522250A8602292
:1053F000D9A16122D4A16422DCA16522DDA16622AB
:1054000051A8672252A86E22DAA16F22DBA1952251
:1054100092A89922D1A1A522CDA1BF2253A81223DF
:10542000D0A16024D9A26124DAA26224DBA2632481
:10543000DCA26424DDA26524DEA26624DFA2672448
:10544000E0A26824E1A26924E2A27424C5A2752422
:10545000C6A27624C7A27724C8A27824C9A2792438
:10546000CAA27A24CBA27B24CCA27C24CDA27D2408
:10547000CEA27E24CFA27F24D0A28024D1A28124D8
:10548000D2A28224D3A28324D4A28424D5A28524A8
:10549000D6A28624D7A28724D8A28824B1A28924A0
:1054A000B2A28A24B3A28B24B4A28C24B5A28D24E8
:1054B000B6A28E24B7A28F24B8A29024B9A29124B8
:1054C000BAA29224BBA29324BCA29424BDA2952488
:1054D000BEA29624BFA29724C0A29824C1A2992458
:1054E000C2A29A24C3A29B24C4A20025A4A9012578
:1054F000A5A90225A6A90325A7A90425A8A90525CC
:10550000A9A90625AAA90725ABA90825ACA909259B
:10551000ADA90A25AEA90B25AFA90C25B0A90D256B
:10552000B1A90E25B2A90F25B3A91025B4A911253B
:10553000B5A91225B6A91325B7A91425B8A915250B
:10554000B9A91625BAA91725BBA91825BCA91925DB
:10555000BDA91A25BEA91B25BFA91C25C0A91D25AB
:10556000C1A91E25C2A91F25C3A92025C4A921257B
:10557000C5A92225C6A92325C7A92425C8A925254B
:10558000C9A92625CAA92725CBA92825CCA929251B
:10559000CDA92A25CEA92B25CFA92C25D0A92D25EB
:1055A000D1A92E25D2A92F25D3A93025D4A93125BB
:1055B000D5A93225D6A93325D7A93425D8A935258B
:1055C000D9A93625DAA93725DBA93825DCA939255B
:1055D000DDA93A25DEA93B25DFA93C25E0A93D252B
:1055E000E1A93E25E2A93F25E3A94025E4A94125FB
:1055F000E5A94225E6A94325E7A94425E8A94525CB
:10560000E9A94625EAA94725EBA94825ECA949259A
:10561000EDA94A25EEA94B25EFA9502554A85125FF
:1056200055A8522556A8532557A8542558A855259E
:1056300059A856255AA857255BA858255CA859256E
:105640005DA85A255EA85B255FA85C2560A85D253E
:1056500061A85E2562A85F2563A8602564A861250E
:1056600065A8622566A8632567A8642568A86525DE
:1056700069A866256AA867256BA868256CA86925AE
:105680006DA86A256EA86B256FA86C2570A86D257E
:1056900071A86E2572A86F2573A8702574A871254E
:1056A00075A8722576A8732577A8812578A8822504
:1056B00079A883257AA884257BA885257CA88625BA
:1056C0007DA887257EA8882580A8892581A88A2588
:1056D00082A88B2583A88C2584A88D2585A88E2556
:1056E00086A88F2587A8932588A8942589A895251D
:1056F0008AA8A025F6A1A125F5A1B225F8A1B32578
:10570000F7A1BC258BA8BD258CA8C625F4A1C7256B
:10571000F3A1CB25F0A1CE25F2A1CF25F1A1E22561
:105720008DA8E3258EA8E4258FA8E52590A8052659
:10573000EFA10626EEA1092691A84026E2A1422665
:10574000E1A10030A1A10130A2A10230A3A1033048
:10575000A8A10530A9A1063065A9073096A908308F
:10576000B4A10930B5A10A30B6A10B30B7A10C30F5
:10577000B8A10D30B9A10E30BAA10F30BBA11030C5
:10578000BEA11130BFA1123093A81330FEA1143076
:10579000B2A11530B3A11630BCA11730BDA11D3088
:1057A00094A81E3095A8213040A9223041A9233069
:1057B00042A9243043A9253044A9263045A92730E1
:1057C00046A9283047A9293048A94130A1A4423030
:1057D000A2A44330A3A44430A4A44530A5A44630D9
:1057E000A6A44730A7A44830A8A44930A9A44A30A9
:1057F000AAA44B30ABA44C30ACA44D30ADA44E3079
:10580000AEA44F30AFA45030B0A45130B1A4523048
:10581000B2A45330B3A45430B4A45530B5A4563018
:10582000B6A45730B7A45830B8A45930B9A45A30E8
:10583000BAA45B30BBA45C30BCA45D30BDA45E30B8
:10584000BEA45F30BFA46030C0A46130C1A4623088
:10585000C2A46330C3A46430C4A46530C5A4663058
:10586000C6A46730C7A46830C8A46930C9A46A3028
:10587000CAA46B30CBA46C30CCA46D30CDA46E30F8
:10588000CEA46F30CFA47030D0A47130D1A47230C8
:10589000D2A47330D3A47430D4A47530D5A4763098
:1058A000D6A47730D7A47830D8A47930D9A47A3068
:1058B000DAA47B30DBA47C30DCA47D30DDA47E3038
:1058C000DEA47F30DFA48030E0A48130E1A4823008
:1058D000E2A48330E3A48430E4A48530E5A48630D8
:1058E000E6A48730E7A48830E8A48930E9A48A30A8
:1058F000EAA48B30EBA48C30ECA48D30EDA48E3078
:10590000EEA48F30EFA49030F0A49130F1A4923047
:10591000F2A49330F3A49B3061A99C3062A99D301E
:1059200066A99E3067A9A130A1A5A230A2A5A33087
:10593000A3A5A430A4A5A530A5A5A630A6A5A730EB
:10594000A7A5A830A8A5A930A9A5AA30AAA5AB30BB
:10595000ABA5AC30ACA5AD30ADA5AE30AEA5AF308B
:10596000AFA5B030B0A5B130B1A5B230B2A5B3305B
:10597000B3A5B430B4A5B530B5A5B630B6A5B7302B
:10598000B7A5B830B8A5B930B9A5BA30BAA5BB30FB
:10599000BBA5BC30BCA5BD30BDA5BE30BEA5BF30CB
:1059A000BFA5C030C0A5C130C1A5C230C2A5C3309B
:1059B000C3A5C430C4A5C530C5A5C630C6A5C7306B
:1059C000C7A5C830C8A5C930C9A5CA30CAA5CB303B
:1059D000CBA5CC30CCA5CD30CDA5CE30CEA5CF300B
:1059E000CFA5D030D0A5D130D1A5D230D2A5D330DB
:1059F000D3A5D430D4A5D530D5A5D630D6A5D730AB
:105A0000D7A5D830D8A5D930D9A5DA30DAA5DB307A
:105A1000DBA5DC30DCA5DD30DDA5DE30DEA5DF304A
:105A2000DFA5E030E0A5E130E1A5E230E2A5E3301A
:105A3000E3A5E430E4A5E530E5A5E630E6A5E730EA
:105A4000E7A5E830E8A5E930E9A5EA30EAA5EB30BA
:105A5000EBA5EC30ECA5ED30EDA5EE30EEA5EF308A
:105A6000EFA5F030F0A5F130F1A5F230F2A5F3305A
:105A7000F3A5F430F4A5F530F5A5F630F6A5FC3025
:105A800060A9FD3063A9FE3064A90531C5A80631BF
:105A9000C6A80731C7A80831C8A80931C9A80A3162
:105AA000CAA80B31CBA80C31CCA80D31CDA80E3132
:105AB000CEA80F31CFA81031D0A81131D1A8123102
:105AC000D2A81331D3A81431D4A81531D5A81631D2
:105AD000D6A81731D7A81831D8A81931D9A81A31A2
