:020000040800F2
:10000000E0270020C1010008C7200008751F000874
:10001000C52000082D060008152800080000000073
:10002000000000000000000000000000192200088D
:10003000E106000800000000E92000081B2200087B
:10004000DB010008DB010008DB010008DB01000820
:10005000DB010008DB010008DB010008DB01000810
:10006000DB010008DB010008DB010008DB01000800
:10007000DB010008DB010008DB010008DB010008F0
:10008000DB010008DB010008DB010008DB010008E0
:10009000DB010008DB010008DB010008DB010008D0
:1000A000DB010008DB010008DB010008DB010008C0
:1000B000DB010008DB010008DB010008DB010008B0
:1000C000DB010008DB010008DB010008DB010008A0
:1000D000DB010008F5270008DB010008DB01000850
:1000E000DB010008DB010008DB010008DB01000880
:1000F000DB010008DB010008DB010008DB01000870
:10010000DB010008DB010008DB010008DB0100085F
:10011000DB010008DB010008DB010008DB0100084F
:10012000DB010008DB01000831060008DB010008E4
:10013000DB010008DB010008DB010008DB0100082F
:10014000DB010008DB010008DB010008DB0100081F
:10015000DB010008DB010008DB010008DB0100080F
:10016000DB010008DB010008DB010008DB010008FF
:10017000DB010008DB010008DB01000800000000D3
:10018000DB010008DB010008DB010008DB010008DF
:10019000DB010008DB010008DB010008DB010008CF
:1001A000DB010008DB010008DB010008DFF80CD0F0
:1001B00000F02AFA0048004785CD0008E02700201B
:1001C0000648804706480047FEE7FEE7FEE7FEE7F1
:1001D000FEE7FEE7FEE7FEE7FEE7FEE7D1220008C6
:1001E000AD0100082DE9F05F0546002092469B46D0
:1001F00088460646814640241BE02846414647463D
:10020000224600F05DF953465A46C01A914110D378
:1002100011461846224600F044F92D1A67EB0108F2
:100220004F4622460120002100F03BF917EB000960
:100230004E41201EA4F10104DFDC484631462A4627
:100240004346BDE8F09F40EA01039B0703D009E065
:1002500008C9121F08C0042AFAD203E011F8013BB2
:1002600000F8013B521EF9D27047D2B201E000F80B
:10027000012B491EFBD270470022F6E710B513464A
:100280000A4604461946FFF7F0FF204610BD2DE947
:10029000FE4F81EA030404F0004421F00041009481
:1002A0004FF0000B23F0004350EA01045ED052EA05
:1002B00003045BD0C3F30A54C1F30A552C44A4F2DF
:1002C000F3340194A0FB0254C1F3130141F48011F3
:1002D000C3F3130343F4801301FB024400FB034EFA
:1002E000840A970A44EA815447EA8357A4FB0768C3
:1002F00002958D0A05FB07854FEA932C04FB0C54ED
:100300002705029D4FEA065847EA1637B5EB080560
:100310006EEB070C870E920E47EA811742EA8312B2
:10032000A7FB0201B6EB0B0164EB00042B0D43EAC3
:100330000C335E1844EB1C50DA465146E7FB0201D1
:10034000C5F313044FEA0B3343EA14534FEA043264
:10035000019C43EA0603A4F10C040294009CCDE93D
:1003600000B400F003F903B0BDE8F08F00200146AF
:10037000F9E72DE9F04D81EA030404F0004B21F088
:10038000004514464FF0000A23F0004150EA0502F0
:1003900020D054EA01021DD0C5F30A570246C5F326
:1003A0001303C1F31300C1F30A5640F4801543F45C
:1003B0008013A7EB0608101BD64608F2FD3873EB36
:1003C000050002D308F1010801E092185B41B8F181
:1003D000000F03DA00200146BDE8F08D00204FF445
:1003E0008011064684460EE0171B73EB050705D304
:1003F000121B63EB050306434CEA010C49084FEA64
:10040000300092185B4150EA0107EDD152EA030037
:1004100012D082EA040083EA0501084305D0101BCC
:10042000AB4106D20122002306E000224FF0004338
:1004300002E06FF0010253101AEB06004CEB08517A
:1004400010EB0A0041EB0B01BDE8F04D00F07FB866
:100450000EB540F2334102910021CDE900110A4668
:100460000B4600F083F803B000BD01F0004330B448
:1004700021F0004150EA010206D00A0DA2F5607297
:10048000C1F31301002A02DC30BC00207047440F86
:1004900044EAC104C100E01830BC00EBC25000F0D7
:1004A0001FB8202A04DB203A00FA02F1002070472E
:1004B0009140C2F1200320FA03F3194390407047A2
:1004C000202A04DB203A21FA02F00021704721FAA9
:1004D00002F3D040C2F12002914008431946704710
:1004E0000029A8BF7047401C490008BF20F0010048
:1004F000704710B4B0FA80FC00FA0CF050EA010426
:1005000004BF10BC704749B1CCF1200421FA04F4B7
:1005100011FA0CF118BF012121430843A3EB0C0190
:10052000CB1D4FEA00614FEA102042BF002010BCF3
:10053000704700EBC35010440029A4BF10BC7047A3
:10054000401C490008BF20F0010010BC704710B5E6
:10055000141E73F1000408DA401C41F100019218E6
:100560005B411A4301D120F0010010BD2DE9F04D8F
:1005700092469B4611B1B1FA81F202E0B0FA80F2E4
:1005800020329046FFF78DFF04460F4640EA0A00EE
:1005900041EA0B0153465A46084313D0114653EA29
:1005A000010019D0C8F140025046FFF789FF054607
:1005B0000E46504659464246FFF773FF084305D0A2
:1005C000012004E020463946BDE8F08D00200543B7
:1005D00046EAE0762C4337430A986305E40AA0EB29
:1005E00008000022FD0A44EA47540A3002D50020E0
:1005F0000146E9E7010510196941DDE908450019DF
:100600006941BDE8F04DA2E7064C074D06E0E06801
:1006100040F0010394E8070098471034AC42F6D349
:10062000FFF7C8FDEC0901080C0A0108FEE700000D
:10063000014800F043B90000280100200168182398
:10064000CAB2103AB2FBF3F2054B6FF30901032A69
:100650009B5CC36500D9091D816508467047000091
:1006600094E9000810B5014600208B698A6A4FF0B2
:10067000C07453B1B3F5005F15D072B1012A0CD02C
:10068000022A0AD0032A09D104E01AB1012A06D0AD
:10069000022A03D1C96AC90100D5012010BDC96A67
:1006A000A142FAD010BD002AF7D0012AF2D0022AC6
:1006B000F3D0032AF3D010BD30B50468256825F4C3
:1006C00080252560046863608368402B036803D03D
:1006D00099600068C26030BD9A600068C16030BD3A
:1006E000704730B5D1E901231A43D1E903352B43D3
:1006F0001A434B690C681A438B691A43D1E90735D1
:10070000012C496A046807D01A432A436FF30E0488
:100710000A43224302600AE024F4F8442B432143B5
:100720000B43416803606FF30E010A4342600020EF
:1007300030BD426942EA4101416100207047F8B58D
:1007400014460546D1E9000210438A686FF01F0382
:10075000C96803EB421242EA412108430090286134
:1007600000F07CFB064609E0601C07D024B100F0D5
:1007700075FB801BA04201D90320F8BDA869800643
:10078000F2D40020F8BD0000F0B56FF00F05D1E9FC
:10079000003405EB04145B1E23432E018C682F03E9
:1007A00006EB042423434FEA054C0C8A8E8ACD685D
:1007B000097E4FF07F4E07EB04440CEB06560EEB20
:1007C0000161012A0CD082683F1107EB05352B43EC
:1007D0002343334302F070420B43134383600FE023
:1007E0008768084A17402A03A2F580523243C56839
:1007F0003A43234305F070450B432B438260C360AB
:100800000020F0BDFF0F0FFF2DE9F0410446876D7A
:1008100000F024FB064694F835000025022806D097
:100820008020606584F834500120BDE8F0812068A4
:10083000016821F0160101602068416921F0800102
:100840004161206C08B9A06C20B12068016821F0DA
:10085000080101602068016821F0010101600BE0DE
:1008600000F0FCFA801B052806D92020606504F8FA
:10087000345F03206070D8E720680068C007EFD1BC
:1008800094F85C103F208840B86004F8345F012081
:1008900060700020C9E790F83510022903D080214C
:1008A000416501207047052180F835100068016816
:1008B00021F0010101600020704700002DE9F8439C
:1008C00004464FF00009CDF8009063484FF41651EC
:1008D000A56D0068B0FBF1F72E6894F85C10082055
:1008E00000FA01F131420FD021680A6852070BD596
:1008F0000A6822F004020A6094F85C108840A8603C
:10090000606D40F00100606594F85C104FF00108E4
:1009100008FA01F0304208D021684969090604D577
:10092000A860606D40F00200606594F85C100420DF
:100930008840304208D021680968890704D5A8603A
:10094000606D40F00400606594F85C1010208840F1
:10095000304218D021680968090714D5A8602068BA
:100960000168490304D50068000308D5A16C07E0BD
:100970000168C90503D4016821F008010160216CF8
:1009800009B12046884794F85C1020208840304206
:1009900031D021680968C9062DD5A86094F83500C2
:1009A00005282068016806D0490347D50068000380
:1009B0001DD4616C1CE021F01601016020684169C2
:1009C00021F080014161206C08B9A06C20B1206841
:1009D000016821F00801016094F85C103F20884014
:1009E000A86084F8349084F83580216D1FE0E16BB5
:1009F00009B120468847606D00282BD0606DC00784
:100A000014D0052084F835002068016821F0010128
:100A100001600098401C0090B84203D8206800682C
:100A2000C007F6D184F8349084F83580E16C002951
:100A300010D001B02046BDE8F04308470168C90561
:100A4000D5D4016821F01001016084F8349084F855
:100A50003580CCE7BDE8F883180000202DE9F0418F
:100A6000044600F0FBF906465CB1002584F83450DA
:100A7000022084F835002068016821F0010101603E
:100A80000DE00120BDE8F08100F0E8F9801B0528A9
:100A900005D920206065032084F83500F2E720683E
:100AA0000068C007F0D12268116820480140D4E9ED
:100AB00001031843D4E903363343184363691843E9
:100AC000A3691843E3691843236A18430843616A1A
:100AD000042903D1D4E90B1319430843106020689B
:100AE0004069666A20F0070130460E43012704285A
:100AF0000CD1A06A0643E06A40B12046FFF7B2FD80
:100B000020B14020606584F83570BAE720684661FE
:100B10002046FFF793FD94F85C203F2191408160CF
:100B2000656584F835700020ACE700003F8010F068
:100B30002DE9F0410446866D90F834000025012827
:100B40000DD0012084F8340094F835700020012F76
:100B500007D084F8340002252846BDE8F081022041
:100B6000FBE7022784F8357060652046FFF7A4FD97
:100B700094F85C103F208840B0602068016841F024
:100B8000160101602068416941F080014161206CDB
:100B900020B12068016841F0080101602068016807
:100BA00041F001010160D7E770B5044600F056F945
:100BB0000546601C02D004480078044400F04EF959
:100BC000401BA042FAD370BD0C000020F0B52648AF
:100BD00087B00168002944D1012101602348002425
:100BE000016841F0010101600068022500F0010088
:100BF00005904FF63F00CDE9000502AA03260C2719
:100C000082E8D00069461A4800F03CF80D20CDE992
:100C1000000502AA694682E8D000164800F032F8C2
:100C200048F23710CDE9000502AA694682E8D000F3
:100C3000114800F027F84FF68370CDE9000502AAAD
:100C4000694682E8D0000D4800F01CF84CF20370B1
:100C5000CDE9000502AA694682E8D000084800F004
:100C600011F807B0F0BD0000040000203838024041
:100C70000014024000080240001802400010024028
:100C8000000C02402DE9F84FDFF890B100224FF040
:100C900001084FF0030A4FF00F090BF1040E00BFDB
:100CA0000B6808FA02F42340A3426ED14D68022D6E
:100CB00001D0122D0ED1D50800EB850CDCF82050A8
:100CC0005607F70E09FA07F6B5430E69BE402E43E4
:100CD000CCF82060066855000F790AFA05FC07F089
:100CE000030726EA0C06AF40374307604E68012E23
:100CF00005D0022E03D0112E01D0122E0ED18768FE
:100D0000CE6827EA0C07AE403E4386604668A6439D
:100D10000C79C4F30014944034434460C4688E6872
:100D200024EA0C04AE402643C6604C68E4006FD54C
:100D30003B4C256845F480452560246822F0030576
:100D400004F480440094374C2E19D6F808489507CF
:100D50002F0F09FA07F5AC43334DA84201D1002506
:100D60002EE0324DA84201D1012529E0304DA842A4
:100D700001D1022524E02F4DA84201D103251FE017
:100D80002D4DA84202D104251AE041E02B4DA84286
:100D900001D1052514E02A4DA84201D106250FE016
:100DA000284DA84201D107250AE0274DA84201D1CC
:100DB000082505E0254DA84201D1092500E00A25B6
:100DC000BD402543C6F80858DBF800405D464E6834
:100DD0009C43F60300D51C432C60DEF800407546AA
:100DE0004E689C43B60300D51C432C600B4D083560
:100DF0002C684E689C43F60200D51C432C60074DBE
:100E00000C352C684E689C43B60200D51C432C6000
:100E1000521C102AFFF444AFBDE8F88F003C01409B
:100E2000443802400030014000000240000402400B
:100E300000080240000C0240001002400014024072
:100E400000180240001C0240002002400024024022
:100E50000AB1816170470904FBE70000014880681E
:100E6000704700000C00002002488168027811449D
:100E7000816070470C0000200B4810B5016841F4F8
:100E800000710160016841F480610160016841F412
:100E900080710160032000F097F8002000F006F850
:100EA00000F024F8002010BD003C024070B50D4D4C
:100EB00004464FF47A712878B1FBF0F00A490968CA
:100EC000B1FBF0F000F04FFE48B9102C07D2002221
:100ED0002146501E00F058F800206C6070BD0120C3
:100EE00070BD00000C000020180000201F4808B54D
:100EF000016841F480410160006800F48040009086
:100F00001A48001F016841F080510160006800F03C
:100F100080500090032000F057F8002211466FF037
:100F20000B0000F031F8002211466FF00A0000F0CB
:100F30002BF8002211466FF0090000F025F800227E
:100F40001146501F00F020F800221146101F00F03B
:100F50001BF800221146901E00F016F80022BDE892
:100F600008401146501E00F00FB8000044380240FF
:100F700000F01F02012191404009800000F1E020B3
:100F8000C0F8001170470000F0B40E4B1B680C460F
:100F9000C3F30223C3F10705042D00D90425191D4D
:100FA000072901D2002300E0DB1E012606FA05F125
:100FB000491E214099409E40761E16403143F0BCA8
:100FC00001F082B80CED00E0064900F00702086865
:100FD0004FF6FF03184040EA0220034A104308601E
:100FE000704700000CED00E00000FA052DE9F84321
:100FF0001748016841F0805101600068154F00F00A
:101000008050012600903E64FFF728FF05464FF40C
:101010007A78114C05E000BFFFF720FF401B4045E8
:101020000DD86068C003F7D57E64FFF717FF05464B
:10103000464607E0FFF712FF401BB04202D90320EB
:10104000BDE8F88360688003F4D50020F8E700006D
:101050004038024000000E42007000402DE9F04789
:101060000E46050065D0DFF81481D8F80000F7B20D
:1010700000F00F00B04207D288F80070D8F80000E6
:1010800000F00F00B04254D128683D4C810712D5C2
:10109000400703D5206840F4E0502060287800071E
:1010A00003D5206840F4604020602068A96820F0E3
:1010B000F000084320602878C0072DD030496868C8
:1010C0000839012812D0022813D0032811D009684A
:1010D000890700292DDA216821F0030101432160ED
:1010E000FFF7BCFE814641F2883A0EE009688903A9
:1010F000EFE709688901ECE7FFF7B0FEA0EB090113
:10110000514502D90320BDE8F0872068696800F0E6
:101110000C00B0EB810FEFD1D8F80010404601F081
:101120000F01B14207D90770006800F00F00B0420C
:1011300001D00120E7E72878400705D52068E96855
:1011400020F4E050084320602878000706D5206886
:10115000296920F4604040EAC100206000F03CF8BA
:101160002168084AC1F30311515CC8400649086070
:101170000020FFF79BFE0020C5E70000003C024076
:10118000083802409CE90008180000200148006867
:1011900070470000180000200448054900680968ED
:1011A000044AC1F38221515CC840704718000020F6
:1011B00008380240ACE9000804480549006809689D
:1011C000044AC1F34231515CC84070471800002006
:1011D00008380240ACE90008154810B5006810F066
:1011E0000C02144813D01449042A0FD0082A0ED137
:1011F0000F4C241F2268236802F03F025B0207D5D0
:101200002068C0F38810A0FB010106E0084610BD6D
:101210002168C1F38811A1FB00010023FEF7E2FF62
:101220002168C1F30141491C4900B0FBF1F010BD38
:10123000083802400024F40040787D012DE9F84F81
:10124000050076D02878DFF8F8B2BE4CC00749D048
:10125000DBF800105846C1F38101012908D000686D
:10126000C0F3810002280AD1201D0068400206D583
:101270002068800336D568680028E2D032E06868CC
:10128000B0F5803F10D0B0F5A02F206810D020F42A
:1012900080302060206820F4802020606868A0B141
:1012A000FFF7DCFD06460CE0206840F48030F4E7F0
:1012B00040F480202060F7E7FFF7D0FD801B642812
:1012C00073D820688003F7D50CE0FFF7C7FD06460A
:1012D00005E000BFFFF7C2FD801B6428F0D820683E
:1012E0008003F7D42878DFF8608280074FF0000988
:1012F0003ED5DBF80010584611F00C0F09D00068FD
:10130000C0F3810002280BD18D48001F0068400205
:1013100006D42068800715D5E868012809D111E0B6
:10132000E868B8B10120C8F80000FFF797FD06464D
:1013300005E002E1FFF792FD801B0228C0D820687B
:101340008007F7D52068296920F0F80040EAC1003D
:1013500020600DE0C8F80090FFF780FD064604E02D
:10136000FFF77CFD801B02281FD820688007F7D478
:101370002878000722D5724E744869696C3671B1BD
:1013800001210160FFF76AFD074604E0FFF766FDF3
:10139000C01B022809D830688007F7D50EE0C0F8D6
:1013A0000090FFF75BFD074605E083E0FFF756FD81
:1013B000C01B02287ED830688007F7D42878400701
:1013C00068D5DFF87CA100270AF1380ADAF80000B6
:1013D000C0000BD4DAF8001041F08051CAF80010B8
:1013E000DAF80000012700F080500090584E306875
:1013F000C00510D4306840F480703060FFF72EFDD7
:10140000009005E0FFF72AFD0099401A022851D804
:101410003068C005F6D54A4EA868683601280FD056
:101420000528306810D020F001003060306820F0CE
:1014300004003060A868B8B1FFF710FD00900FE01D
:10144000306840F00100F4E740F004003060F7E756
:10145000FFF704FD0099411A41F28830814264D8B7
:1014600030688007F4D50EE0FFF7F8FC009007E045
:10147000FFF7F4FC0099411A41F28830814254D8B8
:1014800030688007F4D42FB1DAF8001021F08051D1
:10149000CAF80010A869C0B3DBF80010C1F38101DD
:1014A00002294AD00228484607D0C8F86000FFF752
:1014B000D5FC00E039E005463AE04746C8F8600050
:1014C000FFF7CCFC064604E0FFF7C8FC801B0228AF
:1014D0002BD820688001F7D4D5E907010843A96A11
:1014E0001C4A490802EB01416A6A41EA8211084339
:1014F00095F82C1040EA01611148001F016001209D
:101500003866FFF7ABFC054605E014E0FFF7A6FCE4
:10151000401B022809D820688001F7D50BE000BFE6
:10152000FFF79CFC401B022802D90320BDE8F88F7E
:1015300020688001F4D40020F8E70120F6E70000DD
:10154000083802400038024000004742800E4742FF
:10155000007000400000FFFF70B50D46040003D08E
:1015600094F82C0010B107E0012070BD002084F831
:101570002D00204600F011F8022084F82C00211DD7
:101580002068FFF7AEF8D4E900022946FFF7FCF81F
:10159000012084F82C00002070BDFFF717BB10B5A8
:1015A000044690F82C00022809D0022084F82C0070
:1015B0002068FFF7BEF8012084F82C00002010BD41
:1015C00070B5044690F82C000D4602280DD002207C
:1015D00084F82C002068FFF7B2F82868022805D0AC
:1015E0005FF0010084F82C00002070BD0520F9E7B1
:1015F00070B5040005D00025A56294F8510010B123
:1016000006E0012070BD84F85050204600F030F80C
:10161000022084F851002068016821F04001016037
:10162000D4E901010843D4E9031211430843616975
:101630000843218B01F400710843E1690843216AE2
:101640000843A16A084321680860A069042101EAEF
:101650001040616A0843216848602068C16921F42C
:101660000061C1616565012084F85100002070BDF2
:1016700000B500680E4987B0884217D10D48002197
:10168000026842F480120260006800F48010059045
:101690004FF4607000900220CDE901010320039017
:1016A0000520049069460448FFF7ECFA07B000BD36
:1016B0000050014044380240001402402DE9F84F28
:1016C000044640680026984617460D464FF0040928
:1016D000B0F5827F01D1A06890B194F85000012844
:1016E00019D04FF0010B84F850B0FFF7B7FB009012
:1016F00094F851004FF0000A01280ED002267FE036
:1017000084F8519013460A462046CDF8008000F038
:1017100031F9BDE8F88F0220FBE7002D6FD0002FD4
:101720006DD084F85190C4F854A0A563A787E787CB
:10173000C4F830A0A4F834A0A4F836A0C4F840A09F
:10174000C4F844A0A0684FF40047B84204D1206810
:10175000016821F48041016020680168490603D4D2
:10176000016841F040010160E068B8B133E02068F1
:101770008168C90706D0007B05F8010BE08F401E89
:10178000E0870BE0B8F1000F23D0B8F1FF3F05D0A0
:10179000FFF764FB0099411A41451AD2E08F0028F7
:1017A000E5D11BE020688168C90706D0C06825F82C
:1017B000020BE08F401EE0870DE0B8F1000F08D06B
:1017C000B8F1FF3F07D0FFF749FB0099411A4145A7
:1017D00001D3032614E0E08F0028E3D16068B0F560
:1017E000827F0AD1A068B84202D0B0F5806F04D1E0
:1017F0002068016821F040010160606D00B10126A0
:1018000084F851B084F850A0304682E72DE9F84FB3
:10181000044690F850000026994617460D460128C8
:101820000DD04FF0010B84F850B0FFF717FB804646
:1018300094F85100B246012804D0022694E0022018
:10184000BDE8F88F002D7BD0002F79D0032084F8DD
:101850005100C4F854A02563A786E786C4F838A0D1
:10186000A4F83CA0A4F83EA0C4F844A0C4F840A04A
:10187000A068B0F5004F04D12068016841F48041B0
:10188000016020680168490603D4016841F0400105
:101890000160E068B0F5006F606804D030B3E08E9E
:1018A000012823D03EE010B1E08E01281AD135F88E
:1018B000021B206805E020688168890706D535F895
:1018C000021BC160E08E401EE0860BE0B9F1000F04
:1018D00034D0B9F1FF3F05D0FFF7C0FAA0EB080103
:1018E00049452BD2E08E0028E5D11EE0216815F88D
:1018F000010B087306E020688168890706D515F892
:10190000011B0173E08E401EE0860BE0B9F1000F71
:1019100014D0B9F1FF3F05D0FFF7A0FAA0EB080102
:1019200049450BD2E08E0028E5D14B460122022129
:101930002046CDF8008000F024FC10B1032613E00F
:1019400011E042464946204600F00BFC18B1012642
:101950002020606508E0A06818B92068C168806828
:101960000090606D00B1012684F851B084F850A059
:10197000304665E72DE9F84F044690F85000002600
:101980000A9F9A4693460D464FF0010801280ED053
:10199000012084F85000FFF761FA814694F8510065
:1019A000616801280CD0B1F5827F07D102E00220E6
:1019B000BDE8F88FA16809B9042801D00226BDE06E
:1019C00055B1BBF1000F07D0BAF1000F04D094F865
:1019D0005100012802D004E00126AFE0052084F880
:1019E000510000206065C4F838B0A4F83EA0A4F807
:1019F0003CA02563A4F836A0A4F834A02064606459
:101A000020680168490603D4016841F04001016083
:101A1000E068B0F5006F606804D0E8B3E08E01289C
:101A20003BD06AE010B1E08E01282ED1216835F854
:101A3000020BC860E08E401EE08626E0B8F1000F81
:101A40000DD0E08E58B120688168890707D535F838
:101A5000021BC160E08E401EE0864FF00008E08F60
:101A600058B120688168C90707D0C0682BF8020BFD
:101A7000E08F401EE0874FF00108781C05D0FFF78B
:101A8000EDF9A0EB0900B84246D2E08E0028D5D18E
:101A9000E08F0028D2D136E0FFE7216815F8010B6E
:101AA0000873E08E401EE08627E000BFB8F1000F0B
:101AB0000DD0E08E58B120688168890707D515F8E8
:101AC000011B0173E08E401EE0864FF00008E08F9E
:101AD00058B120688168C90707D0C0680BF8010BAE
:101AE000E08F401EE0874FF00108781C05D0FFF71B
:101AF000B5F9A0EB0900B8420ED2E08E0028D5D18E
:101B0000E08F0028D2D13B46012202212046CDF8A9
:101B1000009000F036FB08B103260FE04A46394634
:101B2000204600F01EFB18B101262020606505E06C
:101B3000A06818B92068C16880680090012084F806
:101B40005100002084F85000304631E74FF0E0218A
:101B50000428086903D020F004000861704740F0B1
:101B60000400FAE7704710B5401EB0F1807F01D342
:101B7000012010BD4FF0E02460610F21601700F0DC
:101B8000A3FA0020A06107202061002010BD10B53D
:101B9000FFF7E8FF10BD10B504460068416994F8EE
:101BA0003920C1F3C011212A0BD151B1416921F073
:101BB00080014161206B08B1FEF726FE204600F04F
:101BC0000FFC2068416994F83A20C1F38011222A61
:101BD0000BD151B1416921F040014161606B08B105
:101BE000FEF712FE204600F0EDFB002010BD70470E
:101BF00070B5026804461068D168536910F00F0F81
:101C000050D003F0010501F4907635435DD0C20752
:101C100005D0CA0503D5E26B42F00102E263420738
:101C200005D5DA0703D0E26B42F00202E2638207D5
:101C300005D5DA0703D0E26B42F00402E263020743
:101C400005D5DA0703D0E26B42F00802E263E26BEB
:101C5000002A33D0800604D5880602D5204600F03D
:101C6000C8FB20684069E16BC0F38010090700D40D
:101C700028B3204600F0A6FB2068416949061AD522
:101C8000416921F040014161606BA0B11B490165D0
:101C9000606BFEF700FE002810D0606B016DBDE8A0
:101CA00070400847830610D58B060ED52046BDE848
:101CB000704000F09EBB2046FFF799FF70BD2046A4
:101CC000FFF795FF0020E06370BD030606D50B0605
:101CD00004D52046BDE8704000F028BD4006F3D58D
:101CE0004806F1D5D168204621F04001D16020217D
:101CF00084F8391000F03DF970BD0000252300087C
:101D000070B5040004D094F83900002510B106E045
:101D1000012070BD84F83850204600F023F82420BC
:101D200084F839002068C16821F40051C160204660
:101D300000F0A6FB2068016921F490410161206850
:101D4000416921F02A0141612068C16841F40051D4
:101D5000C160E563202084F8390084F83A0000204F
:101D600070BD000070B506460068204986B0884204
:101D70003AD11F480025016841F010010160006858
:101D8000694600F0100005904FF4C06000900220FA
:101D90000190012002900320039007200490154831
:101DA000FEF770FF154C144820604FF00060C4E946
:101DB00001054014C4E903506561C001A561C4E98F
:101DC000075020466562FEF749FE18B1B9210CA004
:101DD00000F021FD7463002201212520A663FFF796
:101DE000D3F82520FFF7C4F806B070BD00100140FD
:101DF00044380240000002404064024028010020B4
:101E00002E2E2F5372632F73746D333266347878AD
:101E10005F68616C5F6D73702E630000F8B50446F7
:101E200090F83A0020283CD1C1B3BAB394F83800F6
:101E3000012836D0012084F83800A162A28500254F
:101E4000E563222084F83A00636B1748D863636B1C
:101E500016481864636B1648D864606B13460565B2
:101E60000846666B216802463046091DFEF760FE93
:101E7000206801684168009184F83850C16841F4D5
:101E80008071C1602068416941F0010141612068B1
:101E9000416941F0400141610020F8BDFFE70120A8
:101EA000FBE70220F9E700007F230008BB230008BE
:101EB00035230008704770472DE9F843044690F831
:101EC00039001F4616460D46202850D1A5B19EB1B7
:101ED00094F8380001284AD0012084F838004FF0E7
:101EE0000008C4F83C80212084F83900FEF7B6FFD2
:101EF000A6848146E68426E00120BDE8F883E08CD4
:101F0000401EE084A0684B46B0F5805F4FF00002B1
:101F10004FF080012046009703D000F038FCE8B96C
:101F20000DE000F034FCC8B928882168C0F308002F
:101F30004860206908B16D1C05E0AD1C03E0216814
:101F400015F8010B4860E08C0028D8D14B460022E0
:101F500040212046009700F01AFC08B10320CCE78E
:101F6000202084F8390084F838800020C5E702205A
:101F7000C3E77047FEE7000000B5164887B0144974
:101F80000022C0E900120121816008211023C0E96C
:101F90000313402343614FF4C073C0E906320A02C1
:101FA00002624A0242628A0282620220CDE9000194
:101FB0000621029103910421CDE90410069069469F
:101FC0000448FFF7C9FA002800D0FEE707B000BDBB
:101FD000400100A0E400002030B5274887B000246D
:101FE000016841F020010160016801F020010591C4
:101FF000016841F080010160016801F080010591F4
:10200000016841F004010160016801F004010591DB
:10201000016841F040010160016801F04001059153
:10202000016841F010010160016801F010010591A3
:10203000016841F008010160016801F008010591A3
:10204000016841F00101016000680C4D00F00100E1
:102050000590012240212846FEF7FAFE402000901C
:102060000120CDE901040220039069462846FEF7CD
:1020700009FE07B030BD00003038024000140240B5
:10208000704700000E4810B50C4901604FF4827192
:10209000416000218160C1604FF400720161C0E9BC
:1020A0000512C1610162416281620A21C162FFF7CA
:1020B0009FFA002800D0FEE710BD0000005001404C
:1020C0004C000020FEE770470907090E002806DAD9
:1020D00000F00F0000F1E02080F8141D704700F1BF
:1020E000E02080F80014704770472DE9F84F0C4647
:1020F0000025012610270095C4E90067C4E90265A0
:102100004FF4805982464A46FFF75AFA6420FEF798
:102110004BFD0220C4E90007C4E902654A46214696
:102120005046FFF74DFA03204FF00408E56084E8BD
:1021300081014A4621465046FFF742FA4FF40C709F
:102140000090C4E90260C4E900874A46214650462F
:10215000FFF736FA5046BDE8F84F40F26A51FFF7F4
:102160001EBA38B50B46009204460022802100F0CA
:1021700008F8002804D0606D40F02000606503205E
:1021800038BD2DE9F0411D4617460E460446DDF8E0
:10219000188035E0681C33D02DB1FEF75FFEA0EB50
:1021A0000800A8422CD32068416821F0E00141607A
:1021B0006068B0F5827F0BD1A068B0F5004F02D007
:1021C000B0F5806F04D12068016821F04001016002
:1021D000A06AB0F5005F0AD1206801684DF6FF7271
:1021E000114001602068016841F400510160012044
:1021F00084F85100002084F850000320BDE8F081ED
:102200002068806836EA000004D00020B842C1D1BE
:102210000020F3E70120F9E7704710B5FEF724FE30
:10222000BDE81040FFF7B3BC30B5274893B0002598
:10223000016841F080510160006800F08050119009
:102240002248016841F4404101600068022400F422
:102250004040119001200090000401908001CDE9E0
:102260000640192008904FF4B470CDE90904042009
:102270000B906846FEF7E2FF00B1FEE7FEF7B6FE00
:1022800000B1FEE70CA90F2081E831004FF4A05007
:102290000F904FF48050109005210CA8FEF7DEFE41
:1022A00000B1FEE7FEF772FF4FF47A71B0FBF1F078
:1022B000FFF759FC0420FFF749FC00221146501E8D
:1022C000FEF762FE13B030BD40380240007000409F
:1022D0001048016841F4700101600F48016841F045
:1022E000010101600C4A00210832116002680B4BA9
:1022F0001A400260031D0A4A1A60026822F4802212
:10230000026005480C3001600249580680390860B7
:102310007047000088ED00E000380240FFFFF6FE45
:102320001030002410B5806B0021C185C184FFF7F7
:102330005EFC10BD70B5846B2068406994F839105C
:10234000C0F3C0100025212904D118B1E58420462E
:1023500000F046F82068406994F83A10C0F3801005
:10236000222904D118B1E585204600F02BF8E06B56
:1023700040F01000E0632046FFF739FC70BD10B557
:102380000146806B09680968C90513D40021C1851D
:102390000168CA6822F48072CA6001684A6922F042
:1023A00001024A6101684A6922F040024A61202123
:1023B00080F83A10FFF77EFD10BD10B5806BFFF777
:1023C0007AFD10BD0168CA6822F49072CA60016883
:1023D0004A6922F001024A61202180F83A107047D0
:1023E0000168CA6822F0C002CA60202180F8391052
:1023F000704710B590F83A10222901D0022010BD84
:102400008168B1F5805F11D00169002901681FD092
:10241000496801F07F03816A4A1C82620B70C18D9A
:10242000491E0904090CC18518D026E00269816A99
:10243000002A0268526805D0D2B20A80816A491C1B
:102440008162ECE7C2F308020A80816A891CF7E71F
:102450004A68816A4B1C83620A70E0E70168CA68B7
:1024600022F49072CA6001684A6922F001024A614E
:10247000202180F83A10FFF71DFD002010BD00005C
:102480002DE9F04104460068016921F44052E168F9
:10249000114301612168C86849F20C6290432369C5
:1024A000A268E5691A4363692B431A430243CA6071
:1024B0002168486920F44072A06910434861E169CD
:1024C0006425B1F5004F9748974A21684FF03208CC
:1024D0003FD0914201D081427CD1FEF76DFE00EBEE
:1024E000C00101EB001061688900B0FBF1F6FEF756
:1024F00063FE00EBC00101EB001061688900B0FBD6
:10250000F1F0B0FBF5F06FF01801484306EB8001E5
:1025100008EB0110B0FBF5F000F0F006FEF74CFE02
:1025200000EBC00101EB001061688900B0FBF1F025
:10253000B0FBF5F006EB0016FEF73EFE00EBC00127
:1025400001EB001061688900B0FBF1F7FEF734FE83
:10255000D2E0914201D081423DD1FEF72DFE00EB49
:10256000C00101EB001061684900B0FBF1F0B0FB65
:10257000F5F00601FEF720FE00EBC00101EB0010B4
:1025800061684900B0FBF1F7FEF716FE00EBC001F1
:1025900001EB001061684900B0FBF1F0B0FBF5F011
:1025A0006FF01801484307EB800108EBC100B0FB56
:1025B000F5F000F0F80006EB4006FEF7FDFD00EB3D
:1025C000C00101EB001061684900B0FBF1F7FEF7B4
:1025D000F3FD3CE055E0FEF7DFFD00EBC00101EB51
:1025E000001061684900B0FBF1F0B0FBF5F00601A6
:1025F000FEF7D2FD00EBC00101EB0010616849005D
:10260000B0FBF1F7FEF7C8FD00EBC00101EB0010D5
:1026100061684900B0FBF1F0B0FBF5F06FF0180114
:10262000484307EB800108EBC100B0FBF5F000F078
:10263000F80006EB4006FEF7AFFD00EBC00101EB32
:10264000001061684900B0FBF1F7FEF7A5FD00EB53
:10265000C00101EB001061684900B0FBF1F0B0FB74
:10266000F5F06FF01801484307EB800108EBC1005B
:10267000B0FBF5F000F00700216830448860BDE849
:10268000F081FEF789FD00EBC00101EB00106168ED
:102690008900B0FBF1F6FEF77FFD00EBC00101EB16
:1026A000001061688900B0FBF1F0B0FBF5F06FF04D
:1026B0001801484306EB800108EB0110B0FBF5F070
:1026C00000F0F006FEF768FD00EBC00101EB001022
:1026D00061688900B0FBF1F0B0FBF5F006EB001685
:1026E000FEF75AFD00EBC00101EB001061688900A4
:1026F000B0FBF1F7FEF750FD00EBC00101EB00105D
:1027000061688900B0FBF1F0B0FBF5F06FF01801E3
:10271000484307EB800108EB0110B0FBF5F000F037
:102720000F00A9E7001401400010014090F8391093
:10273000212901D0022070478168B1F5805F016ACC
:102740000BD04A1C0262026809785160C18C491E94
:102750000904090CC1840ED017E009880268C1F38E
:102760000801516001690029016A02D0491C016217
:10277000ECE7891CFBE70168CA6822F08002CA60A6
:102780000068C16841F04001C160002070472DE938
:10279000F041984617460E460446069D1DE0681C0B
:1027A0001BD02DB1FEF75AFBA0EB0800A84214D9AC
:1027B0002068C16821F4D071C1602068416921F0AE
:1027C00001014161202084F8390084F83A0000209A
:1027D00084F838000320BDE8F0812068006836EAFC
:1027E000000004D00020B842D9D00020F3E7012037
:1027F000F9E7000010B50648FFF7FAF90448006849
:10280000C068C00603D5BDE810400BF0E1BD10BDA7
:10281000A4000020FEE7FEE70FB4054B10B503A9A6
:10282000044A029800F0B2F810BC5DF814FB0000F6
:10283000C95A0008400000200FB4084B10B504A985
:1028400002AA039800F0A2F8044602A9002000F0B2
:10285000CEFA204610BC5DF814FB0000EF2D0008F6
:1028600002E008C8121F08C1002AFAD17047704759
:10287000002001E001C1121F002AFBD1704710B5F2
:1028800048B14188021D8C5A091D01F008F98442A3
:1028900003D0022010BD012010BD002010BD00207B
:1028A0007047000006484FF0FF31816000214174FD
:1028B0000160C0F80D10C0F812104160017370473C
:1028C000A8110020704700002DE9F05F06004FF0CE
:1028D0000000ADF5825D0446054609D077884FF4C7
:1028E000815ABF1DEB46574507D84FF001093DE01F
:1028F00003200DF5825DBDE8F09FA7F5815141F2FF
:102900001F02B1FBF2F1491C01F0FF0913E055B3BE
:10291000681C8DF80000D046311941F21F020BF1FE
:10292000010000BFFDF78FFC4146584600F05AFDFC
:1029300010B30628DDD14D45E9D3BC42D9D26D1C78
:102940002644EDB2B7EB04045F468DF800502246F2
:102950003146781CFDF777FC611C384600F042FDDB
:102960000628F1D0C5E75046874200D83846804651
:10297000024631195846D5E72DB141F21F010C44EA
:102980006D1CEDB2D7E74444FAE700002DE9FF4F94
:102990008DB00F460546002606E025280BD0DDE960
:1029A0000F1290476D1C761C28780028F5D111B0C5
:1029B0003046BDE8F08F0024A246A1460122EC4932
:1029C00000E0044315F8013F203B02FA03F00842FF
:1029D000F7D128782A2810D06FF02F022878A0F19C
:1029E0003001092914D80AEB8A0102EB410144F0B5
:1029F000020400EB010A6D1CF0E701CF5FEA000A58
:102A000003D544F40054CAF1000A44F002046D1CDA
:102A100028782E2817D115F8010F44F004042A282D
:102A20000ED06FF02F022878A0F1300109290AD8C2
:102A300009EB890102EB410100EB01096D1CF2E792
:102A400057F8049B6D1C28786C280FD006DC4C28A6
:102A500017D068280DD06A2814D104E0742810D04B
:102A60007A280FD10DE044F400140AE044F48014F5
:102A700001E044F440146978814202D104F58014E5
:102A80006D1C6D1C2A786E2A1FD00CDC632A31D095
:102A900004DC002A8BD0582A11D1A3E0642A68D024
:102AA000692A0CD165E0732A2ED004DC6F2A73D01A
:102AB000702A04D19BE0752A6FD0782A6ED0104618
:102AC000DDE90F129047761C50E1C4F30250022852
:102AD00006D0032809D0042801CF09D0066045E1BB
:102AE00001CFF117C0E9006140E101CF06803DE16F
:102AF00006703BE117F8040B8DF8000000208DF8FC
:102B00000100EB46012003E057F804BB4FF0FF3013
:102B100061074FF0000102D40DE008F10101884681
:102B200049450FDA8045F8DB1BF808100029F4D17D
:102B300008E008F1010188468142FADB1BF8081021
:102B40000029F6D1DDE90F23AAEB080081462146D2
:102B500000F036F9304400EB080604E0DDE90F121E
:102B60001BF8010B9047B8F10108F7D221464846FF
:102B7000F7E00A21C4F302534FF0000B0891022B37
:102B800004D001CFC117032B09D00AE0FF1D27F0A5
:102B90000707F7E8020108E032E01FE020E000B29A
:102BA000C117042B01D140B2C117031E71F10003FC
:102BB00007DA4FF0000CD0EB0C006CEB01012D2379
:102BC00002E0230504D52B238DF82430012303E0F4
:102BD000E30701D02023F7E7984658E00A2110E0E8
:102BE00010210EE010204FF0000B08900CE0102197
:102BF0004FF0000B44F004044FF00809089103E083
:102C000008214FF0000B0891C4F30253022B04D0AB
:102C100001CF0021032B06D006E0FF1D27F0070798
:102C2000F7E8020103E080B2042B00D1C0B24FF0FC
:102C3000000823072BD5702A07D0DDF820C08CF0C0
:102C4000100C5CEA0B0C05D00EE040238DF824300C
:102C5000012308E050EA010306D030238DF8243028
:102C60008DF8252002239846DDF820C08CF0080C52
:102C70005CEA0B0C0BD150EA010301D1630706D5C6
:102C800030238DF824304FF00108A9F10109582AAA
:102C900004D038A20B9208AA0A920BE03AA2F9E7F4
:102CA0005B46089AFDF79EFA0B9B9B5C0A9A521EA4
:102CB0000A92137050EA0102F2D10A98ADEB0000BB
:102CC00000F1200B600702D524F4803401E04FF0BE
:102CD0000109D94502DDA9EB0B0000E0002000EB63
:102CE0000B0141440890AAEB010AE00306D4DDE998
:102CF0000F232146504600F063F806444FF00009C8
:102D000008E009A911F80900DDE90F12904709F15F
:102D10000109761CC145F4DBE0030CD5DDE90F2386
:102D20002146504600F04CF8064404E0DDE90F125D
:102D300030209047761C0899481E08900029F5DC41
:102D400008E00A980A990078491C0A91DDE90F12F7
:102D50009047761CBBF10001ABF1010BF1DC214681
:102D60005046DDE90F2300F019F806446D1C1BE600
:102D70000928010030313233343536373839616251
:102D80006364656600000000303132333435363715
:102D90003839414243444546000000002DE9F041E6
:102DA000044600251E461746880404D405E039462B
:102DB0002020B0476D1C641EF9D52846BDE8F0817F
:102DC0002DE9F041044600251E469046C80301D572
:102DD000302700E02027880404D505E04146384626
:102DE000B0476D1C641EF9D52846BDE8F0810A681D
:102DF000531C0B60107070472DE9F0470646486879
:102E0000D718DDF8208015460C464FF01709B84258
:102E100004D3E068984201D3206830B93168C1F822
:102E200014903068016830468847A069A84203D8EA
:102E300021690844B84220D2A06A30B931684720DD
:102E400048613068016830468847606A30B10122C5
:102E50002146304600F090FE00206062A069A84242
:102E600001D2A56104E02069381A00D50020A061D4
:102E700000222146304600F07FFEE069B84225D2AC
:102E8000A8420DD2B8F1000F08D03168C1F81490F3
:102E90003068016830468847284604E0284603E049
:102EA000B8F1000F00D0E761216AD9B1A1684FEAFB
:102EB000C119A169461A7F1A06E02068494650F8F0
:102EC0002600FDF7D9F9761CBE42F6D3B8F1000F03
:102ED00001D001206062A1692068691A00EB8100BD
:102EE000BDE8F087B8F1000FF3D13168C1F8149054
:102EF0003068016830468847EDE72DE9F04706461F
:102F00004868D718DDF8208015460C464FF01709A1
:102F1000B84204D3E068984201D3206830B93168E0
:102F2000C1F814903068016830468847A069A8420B
:102F300003D821690844B84220D2A06A30B9316868
:102F4000472048613068016830468847606A30B180
:102F500001222146304600F04AFE00206062A0694E
:102F6000A84201D2A56104E02069381A00D50020EA
:102F7000A06100222146304600F039FEE069B842E7
:102F800024D2A8420DD2B8F1000F08D03168C1F8A0
:102F900014903068016830468847284604E0284687
:102FA00003E0B8F1000F00D0E761216AD1B1A16957
:102FB000D4F80890461A7F1A06E02068494650F86F
:102FC0002600FDF759F9761CBE42F6D3B8F1000F82
:102FD00001D001206062A1692068691A00EB8100BC
:102FE000BDE8F087B8F1000FF3D13168C1F8149053
:102FF0003068016830468847EDE72DE9F041074623
:103000000868984616460D4618B9384603F0A8FEDB
:10301000286011223146FDF716F900240120315CA9
:10302000401C0C441028FADD601EFF2806D93968C0
:103030000920486138680168384688472868224670
:1030400041461130FDF7FFF829680020C1F814014E
:10305000BDE8F0812DE9F0478A4681464668D001F7
:103060004FF6F071B1FBF0F41D461746002C08DC5A
:10307000D9F8000048214161D9F8000001684846AC
:103080008847AC4200DB2C46AA00514648463465CE
:1030900000F094F88046002614E0A81BA04200D857
:1030A000044604FB07F0C2015146484600F00FF801
:1030B000210007D048F8260000EBC710491E06F192
:1030C0000106F7D1AE42E8D34046BDE8F0872DE9CE
:1030D000F047064647684FF6F0701546884682422C
:1030E00003D90321304609F027FF15F0070002D06D
:1030F000C0F108000544B8F1020F09D331680F2070
:1031000048613168C1F818803068016830468847E6
:1031100005F110018946304609F0DEFA040003D1BA
:103120000421304609F008FFF96C01EB0900F8644E
:1031300007EB8800C16BC4E900150021A160C463DE
:1031400004F11000BDE8F0872DE9F047814646689C
:1031500017464FF6F070B0FBF7F41D468A46002C78
:1031600008DCD9F8000048214161D9F80000016865
:1031700048468847AC4200DB2C46AA0051464846E8
:10318000346500F01BF88046002612E0AA1BA2421C
:1031900000D9224614467A4351464846FFF797FF26
:1031A000220006D048F826003844521E06F10106D7
:1031B000F8D1AE42EAD34046BDE8F0872DE9F047AA
:1031C0008046D0F804904FF6F07016460D468242C5
:1031D00003D90121404609F0AFFE16F0070002D0E6
:1031E000C0F108000644022D0BD3D8F800000F21CF
:1031F0004161D8F800008561D8F8000001684046B8
:10320000884709EB850A0024DAF8340004E0816875
:10321000B14204D2044600680028F8D100E0E0B9C9
:1032200006F110072CB31A4850F82550C7F5803026
:10323000A84200D205467919404609F050FAD8B1A3
:10324000D9F84C107A190A440021C9F84C200160C1
:10325000416071198160BCB12060426800F11001C9
:103260001144324442608268921B82600846BDE885
:10327000F08707480838D7E76D08322DDBD20221E6
:10328000404609F059FED6E7CAF83400E5E70000E9
:10329000E8F100082DE9F0410F4609780546D0F81D
:1032A000A4414F4B01F07F004FF4004653F820003B
:1032B000236900F0FF0E001200F0FF0C00121B1A31
:1032C0002361B2EBE11F0AD0834203DBE2681A44B8
:1032D000C4E9032001F0800080EA0E000BE0B34255
:1032E0007BDA834203DAE2681A44C4E9032001F07E
:1032F000800080EA0C003870206940002061E0689E
:103300004000E060E169491EE16163D1C714FF2F0D
:1033100020DD206A002816DBA06906E0294600208F
:1033200000F0B1FDA069401EA0610028F6D1206A1E
:103330002946401C00F0A7FD206AFE2803D129463B
:10334000002000F0A0FDD4E905100844A061002091
:10335000606136E003D16069401C606133E0206A3F
:10336000002802D014DBA0690CE0A06900F1010084
:10337000A0610DE029464FF0000000F084FDA06937
:10338000401EA0610028F5D12946206A00F07BFD8F
:103390006069B0B1A06906E02946002000F073FD25
:1033A000A069401EA0610028F6D12946FF2000F048
:1033B0006AFD2946002000F066FD6069401E6061DC
:1033C000F3D1F8B22062E068C0F31200E060E06977
:1033D0000830E0612069B0428EDBBDE8F08100007A
:1033E00018EE000810B50BF02BF8002010BD0000FF
:1033F0002DE9F84F4FF000040F460600A2460CD00E
:103400005FB1DFF81081D8F8000030B1DFF8089123
:1034100041F21F0B09F5815577E00320BDE8F88FD5
:10342000A868401C09D1305DA5286DD10020A86096
:10343000042129602873401C66D0286840B1A9681F
:10344000335D09F80130491CA960401E28605BD13A
:10345000287B30B1012834D0022825D0032853D14D
:103460003CE04846C5F81290FFF719FAC8B9D5F8FC
:1034700012004178408881B1011DB1FBFBF1491C6C
:10348000C5F80D100221697441F21C022A60A0F5F2
:10349000805029731A38686036E0801C286001204B
:1034A00031E0FFF7FFF92FE0686820B103202873AF
:1034B0000120286028E0687CD5F80D10401E81426C
:1034C000EFD115480090FFF7DAF90028E9D100980C
:1034D000D8F800204188001D9047E2E7A868401E08
:1034E000A86019F80010687C8142DAD1401C687429
:1034F00068685946884201D3296001E02860014686
:10350000401A686002202873641CBC4288D350466D
:1035100084E700001C00002088010020002803D060
:1035200002490860FFF7BEB9704700001C00002088
:1035300070B5C0B00D46060012D08DB16C46204665
:10354000FFF7C0F9A5208DF80000A81D0021ADF8F7
:103550000250B0F5815F06D901208DF8010004E02A
:10356000032040B070BD8DF801102A463146201D61
:10357000FCF769FEBDF802102046091D00F08FFA25
:10358000BDF80220211D50522046FFF79DF9E8E7C3
:103590007FB5ADF5107D0546989E1C466CA88E91B2
:1035A00009F05EFB00904FF4D8725021684603F09A
:1035B00017FB92AA8EA9684609F03CF90120CDE9D3
:1035C00008608DF828000794684609F07BFA01220C
:1035D0003C21684609F008FB0121684609F00FFB11
:1035E00008E000BF00FB04508D9001228DA96846C1
:1035F00009F075FB089941988842F3D3684608F0B2
:103600003FFF684603F034FD92980DF5147D70BDC0
:103610002DE9FF4FD0F8981181B0C0698C680090F7
:1036200055E0029802C80290106850F823E05068F4
:1036300050F823B0906850F823A0D06850F8239039
:1036400000205B1C40E000BF11F8015BC5F1FF07E3
:1036500011F8015BC5F1FF0611F8025B04EB860669
:1036600011F8018C09F80080C5F1FF0554F827C056
:10367000D6F8008404EB8505C444D5F8008804EB33
:103680008707C4444FEA1C480EF8008006F58056B0
:10369000D7F800CCD6F8008005F58055C444D5F89D
:1036A000008407F58057C4444FEA1C480BF800809B
:1036B000D7F80074D6F80068D5F8005C3E4435446D
:1036C0002E0C0AF80060401C009DA842BCD30E9846
:1036D000401E0E90A5D505B0BDE8F08F2DE9F34F43
:1036E0000746D0F89041D0F8340189B0401E0690CA
:1036F000D7F81C01401E089020690590616981423D
:103700007EDDE06888E00026304674E007EB8A0042
:103710000422D0F82451D7F8A001696802EB810196
:10372000405806990790894501D2A86B00E0A86C23
:1037300005998346686C00FB09F00490A86A484329
:103740000390002051E0A1680898814204D30598B5
:10375000E96C404488422ADADDE903128DE8060864
:1037600004EB8600696883690A98DDF81CC050F88C
:10377000212029463846E047A86B58452DDDA0EBAF
:103780000B00C10106EB0B0004EB80008069FCF725
:1037900073FD584607E0311804EB8101401C4A696B
:1037A000896912880A80A96B8142F4DC15E0A86B54
:1037B000C10104EB860000908069FCF75DFD0020EC
:1037C00008E0009949690A88311804EB8101401C1E
:1037D00089690A80A96B8142F3DCA86BA96A064457
:1037E00003980844039008F10100E96B80464145C5
:1037F000A9DC0AF10100D7F820118246514500E00A
:103800001BE083DCD7F8A40104F1180142683846B4
:10381000904758B109F101000699814688427FF628
:1038200072AF0020E0600598401C66E70598C4E987
:10383000039000200BB0BDE8F08FA068401CA06092
:1038400038460AF0A0F90120F4E700002DE9F34F13
:1038500091B08146D0F890010B90D9F81C014FF03F
:103860000008401E0E90D9F8544094E001200090CA
:103870000B98E368826800EB88005A43016CD9F822
:103880000400056A4846A84782460B9881680E984E
:10389000814201D2E06808E0216AE068B1FBF0F201
:1038A00000FB12115FEA010B00D18346E06906902C
:1038B000A668B0FBF6F106FB1105002D00DD751BB7
:1038C0000422D9F8A01102EB8800002708580F90B5
:1038D00029E000BF5AF827000390A06A0021069A49
:1038E00078438DE807001298DDF83CC0214650F877
:1038F00028204846039BE047002D13DD06990398D6
:1039000000EBC110E9010390FCF7B6FC039830F915
:10391000801C002004E0039A02EBC012401C1180BE
:10392000A842F8DB7F1C5F45D4DB0B9881680E98BA
:1039300081422DD1069828440690B0FBF6F05D46F2
:10394000059022E00AEB85005AF8257050F804BC77
:103950000698C1013846FCF78FFC002111E000BF3A
:103960000BEBC612002032F9803C04E007EBC01CD0
:10397000401CACF80030B042F8DB07EBC6179346AA
:10398000491C05988142EBD36D1CE068A842D9DC44
:1039900008F101085834D9F84C1041453FF766AF9B
:1039A000129913B04846BDE8F04F00F001B800008E
:1039B0002DE9F04F85B0054600260DF1040BD0F837
:1039C000904113E005EB86000021D0F8240100911E
:1039D000A268C36840685A4304EB8000016C6868C1
:1039E000076A2846B8474BF82600761CD5F8200110
:1039F000B042E7DC206940E0E06835E00026304670
:103A000024E000BF05EB8001D1F824210021D2F889
:103A1000388008FB09F815E05BF8207001EB0A0319
:103A200057F8233003EBC817002306E004EB860C9D
:103A30005B1C761CCCF818708037D2F838C09C45D7
:103A4000F4DC491CD36B8B42E6DC401CD5F820111A
:103A50008142D7DCD5F8A40104F118014268284658
:103A60009047C0B109F10100D5F8341181464945AC
:103A7000C4D80020E0600AF1010061698246514526
:103A8000BADCA068401CA06028460AF07CF801203F
:103A900005B0BDE8F08FC4E9039A0020F8E710B53F
:103AA00004464FF6FF7000220EE0030A43EA0023AB
:103AB000A05C5840C0F30313584080EA003080B245
:103AC000C3B280EA4310521C8A42EED310BD2DE9E6
:103AD000F05FD0F810510446D0F88CB1C26C05EB01
:103AE00085008000424360680121036820469847B2
:103AF00006460027D4F8549039E0D9F81C00D4F8D1
:103B0000141105EB45034843D4F80C114843D9F888
:103B1000081090FBF1F260680121D0F808C020463F
:103B2000E047804605EB4500820006EB85008246B3
:103B30004146FCF788FB00200CE000EB450258F8FA
:103B4000221046F8201058F8201000EB8502401C87
:103B500046F82210A842F0DB0BEB870105EB85004D
:103B600006EB800609F158097F1CC1F808A0E06C3B
:103B7000B842C2DCBDE8F09F2DE9F84F8346886863
:103B80008E69C7017E4392460C46002501F130093B
:103B900028E06069491B884200DB0846A169E269A8
:103BA0002944521A824200DC10466268511A81424E
:103BB00000DC0846002818DD00FB07F8CDF800807F
:103BC0002068BAF1000F50F8252002D0D4F834C094
:103BD00001E0D4F830C0334649465846E0476069B2
:103BE000464405442169A942D3DCBDE8F88F2DE99C
:103BF000F84F8F688E6992467E430C4683460025B7
:103C000001F1300928E06169401B814200DA084671
:103C1000A169E2692944521A824200DC10466268B6
:103C2000511A814200DC0846002818DD00FB07F825
:103C3000CDF800802068BAF1000F50F8252002D09E
:103C4000D4F834C001E0D4F830C033464946584671
:103C5000E0476069464405442069A842D3DCBDE8DA
:103C6000F88F70B50446806F8569E968884738B970
:103C7000A16F192009684861A06F01680968884729
:103C8000286820676868606770BD70B50546006A7F
:103C90008469E1688847002804D02068286060684B
:103CA0006860012070BD70B50C460546C1F3072160
:103CB00000F004F9E1B22846BDE8704000F0FEB81B
:103CC000C36E00EB810133B1C86D50F82210491C5E
:103CD00040F822107047C96B8B1851F8221093F8E6
:103CE00000341A4600F03AB810B50446EE2100F050
:103CF00065FA0E212046FFF7D6FF4121204600F04D
:103D0000DDF86421204600F0D9F86F21204600F04C
:103D1000D5F86221204600F0D1F86521204600F058
:103D2000CDF864212046FFF7BEFF00212046FFF7B3
:103D3000BAFF00212046FFF7B6FF94F85000032891
:103D400007D0052807D000212046BDE8104000F02C
:103D5000B5B80121F8E70221F6E700002DE9F041AE
:103D60000769150004460E4607D1A16F292009688E
:103D70004861A06F016809688847E06E00282CD16F
:103D80000120A840401E30407E19C6F11801E568A8
:103D9000884005431DE000BF206FC5F30747411C65
:103DA00021670770606F401E606702D12046FFF7F1
:103DB00058FFFF2F0BD1206F0022411C216702709A
:103DC000606F401E606702D12046FFF74AFF2D0258
:103DD000083E082EE0DAC4E90356BDE8F0812DE97B
:103DE000F041C768150004460E4607D1216A292014
:103DF00009684861206A0168096888470120A8406D
:103E0000401E30407E19C6F11801A5688840054360
:103E100020E02068C5F30747411C216007706068F7
:103E2000401E606004D12046FFF72FFF002816D007
:103E3000FF2F0DD120680022411C216002706068B4
:103E4000401E606004D12046FFF71FFF002806D007
:103E50002D02083E082EDCDAC4E902560120BDE836
:103E6000F08170B50646C06E14460D46002809D193
:103E700006E0297801223046FFF770FF641E6D1CB2
:103E8000002CF6D170BD10B50C460146A269106831
:103E9000431C136001705068401E50600DD1D16802
:103EA00020468847002808D12168192048612068E9
:103EB00001682046BDE81040084710BD10B5826972
:103EC00004461068431C136001705068401E506027
:103ED0000DD1D16820468847002808D121681920D3
:103EE0004861206801682046BDE81040084710BDC1
:103EF000F0B589B00746002001466D4604AE315446
:103F00002954401C1028FADB00200121D7F8203169
:103F100012E000BF07EB8002D7F86841D2F82421F5
:103F200024B9D7F870410CB954692955D7F86C41B8
:103F30000CB19269B154401C8342EBDC0024204652
:103F4000295C325C401C11440C441028F8DB002C26
:103F500029D0CC21384600F031F9022000EB440191
:103F60003846FFF7A0FE0024285D60B121463846A0
:103F7000FFF7A4FF381910F8981F007C01EB00111F
:103F80003846FFF79BFF305D50B104F11001384611
:103F9000FFF794FF381990F8B8103846FFF78EFFF6
:103FA000641C102CE0DB09B0F0BD2DE9F0410E4699
:103FB000074600EB86001AB11036D0F8884000E0C2
:103FC000846F44B93968342048613868866138683C
:103FD000016838468847D4F81401002828D1C42144
:103FE000384600F0EBF800250120215C401C0D4410
:103FF0001028FADD05F113013846FFF754FE31466B
:104000003846FFF75BFF01263846A15DFFF756FFF4
:10401000761C102EF8DD002605E0A019417C3846FC
:10402000FFF74CFF761CAE42F7DB0120C4F8140109
:10403000BDE8F0812DE9F0410F46044600EB870012
:10404000856D45B921683620486120688761206800
:1040500001682046884700263046D4F8801109E0E0
:10406000D4F87C2152F8202035F81220FF2A00D9FC
:104070000126401C8142F3DAD5F8800078BBDB21B1
:10408000204600F09BF826B1D4F880014100491D7C
:1040900002E0D4F88011091D2046FFF704FE07EB6B
:1040A00006112046FFF70AFF002711E0D4F87C0133
:1040B00050F8270035F8108026B14FEA1821204625
:1040C000FFF7FCFE08F0FF012046FFF7F7FE7F1C1C
:1040D000D4F88001B842E9DA0120C5F88000304602
:1040E000BDE8F08170B50446D0F88000002824D0E7
:1040F000002500E06D1C4010FCD10E2D07DDA16FE6
:10410000292009684861A06F0168096888472A0169
:104110002046E16FFFF7D4FD2DB12A462046D4F8A2
:104120008010FFF71BFE0025C4F88050D4E9212140
:104130002046FFF796FEC4F8845070BD10B50446C3
:10414000E02100F03BF810212046FFF7ACFD4A21AA
:104150002046FFF7B3FE46212046FFF7AFFE492178
:104160002046FFF7ABFE46212046FFF7A7FE0021C1
:104170002046FFF7A3FE94F8F8102046FFF79EFEB6
:1041800094F8F9102046FFF799FE94F8FA102046AB
:10419000FFF794FEB4F8FC102046FFF784FDB4F856
:1041A000FE102046FFF77FFD00212046FFF786FE28
:1041B0002046BDE810400021FFF780BE70B50C46D8
:1041C0000546FF21FFF77AFE21462846BDE87040EC
:1041D000FFF774BE10B5046800290ADAE16E11B168
:1041E000A16E032901DBA1688847E06E401CE066F0
:1041F00010BDA26E8A42FBDBA168BDE810400847F3
:104200002DE9F0410E460546D0F8A44101F0C8F86A
:104210002946FF20FFF737FE294606F1D000FFF7B9
:1042200032FE0026B04623E005EB8600D0F824716C
:10423000D5F8680178B9D5F8700160B9786940217E
:1042400004EB8000C06CFCF717F804EB8600C0F8A4
:104250002480C0F83480D5F86C0140B1B8694FF4BF
:10426000807104EB8000D0F88C00FCF705F8761C18
:10427000D5F82001B042D7DC4FF48031C4E9038186
:10428000C4F814800B20C4E906804FF0FF30206290
:10429000BDE8F08170B50D460446FFF723FFE06EE0
:1042A000D0B9204601F028FB206FFF22411C216776
:1042B0000270606F401E606702D12046FFF7D1FC9C
:1042C000206FD035411C21670570606F401E60670C
:1042D00002D12046FFF7C5FCA06F0021D0F868018D
:1042E00040B144F8801F616070BD00BF04EB8002E4
:1042F000401C5161A26FD2F820218242F6DC70BDD1
:1043000070B50D46044601F001FB002828D0206856
:10431000FF22411C216002706068401E606004D171
:104320002046FFF7B2FC00281AD02068D035411C87
:10433000216005706068401E606004D12046FFF770
:10434000A4FC00280CD00020014603E004EB80020E
:10435000401C1161226AD2F820218242F6DC012041
:1043600070BD70B50446FFF729FFE06C00EB40011B
:1043700020460831FFF797FC616C4FF48030814292
:1043800002DA216C81420ADB21682A204861216817
:104390004FF6FF70886120680168204688472046F4
:1043A000A16CFFF78BFD2046616CFFF77CFC20467B
:1043B000216CFFF778FC2046E16CFFF77FFD0026BB
:1043C000656D10E020462968FFF778FDD5E90210F9
:1043D00000EB01112046FFF771FD20462969FFF728
:1043E0006DFD5835761CE06CB042EBDC70BD000012
:1043F00070B50446DA21FFF7E1FED4F8200106216A
:1044000001EB40012046FFF74EFC2046D4F8201176
:10441000FFF754FD002519E004EB8500D0F8246176
:1044200020463168FFF74AFDD4F8680110B9D4F886
:10443000700110B35FF00000D4F86C1101B1B169E4
:1044400001EB00112046FFF739FD6D1CD4F8200167
:10445000A842E1DC2046D4F86811FFF72FFD204682
:10446000D4F86C11FFF72AFDD4E95C1000EB0111C0
:104470002046BDE87040FFF721BD7069DCE72DE9FB
:10448000F04184690646606A4700384608F0FAFC45
:10449000050009D131683820486131680A208861F7
:1044A0003068016830468847D4E908122846FBF78F
:1044B000CAFEE06908B101F017FBE561606A4119C5
:1044C000C4E90010C4E908570120BDE8F0810000EC
:1044D0002DE9F34F0546D0F8A441D0F8EC0085B0A3
:1044E00088B1606C60B92846A16CFFF789FED5F8E9
:1044F000EC00606494F84800401C00F00700A064E1
:10450000606C401E60640020D5F87CB129E10299FE
:10451000069850F8219005EB8100D0F8400105EB9A
:10452000800104EB8000D1F824110391824649698F
:10453000049104EB81010191C96C426B406A8E18B1
:10454000B9F900100F1A11D0CAF82410012231460F
:104550002846FEF79FFE002F11DD0022711C284621
:10456000FEF798FE06F10208042111E00022314610
:104570002846FEF78FFE0020CAF834004FE07F4245
:104580000122711C2846FEF785FE06F1030808216A
:104590000026CAF834107F1E009715D0012241462C
:1045A0002846FEF777FEDDE900700126C06C143066
:1045B00007E0014601222846FEF76CFE760008F16E
:1045C000010080467F10F4D1002241462846FEF7C4
:1045D00061FE04982918012091F8982000FA02F24F
:1045E000B6EB620F01DA002008E091F8A8108840CD
:1045F000B6EB600F04DDDAF834000830CAF8340096
:1046000008F10E0709E00098064201D0012200E0FF
:10461000002239462846FEF73DFE7610F3D1D5F844
:104620008001B0F100087BD003988069CDF80400C8
:104630005BF8281039F8110020B9A8F101005FEAF1
:104640000008F5D1002778E00198002204EB8000F3
:104650000490D0F88C1007EB47000E18314628461E
:10466000FEF718FE05E00022711C2846FEF712FE38
:10467000F61C7F1C5BF8271039F911005FEA000A6D
:10468000F1D00122711C2846FEF704FEBAF1000F9A
:1046900001DD002202E0CAF1000A012204F1CC018E
:1046A0002846FEF7F7FDB61C00960026BAF1010079
:1046B00003902CD0012228460099FEF7EBFD0398C9
:1046C000012640105FEA000A21D001222846009905
:1046D000FEF7E0FD04980226D0F88C1001982844DB
:1046E00090F8B800B84201DBBD2000E0D9200844B2
:1046F00007E0012228460099FEF7CCFD00987600DD
:10470000401C00904FEA6A005FEA000AF1D10022E3
:1047100028460099FEF7BEFD009800F10E0A0AE057
:104720001DE00398064201D0012200E0002251461C
:104730002846FEF7AFFD7610F3D1474584DBD5F868
:104740008001B8420BDD019807EB470104EB8000C4
:104750000122D0F88C0001442846FEF79BFD029808
:10476000401C0290D5F83C1181423FF7D0AE07B013
:104770000120BDE8F08F2DE9FE4F0646D0F8A44198
:1047800080690D4600682067B06940686067D6F8A8
:10479000EC0028B1606A18B92046A16AFFF77AFDDB
:1047A000D6F86CA1D6F874010190D6F87C0102907D
:1047B0000027D5F800B0D6F8680145E0029850F817
:1047C00028103BF91150002D15D008DA0198C5F1D9
:1047D000000545FA00F56FEA0500009003E0019836
:1047E00045FA00F5009535B1D4F8800058B120465F
:1047F000FFF778FC07E07F1C24E0F0222046E16F01
:10480000FFF75EFA103F0F2FF7DC012001E009F1FE
:10481000010081466D10FAD1B9F10A0F06DD316849
:1048200006204861306801683046884709EB071266
:104830002046E16FFFF744FA4A4620460099FFF709
:104840008DFA002708F1010080465045B6DD002FA3
:104850000BDDD4F88000401CA0F5FE41C4F88000B8
:10486000FF3902D12046FFF73DFCB169206F086097
:10487000B169606F4860D6F8EC0058B1616A31B92F
:10488000606294F82800401C00F00700A062606A93
:10489000401E60620120BDE8FE8F2DE9FF5F0446E7
:1048A000D0F8A451D0F8EC000E4688B1686C60B91D
:1048B0002046A96CFFF7A4FCD4F8EC00686495F8D6
:1048C0004800401C00F00700A864686C401E686443
:1048D000D4F82401D4F87CB1D6F800A08069019006
:1048E000D4F86C010CE05BF828103AF911000028AC
:1048F00000DA404294F87411084104D1A8F1010093
:10490000B0F10008EFDCD4F8686185E0019800227E
:1049100005EB80000390D0F88C1006EB4600C01E1B
:104920000F1839462046FEF7B5FC5BF826103AF919
:10493000110000280CDB94F8741108415FEA0009AB
:104940003BD00122791C2046FEF7A4FC00220CE09B
:1049500094F87411404208415FEA00092DD0012209
:10496000791C2046FEF796FC012205F1CC01204679
:10497000FEF790FCBF1C00970027B9F101000290E0
:1049800034D0012220460099FEF784FC02980127CA
:1049900040105FEA000929D0012220460099FEF765
:1049A00079FC03980227D0F88C100198204490F8E5
:1049B000B800B04209DBBD2008E00022791C204687
:1049C000FEF768FC761CFF1CAFE7D920084407E01F
:1049D000012220460099FEF75DFC00987F00401CF4
:1049E00000904FEA69005FEA0009F1D100222046F9
:1049F0000099FEF74FFC009800F10E0909E00298BB
:104A0000074201D0012200E0002249462046FEF77D
:104A100041FC7F10F3D1761C46457FF777AFD4F881
:104A20006C01B0420CDB0198012205EB8000D0F84C
:104A30008C1006EB4600C01E01442046FEF72AFCFF
:104A400004B00120BDE8F09F2DE9F04F0646D0F8F4
:104A5000A4418069CBB00D4600682067B06940680A
:104A60006067D6F8EC0028B1606A18B92046A16AE0
:104A7000FFF710FCD6F86C91D6F87421D6F87C01BB
:104A8000469028684A90D6F868014FF0000A05461B
:104A900010E0469951F820304A9931F91310002955
:104AA00000DA4942114104AB012943F8201000D13A
:104AB0008246401C4845ECDDD4E921100027B84669
:104AC00000EB010B48E004A850F82500029098B9CB
:104AD0007F1C40E02046FFF705FBF0222046E16FF7
:104AE000FFF7EEF8424659462046103FFFF7B9F966
:104AF000D4F888B04FF000080F2F01DD5545E9DDEF
:104B00000298012806DD00F001020BF8082008F1E8
:104B1000010820E02046FFF7E5FA012000EB07122C
:104B20002046E16FFFF7CCF8469850F825104A98D8
:104B300030F91110012000EBE17102462046FFF729
:104B40000DF9424659462046FFF78BF94FF0000811
:104B5000D4F888B047466D1C4D45B4DD002F02DC0B
:104B6000B8F1000F15D0D4F88000401CC4F88000C4
:104B7000D4F8842002EB0801A0F5FE42C4F88410AA
:104B8000FF3A03D040F2A930814202D92046FFF714
:104B9000A9FAB169206F0860B169606F4860D6F802
:104BA000EC0058B1616A31B9606294F82800401C89
:104BB00000F00700A062606A401E60624BB00120F6
:104BC000BDE8F08F2DE9F84F0446D0F8A451D0F895
:104BD000EC000E4688B1686C60B92046A96CFFF7FE
:104BE0000FFBD4F8EC00686495F84800401C00F016
:104BF0000700A864686C401E6864D4F82401D4F8E7
:104C00007CB1D6F800A080690090D4F86C710BE0FC
:104C10005BF827103AF91100002800DA404294F8B6
:104C20007411084102D17F1E002FF1DCB9460CE05F
:104C30005BF829103AF91100002800DA404294F894
:104C40007011084104D1A9F10109B9F1000FEFDC9D
:104C5000D4F868613DE0009805EB8000D0F88C1036
:104C600006EB4600C01E01EB00084E4504DD0022A5
:104C700041462046FEF70EFB5BF826103AF911007C
:104C8000002812DB94F87411084138D0411004D088
:104C900000F0010208F1020117E0012208F1010110
:104CA0002046FEF7F7FA00220DE094F87411404216
:104CB000084124D04110EBD1012208F10101204626
:104CC000FEF7E8FA012205F1CC012046FEF7E2FAF0
:104CD000761CBE42BFDDD4F86C01B0420CDB0098FC
:104CE000012205EB8000D0F88C1006EB4600C01EB8
:104CF00001442046FEF7CEFA0120BDE8F88F0022DD
:104D000008F101012046FEF7C5FA08F10308761CF8
:104D1000B2E700002DE9F05F0546D0F87491D0F8B5
:104D2000A44180698B4600682067A8694068606775
:104D3000D5F8EC0028B1606A18B92046A16AFFF7DF
:104D4000A9FA002747E000BF05EB87005BF82710B2
:104D5000D0F8400105EB8002B1F90010D2F824A18F
:104D600004EB800241FA09F150695161081A80464A
:104D700003D5C8F10000A8F10108002601E04010A9
:104D8000761C0028FBD10B2E06DD29680620486121
:104D90002868016828468847DAF81410E26E204631
:104DA00042B104EB8100C06C50F82610491C40F859
:104DB000261009E000EB8101C96A8A1951F8261012
:104DC00092F80024FEF7CAFF26B13246414620463B
:104DD000FEF7C4FF7F1CD5F83C01B842B4DCA969DA
:104DE000206F0860A969606F4860D5F8EC0058B181
:104DF000616A31B9606294F82800401C00F0070035
:104E0000A062606A401E60620120BDE8F09F2DE94B
:104E1000F34F0646D0F8A451D0F8EC0083B088B127
:104E2000686C60B93046A96CFFF7EAF9D6F8EC0077
:104E3000686495F84800401C00F00700A864686C9E
:104E4000401E6864002791E006EB87010498D1F8C2
:104E5000401106EB810250F82700D2F8242105EB1F
:104E60008101B0F90000D2F814B096F874218A4696
:104E7000104105EB8B020192D26C4B6B496AD4183E
:104E8000411A5FEA010812D0CAF824000122214623
:104E90003046FEF7FFF9B8F1000F11DD0022611C6A
:104EA0003046FEF7F7F904F10209042112E000226E
:104EB00021463046FEF7EEF90020CAF8340054E0EF
:104EC000C8F100080122611C3046FEF7E3F904F145
:104ED000030908210024CAF83410B8F10100009039
:104EE00018D0012249463046FEF7D4F9DDE90080AA
:104EF0000124C06C143007E0012249463046FEF719
:104F0000C9F9640009F1010081464FEA68005FEACF
:104F10000008F1D1002249463046FEF7BBF906EB06
:104F20000B01012091F8982000FA02F2B4EB620F15
:104F300001DA002008E091F8A8108840B4EB600F77
:104F400004DDDAF834000830CAF8340009F10E083C
:104F500009E00098044201D0012200E0002241460D
:104F60003046FEF797F96410F3D17F1CD6F83C0168
:104F7000B8423FF769AF05B00120BDE8F08F0000EF
:104F80002DE9F0410546D0F87471D0F8A44180694C
:104F9000884600682067A86940686067D5F8EC001B
:104FA00028B1606A18B92046A16AFFF773F9002694
:104FB0000AE000BF58F826000122B0F90010204690
:104FC0003941FEF7CBFE761CD5F83C01B042F1DC4E
:104FD000A969206F0860A969606F4860D5F8EC0086
:104FE00058B1616A31B9606294F82800401C00F041
:104FF0000700A062606A401E60620120BDE8F08187
:105000002DE9F0410546D0F8A441D0F8EC008846DF
:1050100088B1606C60B92846A16CFFF7F1F8D5F84B
:10502000EC00606494F84800401C00F00700A064A5
:10503000606C401E60640026CC34D5F874710BE0BF
:1050400058F826002146B0F90000384100F001026E
:105050002846FEF71FF9761CD5F83C01B042EFDC7C
:105060000120BDE8F08100002DE9F8430546D0F8A5
:10507000A441D0F8EC000F4688B1606A68B90020FE
:10508000014603E004EB8002401C5161D5F8202169
:105090008242F7DCD5F8EC006062401E60620026B8
:1050A00021E000BF05EB8600D0F8400105EB800150
:1050B00004EB8008D1F8241128468A6904EB8202A7
:1050C000D26D00924969D8F8142004EB8101CB6CB1
:1050D00057F8261000F08EFF57F82600761CB0F91E
:1050E0000010C8F81410D5F83C01B042DADC0120F9
:1050F000BDE8F8832DE9F04F0546D0F8A44180695A
:105100008BB00F4600680190A86904F10C011822C9
:105110004068029003A88B468246FBF794F80995F5
:10512000D5F8EC0038B1606A28B901A8A16AFFF788
:10513000E7F8002846D000260DF1040923E000BF5F
:1051400005EB8600D0F8400105EB800109EB8008F3
:10515000D1F8241101A88A6904EB8202D26B009273
:105160004969D8F8102004EB8101CB6A57F8261062
:1051700000F02CF8002825D057F82600761CB0F94E
:105180000010C8F81010D5F83C01B042D8DCA9696D
:10519000019818220860A96902984860514658464B
:1051A000FBF751F8D5F8EC0058B1616A31B960628B
:1051B00094F82800401C00F00700A062606A401EBE
:1051C000606201200BB0BDE8F08F00002DE9FC5FAC
:1051D0008B46016A82460C9ED1F88091D1F87C0101
:1051E0000190BBF900001F46801A044601D56042B9
:1051F000641E002501E040106D1C0028FBD10B2D22
:1052000007DD096806204861DAF8200001680968AE
:105210008847781957F8251090F800245046FEF773
:10522000DEFD00285CD035B12A4621465046FEF707
:10523000D6FD002854D00024012744E0019850F8FE
:1052400027103BF911505DB9641C3BE096F8F0243F
:105250005046D6F8C013FEF7C2FD002840D0103CDF
:105260000F2CF3DC0095002D03DA00986D42401EF0
:105270000090012002E000BF08F1010080466D109F
:10528000FAD1B8F10A0F09DDDAF820100620096812
:105290004861DAF8200001680968884708EB0410C3
:1052A000311891F8002456F820105046FEF797FD6B
:1052B000002815D0424650460099FEF790FD002880
:1052C0000ED000247F1C4F45B8DD002C07DD96F87A
:1052D000002450463168FEF782FD002800D00120EE
:1052E000BDE8FC9F10B504460068816820468847E9
:1052F0002046BDE8104001F0B0BE2DE9FC471E4637
:105300008846814615461446012708E0CDE9007815
:105310004A462346691E104601F07BF8641CB442DD
:10532000F4DBBDE8FC870000F0B59E1A002E11DD0D
:1053300000250DE050F825309C18334614F8017C08
:1053400003E000BF04F8017B5B1E002BFADC6D1C40
:105350008D42EFDBF0BD00008AB2014640F6FF73DC
:105360000148FCF7ABB900004C00002001B582B049
:1053700040F6FF700090012301AA02A90248FCF741
:10538000F9FA9DF804000EBD4C0000208AB20146D7
:1053900040F6FF730148FCF739BA00004C000020CA
:1053A00070B5D0F8A4410546D4E903010144491E73
:1053B0000A0C1204824201DA02F50042217F02FA4D
:1053C00001F0E060C00E206A1FD0002816DBA06943
:1053D00006E029460020FEF756FDA069401EA061A8
:1053E0000028F6D1206A2946401CFEF74CFD206AB1
:1053F000FE2803D129460020FEF745FDD4E905101B
:105400000844A0610020606130E0002802D014DB75
:10541000A0690CE0A06900F10100A0610DE029463F
:105420004FF00000FEF72FFDA069401EA06100288C
:10543000F5D12946206AFEF726FD6069B0B1A06962
:1054400006E029460020FEF71EFDA069401EA0616F
:105450000028F6D12946FF20FEF715FD2946002039
:10546000FEF711FD6069401E6061F3D11A49E068E2
:1054700008422FD0A06906E029460020FEF703FD70
:10548000A069401EA0610028F6D1E0682946C0F35B
:10549000C740FEF7F8FCE0686FEAE04010F0FF0F4D
:1054A00003D129460020FEF7EEFCE06810F4FF2F40
:1054B00010D0C0F3C7202946FEF7E5FCE0686FEA8C
:1054C000E02010F0FF0F05D12946BDE87040002014
:1054D000FEF7D9BC70BD000000F8FF072DE9F04FC2
:1054E0000446D0F8A471D0F8080189B010B138464C
:1054F000FEF7F8FD002000900190029003900490C8
:10550000059006900546EA460DF110084FF0010996
:10551000079041E004EB8500D0F82461D4F86801DD
:10552000E0B9D4F87001C8B9D6F814B05AF82B0015
:10553000A0B904EB8B0078300890006820B92046B1
:1055400001F00EFC0899086007EB8B00C26C08980C
:105550000168204606F0F4FF4AF82B90D4F86C015D
:10556000C8B1B66958F82600A8B904EB860000F166
:10557000880BD0F8880020B9204601F0F1FBCBF869
:10558000000007EB8600DBF80010C26D204606F035
:10559000D7FF48F826906D1CD4F82001A842B9DC4A
:1055A00009B0BDE8F08F70B50446D0F8A451D0F82A
:1055B00008018AB00028A069006811D02867A06996
:1055C000406868672846FEF78DFD284600F094F98C
:1055D000A169286F0860A169686F48600AB070BD52
:1055E0000090A06905F10C0118224068019002A802
:1055F0000E460546FAF727FE6846089400F086F93D
:1056000030B9216819204861206801682046884720
:10561000A169009818220860A1690198486029468C
:105620003046FAF710FED9E770B50546D0F8844148
:10563000D0F8A401816828468847217D022021B145
:1056400001290AD0022909D10CE02075D5F8D8002B
:1056500020B9206A401C206200E02075A069401C2F
:10566000A06170BDD5F8D8000028F2D001202075C7
:10567000EFE700002DE9F0410446184800250E46EA
:105680000078002828D1164F24E000BF00F0EEF883
:1056900000F086F8002240213846FBF7D9FB202095
:1056A000FFF764FE200EFFF761FEC4F30740FFF72B
:1056B0005DFEC4F30720FFF759FEE0B2FFF756FE88
:1056C000012240213846FBF7C3FB00F069F804F5DE
:1056D00080546D1CB542D9D3BDE8F0813C00002058
:1056E0000014024070B5134D1524002240212846B5
:1056F000FBF7AEFB2046FFF739FEFF20FFF736FE33
:105700000446012240212846FBF7A2FB0A48847088
:10571000E0070ED1002240212846FBF799FBB72075
:10572000FFF724FE2846BDE8704001224021FBF728
:105730008FBB70BD001402403C0000202DE9F041F9
:105740000646154817460C460078002821D1134D0F
:10575000002240212846FBF77BFB0320FFF706FED3
:10576000200EFFF703FEC4F30740FFF7FFFDC4F36D
:105770000720FFF7FBFDE0B2FFF7F8FD39463046A2
:10578000FFF7EAFD2846BDE8F04101224021FBF782
:105790005FBBBDE8F08100003C0000200014024027
:1057A0002DE9F0410F4E00244FF4C8770520FBF798
:1057B000FBF9002240213046FBF74AFB0520FFF7AA
:1057C000D5FDFF20FFF7D2FD0546012240213046DE
:1057D000FBF73EFB641CA4B2E80701D0BC42E5D352
:1057E000BDE8F081001402402DE9F0470646C8B23A
:1057F000C0F580771C480024904600780D460028AC
:1058000030D11046B8452BD93A46304600F042F820
:10581000A8EB0700C1173D443E4400EB1161C1F302
:105820000F2721F0FF01401A1FFA80F84FF480790A
:105830000AE04A462946304600F02CF8641CA4B21F
:1058400005F5807506F58076BC42F2D3B8F100000C
:1058500008D0024629463046BDE8F04700F01AB8A5
:105860000246F8E7BDE8F0873C00002010B5084C80
:10587000002240212046FBF7EBFA0620FFF776FDD9
:1058800020460122BDE810404021FBF7E1BA0000AC
:10589000001402402DE9F04115460C460746FFF77B
:1058A000E5FF144E002240213046FBF7D1FA0220DA
:1058B000FFF75CFD200EFFF759FDC4F30740FFF72B
:1058C00055FDC4F30720FFF751FDE0B2FFF74EFD91
:1058D000B015854200D9054629463846FFF756FDE2
:1058E000012240213046FBF7B3FABDE8F041FFF753
:1058F00057BF00000014024010B5044607227F2164
:10590000FEF72CFA0020E060206110BD10B50446BF
:1059100007227F21FEF763FA002803D00020A06051
:10592000E060012010BD70B502680D4686B0516977
:10593000002906DD506F884203DB106F50F82140CC
:105940000BE0936F53B1D06F884207DCD2F88040F0
:105950008C4203DB081A53F8204014B99161106F90
:105960000468214601E0252B16D011F8013B002BDD
:10597000F9D102F128000DF1080C4BC88CE84B005E
:10598000D2E90801CDE90001D36992692146284690
:10599000FCF752FF06B070BD08787328E9D106B055
:1059A00021462846BDE870401832FCF745BF2DE976
:1059B000F04FC1B09B464AAB0D4693E84202D0F887
:1059C000A0016B6802EB810A00EB83030024D3F88B
:1059D0002C802B6900EB8300476D29E0324651464D
:1059E0006846434698470BEBC4130020EC4657F833
:1059F00020105CF82020002A0ADA524202EB6102F1
:105A00008A4202DB92FBF1F100E00021494207E00B
:105A100002EB61028A4202DB92FBF1F100E000211D
:105A200023F81010401C4028E1DB686A641C06441F
:105A30004C45D3D341B0BDE8F08F00002DE9F04FC5
:105A4000C1B09B464AAB0D4693E84202D0F8A00194
:105A50006B6802EB810A00EB83030024D3F86480B7
:105A60002B6900EB8300D0F88C7025E0324651465C
:105A7000684643469847DFED130A0BEBC41100203C
:105A80006B4600BF03EB800292ED000A07EB800239
:105A900092ED001A20EE010A30EE200ABDEEC00A97
:105AA00010EE102AA2F5804221F81020401C402858
:105AB000E8DB686A641C06444C45D7D341B0BDE8B6
:105AC000F08F00000001804638B504468DF80000D4
:105AD00040F6FF73012269460248FCF7EDF92046C3
